{
	"data": {
		"bytecode": {
			"linkReferences": {},
			"object": "6101006040523480156200001257600080fd5b5060405162003d6938038062003d6983398181016040528101906200003891906200048c565b33816040518060400160405280600a81526020017f4b697420546f6b656e73000000000000000000000000000000000000000000008152506040518060400160405280600381526020017f4b495400000000000000000000000000000000000000000000000000000000008152508160039081620000b7919062000738565b508060049081620000c9919062000738565b505050600080620000e0836200022e60201b60201c565b9150915081620000f2576012620000f4565b805b60ff1660a08160ff16815250508273ffffffffffffffffffffffffffffffffffffffff1660808173ffffffffffffffffffffffffffffffffffffffff1681525050505050600073ffffffffffffffffffffffffffffffffffffffff168173ffffffffffffffffffffffffffffffffffffffff1603620001ad5760006040517f1e4fbdf7000000000000000000000000000000000000000000000000000000008152600401620001a4919062000830565b60405180910390fd5b620001be816200034860201b60201c565b508073ffffffffffffffffffffffffffffffffffffffff1660e08173ffffffffffffffffffffffffffffffffffffffff16815250503373ffffffffffffffffffffffffffffffffffffffff1660c08173ffffffffffffffffffffffffffffffffffffffff16815250505062000942565b6000806000808473ffffffffffffffffffffffffffffffffffffffff1660405160240160405160208183030381529060405263313ce56760e01b6020820180517bffffffffffffffffffffffffffffffffffffffffffffffffffffffff8381831617835250505050604051620002a59190620008c6565b600060405180830381855afa9150503d8060008114620002e2576040519150601f19603f3d011682016040523d82523d6000602084013e620002e7565b606091505b5091509150818015620002fc57506020815110155b1562000339576000818060200190518101906200031a919062000910565b905060ff8016811162000337576001819450945050505062000343565b505b6000809350935050505b915091565b6000600560009054906101000a900473ffffffffffffffffffffffffffffffffffffffff16905081600560006101000a81548173ffffffffffffffffffffffffffffffffffffffff021916908373ffffffffffffffffffffffffffffffffffffffff1602179055508173ffffffffffffffffffffffffffffffffffffffff168173ffffffffffffffffffffffffffffffffffffffff167f8be0079c531659141344cd1fd0a4f28419497f9722a3daafe3b4186f6b6457e060405160405180910390a35050565b600080fd5b600073ffffffffffffffffffffffffffffffffffffffff82169050919050565b6000620004408262000413565b9050919050565b6000620004548262000433565b9050919050565b620004668162000447565b81146200047257600080fd5b50565b60008151905062000486816200045b565b92915050565b600060208284031215620004a557620004a46200040e565b5b6000620004b58482850162000475565b91505092915050565b600081519050919050565b7f4e487b7100000000000000000000000000000000000000000000000000000000600052604160045260246000fd5b7f4e487b7100000000000000000000000000000000000000000000000000000000600052602260045260246000fd5b600060028204905060018216806200054057607f821691505b602082108103620005565762000555620004f8565b5b50919050565b60008190508160005260206000209050919050565b60006020601f8301049050919050565b600082821b905092915050565b600060088302620005c07fffffffffffffffffffffffffffffffffffffffffffffffffffffffffffffffff8262000581565b620005cc868362000581565b95508019841693508086168417925050509392505050565b6000819050919050565b6000819050919050565b600062000619620006136200060d84620005e4565b620005ee565b620005e4565b9050919050565b6000819050919050565b6200063583620005f8565b6200064d620006448262000620565b8484546200058e565b825550505050565b600090565b6200066462000655565b620006718184846200062a565b505050565b5b8181101562000699576200068d6000826200065a565b60018101905062000677565b5050565b601f821115620006e857620006b2816200055c565b620006bd8462000571565b81016020851015620006cd578190505b620006e5620006dc8562000571565b83018262000676565b50505b505050565b600082821c905092915050565b60006200070d60001984600802620006ed565b1980831691505092915050565b6000620007288383620006fa565b9150826002028217905092915050565b6200074382620004be565b67ffffffffffffffff8111156200075f576200075e620004c9565b5b6200076b825462000527565b620007788282856200069d565b600060209050601f831160018114620007b057600084156200079b578287015190505b620007a785826200071a565b86555062000817565b601f198416620007c0866200055c565b60005b82811015620007ea57848901518255600182019150602085019450602081019050620007c3565b868310156200080a578489015162000806601f891682620006fa565b8355505b6001600288020188555050505b505050505050565b6200082a8162000433565b82525050565b60006020820190506200084760008301846200081f565b92915050565b600081519050919050565b600081905092915050565b60005b838110156200088357808201518184015260208101905062000866565b60008484015250505050565b60006200089c826200084d565b620008a8818562000858565b9350620008ba81856020860162000863565b80840191505092915050565b6000620008d482846200088f565b915081905092915050565b620008ea81620005e4565b8114620008f657600080fd5b50565b6000815190506200090a81620008df565b92915050565b6000602082840312156200092957620009286200040e565b5b60006200093984828501620008f9565b91505092915050565b60805160a05160c05160e0516133db6200098e600039600050506000610f5401526000610c530152600081816107d401528181610c85015281816118f201526119a201526133db6000f3fe608060405234801561001057600080fd5b506004361061021c5760003560e01c80638da5cb5b11610125578063c63d75b6116100ad578063d905777e1161007c578063d905777e14610706578063dd62ed3e14610736578063de9f1be314610766578063ef8b30f714610784578063f2fde38b146107b45761021c565b8063c63d75b614610645578063c6e6f59214610675578063c9f7927a146106a5578063ce96cb77146106d65761021c565b8063a9059cbb116100f4578063a9059cbb14610567578063b2bdfa7b14610597578063b3d7f6b9146105b5578063b460af94146105e5578063ba087652146106155761021c565b80638da5cb5b146104cb57806394bf804d146104e957806395d89b411461051957806396212916146105375761021c565b8063313ce567116101a8578063479c925411610177578063479c9254146104135780634cdad506146104315780636e553f651461046157806370a0823114610491578063715018a6146104c15761021c565b8063313ce5671461038957806338d52e0f146103a75780633ccfd60b146103c5578063402d267d146103e35761021c565b80630a28a477116101ef5780630a28a477146102bd57806318160ddd146102ed57806323b872dd1461030b57806327853ea91461033b5780632a7beacc146103575761021c565b806301e1d1141461022157806306fdde031461023f57806307a2d13a1461025d578063095ea7b31461028d575b600080fd5b6102296107d0565b6040516102369190612649565b60405180910390f35b610247610871565b60405161025491906126f4565b60405180910390f35b61027760048036038101906102729190612747565b610903565b6040516102849190612649565b60405180910390f35b6102a760048036038101906102a291906127d2565b610917565b6040516102b4919061282d565b60405180910390f35b6102d760048036038101906102d29190612747565b61093a565b6040516102e49190612649565b60405180910390f35b6102f561094e565b6040516103029190612649565b60405180910390f35b61032560048036038101906103209190612848565b610958565b604051610332919061282d565b60405180910390f35b6103556004803603810190610350919061289b565b610987565b005b610371600480360381019061036c9190612928565b610c03565b60405161038093929190612968565b60405180910390f35b610391610c47565b60405161039e91906129bb565b60405180910390f35b6103af610c81565b6040516103bc91906129e5565b60405180910390f35b6103cd610ca9565b6040516103da9190612649565b60405180910390f35b6103fd60048036038101906103f89190612a00565b610ce0565b60405161040a9190612649565b60405180910390f35b61041b610d0a565b6040516104289190612649565b60405180910390f35b61044b60048036038101906104469190612747565b610d1a565b6040516104589190612649565b60405180910390f35b61047b60048036038101906104769190612a2d565b610d2e565b6040516104889190612649565b60405180910390f35b6104ab60048036038101906104a69190612a00565b610d56565b6040516104b89190612649565b60405180910390f35b6104c9610d9e565b005b6104d3610db2565b6040516104e091906129e5565b60405180910390f35b61050360048036038101906104fe9190612a2d565b610ddc565b6040516105109190612649565b60405180910390f35b610521610e5e565b60405161052e91906126f4565b60405180910390f35b610551600480360381019061054c9190612747565b610ef0565b60405161055e91906129e5565b60405180910390f35b610581600480360381019061057c91906127d2565b610f2f565b60405161058e919061282d565b60405180910390f35b61059f610f52565b6040516105ac91906129e5565b60405180910390f35b6105cf60048036038101906105ca9190612747565b610f76565b6040516105dc9190612649565b60405180910390f35b6105ff60048036038101906105fa9190612a6d565b610f8a565b60405161060c9190612649565b60405180910390f35b61062f600480360381019061062a9190612a6d565b61100e565b60405161063c9190612649565b60405180910390f35b61065f600480360381019061065a9190612a00565b611092565b60405161066c9190612649565b60405180910390f35b61068f600480360381019061068a9190612747565b6110bc565b60405161069c9190612649565b60405180910390f35b6106bf60048036038101906106ba9190612928565b6110d0565b6040516106cd929190612b7e565b60405180910390f35b6106f060048036038101906106eb9190612a00565b611110565b6040516106fd9190612649565b60405180910390f35b610720600480360381019061071b9190612a00565b61112c565b60405161072d9190612649565b60405180910390f35b610750600480360381019061074b9190612bb5565b61113e565b60405161075d9190612649565b60405180910390f35b61076e6111c5565b60405161077b9190612649565b60405180910390f35b61079e60048036038101906107999190612747565b6111cb565b6040516107ab9190612649565b60405180910390f35b6107ce60048036038101906107c99190612a00565b6111df565b005b60007f000000000000000000000000000000000000000000000000000000000000000073ffffffffffffffffffffffffffffffffffffffff166370a08231306040518263ffffffff1660e01b815260040161082b91906129e5565b602060405180830381865afa158015610848573d6000803e3d6000fd5b505050506040513d601f19601f8201168201806040525081019061086c9190612c0a565b905090565b60606003805461088090612c66565b80601f01602080910402602001604051908101604052809291908181526020018280546108ac90612c66565b80156108f95780601f106108ce576101008083540402835291602001916108f9565b820191906000526020600020905b8154815290600101906020018083116108dc57829003601f168201915b5050505050905090565b6000610910826000611265565b9050919050565b6000806109226112be565b905061092f8185856112c6565b600191505092915050565b60006109478260016112d8565b9050919050565b6000600254905090565b6000806109636112be565b9050610970858285611331565b61097b8585856113c5565b60019150509392505050565b61098f6114b9565b60006008600088815260200190815260200160002060008781526020019081526020016000209050600042905060008260000154036109e8576109e78282888860028111156109e1576109e0612c97565b5b88611540565b5b6000806109f48461169f565b915091506000825111610a3c576040517f08c379a0000000000000000000000000000000000000000000000000000000008152600401610a3390612d12565b60405180910390fd5b600082600081518110610a5257610a51612d32565b5b60200260200101519050600082600081518110610a7257610a71612d32565b5b6020026020010151905081871015610abf576040517f08c379a0000000000000000000000000000000000000000000000000000000008152600401610ab690612dd3565b60405180910390fd5b80851015610b02576040517f08c379a0000000000000000000000000000000000000000000000000000000008152600401610af990612e3f565b60405180910390fd5b60005b8660020180549050811015610baf5781876002018281548110610b2b57610b2a612d32565b5b906000526020600020015403610b9c576001876004018281548110610b5357610b52612d32565b5b90600052602060002090602091828204019190066101000a81548160ff02191690831515021790555082876001016000828254610b909190612e8e565b92505081905550610baf565b8080610ba790612ec2565b915050610b05565b507fdebfa329389a6f20d44c8ae61763ba5f5ddfe7f867d953dbcd740a80568fcbd28c8c88600001548960010154604051610bed9493929190612f0a565b60405180910390a1505050505050505050505050565b6008602052816000526040600020602052806000526040600020600091509150508060000154908060010154908060050160009054906101000a900460ff16905083565b6000610c5161189f565b7f0000000000000000000000000000000000000000000000000000000000000000610c7c9190612f4f565b905090565b60007f0000000000000000000000000000000000000000000000000000000000000000905090565b600080610cb533611110565b90506000610cc28261093a565b9050610cd8610ccf6112be565b333385856118a4565b809250505090565b60007fffffffffffffffffffffffffffffffffffffffffffffffffffffffffffffffff9050919050565b6000610d1533610ce0565b905090565b6000610d27826000611265565b9050919050565b600080610d3a846111cb565b9050610d4f610d476112be565b33868461199d565b5092915050565b60008060008373ffffffffffffffffffffffffffffffffffffffff1673ffffffffffffffffffffffffffffffffffffffff168152602001908152602001600020549050919050565b610da66114b9565b610db06000611a40565b565b6000600560009054906101000a900473ffffffffffffffffffffffffffffffffffffffff16905090565b600080610de883611092565b905080841115610e33578284826040517f284ff667000000000000000000000000000000000000000000000000000000008152600401610e2a93929190612f84565b60405180910390fd5b6000610e3e85610f76565b9050610e53610e4b6112be565b85838861199d565b809250505092915050565b606060048054610e6d90612c66565b80601f0160208091040260200160405190810160405280929190818152602001828054610e9990612c66565b8015610ee65780601f10610ebb57610100808354040283529160200191610ee6565b820191906000526020600020905b815481529060010190602001808311610ec957829003601f168201915b5050505050905090565b60078181548110610f0057600080fd5b906000526020600020016000915054906101000a900473ffffffffffffffffffffffffffffffffffffffff1681565b600080610f3a6112be565b9050610f478185856113c5565b600191505092915050565b7f000000000000000000000000000000000000000000000000000000000000000081565b6000610f83826001611265565b9050919050565b600080610f9683611110565b905080851115610fe1578285826040517ffe9cceec000000000000000000000000000000000000000000000000000000008152600401610fd893929190612f84565b60405180910390fd5b6000610fec8661093a565b9050611002610ff96112be565b868689856118a4565b80925050509392505050565b60008061101a8361112c565b905080851115611065578285826040517fb94abeec00000000000000000000000000000000000000000000000000000000815260040161105c93929190612f84565b60405180910390fd5b600061107086610d1a565b905061108661107d6112be565b8686848a6118a4565b80925050509392505050565b60007fffffffffffffffffffffffffffffffffffffffffffffffffffffffffffffffff9050919050565b60006110c98260006112d8565b9050919050565b606080600060086000868152602001908152602001600020600085815260200190815260200160002090506111048161169f565b92509250509250929050565b600061112561111e83610d56565b6000611265565b9050919050565b600061113782610d56565b9050919050565b6000600160008473ffffffffffffffffffffffffffffffffffffffff1673ffffffffffffffffffffffffffffffffffffffff16815260200190815260200160002060008373ffffffffffffffffffffffffffffffffffffffff1673ffffffffffffffffffffffffffffffffffffffff16815260200190815260200160002054905092915050565b60065481565b60006111d88260006112d8565b9050919050565b6111e76114b9565b600073ffffffffffffffffffffffffffffffffffffffff168173ffffffffffffffffffffffffffffffffffffffff16036112595760006040517f1e4fbdf700000000000000000000000000000000000000000000000000000000815260040161125091906129e5565b60405180910390fd5b61126281611a40565b50565b60006112b660016112746107d0565b61127e9190612e8e565b61128661189f565b600a61129291906130ee565b61129a61094e565b6112a49190612e8e565b8486611b06909392919063ffffffff16565b905092915050565b600033905090565b6112d38383836001611b5d565b505050565b60006113296112e561189f565b600a6112f191906130ee565b6112f961094e565b6113039190612e8e565b600161130d6107d0565b6113179190612e8e565b8486611b06909392919063ffffffff16565b905092915050565b600061133d848461113e565b90507fffffffffffffffffffffffffffffffffffffffffffffffffffffffffffffffff81146113bf57818110156113af578281836040517ffb8f41b20000000000000000000000000000000000000000000000000000000081526004016113a693929190612f84565b60405180910390fd5b6113be84848484036000611b5d565b5b50505050565b600073ffffffffffffffffffffffffffffffffffffffff168373ffffffffffffffffffffffffffffffffffffffff16036114375760006040517f96c6fd1e00000000000000000000000000000000000000000000000000000000815260040161142e91906129e5565b60405180910390fd5b600073ffffffffffffffffffffffffffffffffffffffff168273ffffffffffffffffffffffffffffffffffffffff16036114a95760006040517fec442f050000000000000000000000000000000000000000000000000000000081526004016114a091906129e5565b60405180910390fd5b6114b4838383611d34565b505050565b6114c16112be565b73ffffffffffffffffffffffffffffffffffffffff166114df610db2565b73ffffffffffffffffffffffffffffffffffffffff161461153e576115026112be565b6040517f118cdaa700000000000000000000000000000000000000000000000000000000815260040161153591906129e5565b60405180910390fd5b565b6000849050600061155084611f59565b90508467ffffffffffffffff81111561156c5761156b613139565b5b60405190808252806020026020018201604052801561159a5781602001602082028036833780820191505090505b508760020190805190602001906115b29291906125c6565b508467ffffffffffffffff8111156115cd576115cc613139565b5b6040519080825280602002602001820160405280156115fb5781602001602082028036833780820191505090505b508760030190805190602001906116139291906125c6565b5060005b85811015611695578288600201828154811061163657611635612d32565b5b906000526020600020018190555085846116509190613197565b88600301828154811061166657611665612d32565b5b906000526020600020018190555081836116809190612e8e565b9250808061168d90612ec2565b915050611617565b5050505050505050565b6060806000805b8460020180549050811015611711578460040181815481106116cb576116ca612d32565b5b90600052602060002090602091828204019190069054906101000a900460ff166116fe5781806116fa90612ec2565b9250505b808061170990612ec2565b9150506116a6565b508067ffffffffffffffff81111561172c5761172b613139565b5b60405190808252806020026020018201604052801561175a5781602001602082028036833780820191505090505b5091508067ffffffffffffffff81111561177757611776613139565b5b6040519080825280602002602001820160405280156117a55781602001602082028036833780820191505090505b5092506000805b8560020180549050811015611897578560040181815481106117d1576117d0612d32565b5b90600052602060002090602091828204019190069054906101000a900460ff166118845785600201818154811061180b5761180a612d32565b5b906000526020600020015484838151811061182957611828612d32565b5b60200260200101818152505085600301818154811061184b5761184a612d32565b5b906000526020600020015485838151811061186957611868612d32565b5b602002602001018181525050818061188090612ec2565b9250505b808061188f90612ec2565b9150506117ac565b505050915091565b600090565b8273ffffffffffffffffffffffffffffffffffffffff168573ffffffffffffffffffffffffffffffffffffffff16146118e3576118e2838683611331565b5b6118ed838261203e565b6119187f000000000000000000000000000000000000000000000000000000000000000085846120c0565b8273ffffffffffffffffffffffffffffffffffffffff168473ffffffffffffffffffffffffffffffffffffffff168673ffffffffffffffffffffffffffffffffffffffff167ffbde797d201c681b91056529119e0b02407c7bb96a4a2c75c01fc9667232c8db858560405161198e9291906131c8565b60405180910390a45050505050565b6119c97f000000000000000000000000000000000000000000000000000000000000000085308561213f565b6119d383826121c1565b8273ffffffffffffffffffffffffffffffffffffffff168473ffffffffffffffffffffffffffffffffffffffff167fdcbc1c05240f31ff3ad067ef1ee35ce4997762752e3a095284754544f4c709d78484604051611a329291906131c8565b60405180910390a350505050565b6000600560009054906101000a900473ffffffffffffffffffffffffffffffffffffffff16905081600560006101000a81548173ffffffffffffffffffffffffffffffffffffffff021916908373ffffffffffffffffffffffffffffffffffffffff1602179055508173ffffffffffffffffffffffffffffffffffffffff168173ffffffffffffffffffffffffffffffffffffffff167f8be0079c531659141344cd1fd0a4f28419497f9722a3daafe3b4186f6b6457e060405160405180910390a35050565b600080611b14868686612243565b9050611b1f8361234a565b8015611b3c575060008480611b3757611b36613168565b5b868809115b15611b5157600181611b4e9190612e8e565b90505b80915050949350505050565b600073ffffffffffffffffffffffffffffffffffffffff168473ffffffffffffffffffffffffffffffffffffffff1603611bcf5760006040517fe602df05000000000000000000000000000000000000000000000000000000008152600401611bc691906129e5565b60405180910390fd5b600073ffffffffffffffffffffffffffffffffffffffff168373ffffffffffffffffffffffffffffffffffffffff1603611c415760006040517f94280d62000000000000000000000000000000000000000000000000000000008152600401611c3891906129e5565b60405180910390fd5b81600160008673ffffffffffffffffffffffffffffffffffffffff1673ffffffffffffffffffffffffffffffffffffffff16815260200190815260200160002060008573ffffffffffffffffffffffffffffffffffffffff1673ffffffffffffffffffffffffffffffffffffffff168152602001908152602001600020819055508015611d2e578273ffffffffffffffffffffffffffffffffffffffff168473ffffffffffffffffffffffffffffffffffffffff167f8c5be1e5ebec7d5bd14f71427d1e84f3dd0314c0f7b2291e5b200ac8c7c3b92584604051611d259190612649565b60405180910390a35b50505050565b600073ffffffffffffffffffffffffffffffffffffffff168373ffffffffffffffffffffffffffffffffffffffff1603611d86578060026000828254611d7a9190612e8e565b92505081905550611e59565b60008060008573ffffffffffffffffffffffffffffffffffffffff1673ffffffffffffffffffffffffffffffffffffffff16815260200190815260200160002054905081811015611e12578381836040517fe450d38c000000000000000000000000000000000000000000000000000000008152600401611e0993929190612f84565b60405180910390fd5b8181036000808673ffffffffffffffffffffffffffffffffffffffff1673ffffffffffffffffffffffffffffffffffffffff16815260200190815260200160002081905550505b600073ffffffffffffffffffffffffffffffffffffffff168273ffffffffffffffffffffffffffffffffffffffff1603611ea25780600260008282540392505081905550611eef565b806000808473ffffffffffffffffffffffffffffffffffffffff1673ffffffffffffffffffffffffffffffffffffffff168152602001908152602001600020600082825401925050819055505b8173ffffffffffffffffffffffffffffffffffffffff168373ffffffffffffffffffffffffffffffffffffffff167fddf252ad1be2c89b69c2b068fc378daa952ba7f163c4a11628f55a4df523b3ef83604051611f4c9190612649565b60405180910390a3505050565b6000806002811115611f6e57611f6d612c97565b5b826002811115611f8157611f80612c97565b5b03611f9157620151809050612039565b60016002811115611fa557611fa4612c97565b5b826002811115611fb857611fb7612c97565b5b03611fc85762093a809050612039565b600280811115611fdb57611fda612c97565b5b826002811115611fee57611fed612c97565b5b03611ffe5762278d009050612039565b6040517f08c379a00000000000000000000000000000000000000000000000000000000081526004016120309061323d565b60405180910390fd5b919050565b600073ffffffffffffffffffffffffffffffffffffffff168273ffffffffffffffffffffffffffffffffffffffff16036120b05760006040517f96c6fd1e0000000000000000000000000000000000000000000000000000000081526004016120a791906129e5565b60405180910390fd5b6120bc82600083611d34565b5050565b61213a838473ffffffffffffffffffffffffffffffffffffffff1663a9059cbb85856040516024016120f392919061325d565b604051602081830303815290604052915060e01b6020820180517bffffffffffffffffffffffffffffffffffffffffffffffffffffffff8381831617835250505050612378565b505050565b6121bb848573ffffffffffffffffffffffffffffffffffffffff166323b872dd86868660405160240161217493929190613286565b604051602081830303815290604052915060e01b6020820180517bffffffffffffffffffffffffffffffffffffffffffffffffffffffff8381831617835250505050612378565b50505050565b600073ffffffffffffffffffffffffffffffffffffffff168273ffffffffffffffffffffffffffffffffffffffff16036122335760006040517fec442f0500000000000000000000000000000000000000000000000000000000815260040161222a91906129e5565b60405180910390fd5b61223f60008383611d34565b5050565b600080838502905060008019858709828110838203039150506000810361227e5783828161227457612273613168565b5b0492505050612343565b8084116122b7576040517f227bc15300000000000000000000000000000000000000000000000000000000815260040160405180910390fd5b600084868809905082811182039150808303925060008560000386169050808604955080840493506001818260000304019050808302841793506000600287600302189050808702600203810290508087026002038102905080870260020381029050808702600203810290508087026002038102905080870260020381029050808502955050505050505b9392505050565b60006001600283600381111561236357612362612c97565b5b61236d91906132bd565b60ff16149050919050565b60006123a3828473ffffffffffffffffffffffffffffffffffffffff1661240f90919063ffffffff16565b905060008151141580156123c85750808060200190518101906123c6919061331a565b155b1561240a57826040517f5274afe700000000000000000000000000000000000000000000000000000000815260040161240191906129e5565b60405180910390fd5b505050565b606061241d83836000612425565b905092915050565b60608147101561246c57306040517fcd78605900000000000000000000000000000000000000000000000000000000815260040161246391906129e5565b60405180910390fd5b6000808573ffffffffffffffffffffffffffffffffffffffff168486604051612495919061338e565b60006040518083038185875af1925050503d80600081146124d2576040519150601f19603f3d011682016040523d82523d6000602084013e6124d7565b606091505b50915091506124e78683836124f2565b925050509392505050565b6060826125075761250282612581565b612579565b6000825114801561252f575060008473ffffffffffffffffffffffffffffffffffffffff163b145b1561257157836040517f9996b31500000000000000000000000000000000000000000000000000000000815260040161256891906129e5565b60405180910390fd5b81905061257a565b5b9392505050565b6000815111156125945780518082602001fd5b6040517f1425ea4200000000000000000000000000000000000000000000000000000000815260040160405180910390fd5b828054828255906000526020600020908101928215612602579160200282015b828111156126015782518255916020019190600101906125e6565b5b50905061260f9190612613565b5090565b5b8082111561262c576000816000905550600101612614565b5090565b6000819050919050565b61264381612630565b82525050565b600060208201905061265e600083018461263a565b92915050565b600081519050919050565b600082825260208201905092915050565b60005b8381101561269e578082015181840152602081019050612683565b60008484015250505050565b6000601f19601f8301169050919050565b60006126c682612664565b6126d0818561266f565b93506126e0818560208601612680565b6126e9816126aa565b840191505092915050565b6000602082019050818103600083015261270e81846126bb565b905092915050565b600080fd5b61272481612630565b811461272f57600080fd5b50565b6000813590506127418161271b565b92915050565b60006020828403121561275d5761275c612716565b5b600061276b84828501612732565b91505092915050565b600073ffffffffffffffffffffffffffffffffffffffff82169050919050565b600061279f82612774565b9050919050565b6127af81612794565b81146127ba57600080fd5b50565b6000813590506127cc816127a6565b92915050565b600080604083850312156127e9576127e8612716565b5b60006127f7858286016127bd565b925050602061280885828601612732565b9150509250929050565b60008115159050919050565b61282781612812565b82525050565b6000602082019050612842600083018461281e565b92915050565b60008060006060848603121561286157612860612716565b5b600061286f868287016127bd565b9350506020612880868287016127bd565b925050604061289186828701612732565b9150509250925092565b60008060008060008060c087890312156128b8576128b7612716565b5b60006128c689828a01612732565b96505060206128d789828a01612732565b95505060406128e889828a01612732565b94505060606128f989828a01612732565b935050608061290a89828a01612732565b92505060a061291b89828a01612732565b9150509295509295509295565b6000806040838503121561293f5761293e612716565b5b600061294d85828601612732565b925050602061295e85828601612732565b9150509250929050565b600060608201905061297d600083018661263a565b61298a602083018561263a565b612997604083018461281e565b949350505050565b600060ff82169050919050565b6129b58161299f565b82525050565b60006020820190506129d060008301846129ac565b92915050565b6129df81612794565b82525050565b60006020820190506129fa60008301846129d6565b92915050565b600060208284031215612a1657612a15612716565b5b6000612a24848285016127bd565b91505092915050565b60008060408385031215612a4457612a43612716565b5b6000612a5285828601612732565b9250506020612a63858286016127bd565b9150509250929050565b600080600060608486031215612a8657612a85612716565b5b6000612a9486828701612732565b9350506020612aa5868287016127bd565b9250506040612ab6868287016127bd565b9150509250925092565b600081519050919050565b600082825260208201905092915050565b6000819050602082019050919050565b612af581612630565b82525050565b6000612b078383612aec565b60208301905092915050565b6000602082019050919050565b6000612b2b82612ac0565b612b358185612acb565b9350612b4083612adc565b8060005b83811015612b71578151612b588882612afb565b9750612b6383612b13565b925050600181019050612b44565b5085935050505092915050565b60006040820190508181036000830152612b988185612b20565b90508181036020830152612bac8184612b20565b90509392505050565b60008060408385031215612bcc57612bcb612716565b5b6000612bda858286016127bd565b9250506020612beb858286016127bd565b9150509250929050565b600081519050612c048161271b565b92915050565b600060208284031215612c2057612c1f612716565b5b6000612c2e84828501612bf5565b91505092915050565b7f4e487b7100000000000000000000000000000000000000000000000000000000600052602260045260246000fd5b60006002820490506001821680612c7e57607f821691505b602082108103612c9157612c90612c37565b5b50919050565b7f4e487b7100000000000000000000000000000000000000000000000000000000600052602160045260246000fd5b7f4e6f2072656d61696e696e672073706c69747320746f2070726f636573730000600082015250565b6000612cfc601e8361266f565b9150612d0782612cc6565b602082019050919050565b60006020820190508181036000830152612d2b81612cef565b9050919050565b7f4e487b7100000000000000000000000000000000000000000000000000000000600052603260045260246000fd5b7f496e73756666696369656e7420616d6f756e7420666f7220746865206e65787460008201527f207061796d656e74000000000000000000000000000000000000000000000000602082015250565b6000612dbd60288361266f565b9150612dc882612d61565b604082019050919050565b60006020820190508181036000830152612dec81612db0565b9050919050565b7f4e657874207061796d656e74206973206e6f7420647565207965740000000000600082015250565b6000612e29601b8361266f565b9150612e3482612df3565b602082019050919050565b60006020820190508181036000830152612e5881612e1c565b9050919050565b7f4e487b7100000000000000000000000000000000000000000000000000000000600052601160045260246000fd5b6000612e9982612630565b9150612ea483612630565b9250828201905080821115612ebc57612ebb612e5f565b5b92915050565b6000612ecd82612630565b91507fffffffffffffffffffffffffffffffffffffffffffffffffffffffffffffffff8203612eff57612efe612e5f565b5b600182019050919050565b6000608082019050612f1f600083018761263a565b612f2c602083018661263a565b612f39604083018561263a565b612f46606083018461263a565b95945050505050565b6000612f5a8261299f565b9150612f658361299f565b9250828201905060ff811115612f7e57612f7d612e5f565b5b92915050565b6000606082019050612f9960008301866129d6565b612fa6602083018561263a565b612fb3604083018461263a565b949350505050565b60008160011c9050919050565b6000808291508390505b600185111561301257808604811115612fee57612fed612e5f565b5b6001851615612ffd5780820291505b808102905061300b85612fbb565b9450612fd2565b94509492505050565b60008261302b57600190506130e7565b8161303957600090506130e7565b816001811461304f576002811461305957613088565b60019150506130e7565b60ff84111561306b5761306a612e5f565b5b8360020a91508482111561308257613081612e5f565b5b506130e7565b5060208310610133831016604e8410600b84101617156130bd5782820a9050838111156130b8576130b7612e5f565b5b6130e7565b6130ca8484846001612fc8565b925090508184048111156130e1576130e0612e5f565b5b81810290505b9392505050565b60006130f982612630565b91506131048361299f565b92506131317fffffffffffffffffffffffffffffffffffffffffffffffffffffffffffffffff848461301b565b905092915050565b7f4e487b7100000000000000000000000000000000000000000000000000000000600052604160045260246000fd5b7f4e487b7100000000000000000000000000000000000000000000000000000000600052601260045260246000fd5b60006131a282612630565b91506131ad83612630565b9250826131bd576131bc613168565b5b828204905092915050565b60006040820190506131dd600083018561263a565b6131ea602083018461263a565b9392505050565b7f496e76616c6964207061796d656e7420696e74657276616c0000000000000000600082015250565b600061322760188361266f565b9150613232826131f1565b602082019050919050565b600060208201905081810360008301526132568161321a565b9050919050565b600060408201905061327260008301856129d6565b61327f602083018461263a565b9392505050565b600060608201905061329b60008301866129d6565b6132a860208301856129d6565b6132b5604083018461263a565b949350505050565b60006132c88261299f565b91506132d38361299f565b9250826132e3576132e2613168565b5b828206905092915050565b6132f781612812565b811461330257600080fd5b50565b600081519050613314816132ee565b92915050565b6000602082840312156133305761332f612716565b5b600061333e84828501613305565b91505092915050565b600081519050919050565b600081905092915050565b600061336882613347565b6133728185613352565b9350613382818560208601612680565b80840191505092915050565b600061339a828461335d565b91508190509291505056fea2646970667358221220aacbccb42b3faa7f96b5a9d179ea1b55f9a52fbbc86bfc5ccc0a4dc9587b466b64736f6c63430008140033",
			"opcodes": "PUSH2 0x100 PUSH1 0x40 MSTORE CALLVALUE DUP1 ISZERO PUSH3 0x12 JUMPI PUSH1 0x0 DUP1 REVERT JUMPDEST POP PUSH1 0x40 MLOAD PUSH3 0x3D69 CODESIZE SUB DUP1 PUSH3 0x3D69 DUP4 CODECOPY DUP2 DUP2 ADD PUSH1 0x40 MSTORE DUP2 ADD SWAP1 PUSH3 0x38 SWAP2 SWAP1 PUSH3 0x48C JUMP JUMPDEST CALLER DUP2 PUSH1 0x40 MLOAD DUP1 PUSH1 0x40 ADD PUSH1 0x40 MSTORE DUP1 PUSH1 0xA DUP2 MSTORE PUSH1 0x20 ADD PUSH32 0x4B697420546F6B656E7300000000000000000000000000000000000000000000 DUP2 MSTORE POP PUSH1 0x40 MLOAD DUP1 PUSH1 0x40 ADD PUSH1 0x40 MSTORE DUP1 PUSH1 0x3 DUP2 MSTORE PUSH1 0x20 ADD PUSH32 0x4B49540000000000000000000000000000000000000000000000000000000000 DUP2 MSTORE POP DUP2 PUSH1 0x3 SWAP1 DUP2 PUSH3 0xB7 SWAP2 SWAP1 PUSH3 0x738 JUMP JUMPDEST POP DUP1 PUSH1 0x4 SWAP1 DUP2 PUSH3 0xC9 SWAP2 SWAP1 PUSH3 0x738 JUMP JUMPDEST POP POP POP PUSH1 0x0 DUP1 PUSH3 0xE0 DUP4 PUSH3 0x22E PUSH1 0x20 SHL PUSH1 0x20 SHR JUMP JUMPDEST SWAP2 POP SWAP2 POP DUP2 PUSH3 0xF2 JUMPI PUSH1 0x12 PUSH3 0xF4 JUMP JUMPDEST DUP1 JUMPDEST PUSH1 0xFF AND PUSH1 0xA0 DUP2 PUSH1 0xFF AND DUP2 MSTORE POP POP DUP3 PUSH20 0xFFFFFFFFFFFFFFFFFFFFFFFFFFFFFFFFFFFFFFFF AND PUSH1 0x80 DUP2 PUSH20 0xFFFFFFFFFFFFFFFFFFFFFFFFFFFFFFFFFFFFFFFF AND DUP2 MSTORE POP POP POP POP POP PUSH1 0x0 PUSH20 0xFFFFFFFFFFFFFFFFFFFFFFFFFFFFFFFFFFFFFFFF AND DUP2 PUSH20 0xFFFFFFFFFFFFFFFFFFFFFFFFFFFFFFFFFFFFFFFF AND SUB PUSH3 0x1AD JUMPI PUSH1 0x0 PUSH1 0x40 MLOAD PUSH32 0x1E4FBDF700000000000000000000000000000000000000000000000000000000 DUP2 MSTORE PUSH1 0x4 ADD PUSH3 0x1A4 SWAP2 SWAP1 PUSH3 0x830 JUMP JUMPDEST PUSH1 0x40 MLOAD DUP1 SWAP2 SUB SWAP1 REVERT JUMPDEST PUSH3 0x1BE DUP2 PUSH3 0x348 PUSH1 0x20 SHL PUSH1 0x20 SHR JUMP JUMPDEST POP DUP1 PUSH20 0xFFFFFFFFFFFFFFFFFFFFFFFFFFFFFFFFFFFFFFFF AND PUSH1 0xE0 DUP2 PUSH20 0xFFFFFFFFFFFFFFFFFFFFFFFFFFFFFFFFFFFFFFFF AND DUP2 MSTORE POP POP CALLER PUSH20 0xFFFFFFFFFFFFFFFFFFFFFFFFFFFFFFFFFFFFFFFF AND PUSH1 0xC0 DUP2 PUSH20 0xFFFFFFFFFFFFFFFFFFFFFFFFFFFFFFFFFFFFFFFF AND DUP2 MSTORE POP POP POP PUSH3 0x942 JUMP JUMPDEST PUSH1 0x0 DUP1 PUSH1 0x0 DUP1 DUP5 PUSH20 0xFFFFFFFFFFFFFFFFFFFFFFFFFFFFFFFFFFFFFFFF AND PUSH1 0x40 MLOAD PUSH1 0x24 ADD PUSH1 0x40 MLOAD PUSH1 0x20 DUP2 DUP4 SUB SUB DUP2 MSTORE SWAP1 PUSH1 0x40 MSTORE PUSH4 0x313CE567 PUSH1 0xE0 SHL PUSH1 0x20 DUP3 ADD DUP1 MLOAD PUSH28 0xFFFFFFFFFFFFFFFFFFFFFFFFFFFFFFFFFFFFFFFFFFFFFFFFFFFFFFFF DUP4 DUP2 DUP4 AND OR DUP4 MSTORE POP POP POP POP PUSH1 0x40 MLOAD PUSH3 0x2A5 SWAP2 SWAP1 PUSH3 0x8C6 JUMP JUMPDEST PUSH1 0x0 PUSH1 0x40 MLOAD DUP1 DUP4 SUB DUP2 DUP6 GAS STATICCALL SWAP2 POP POP RETURNDATASIZE DUP1 PUSH1 0x0 DUP2 EQ PUSH3 0x2E2 JUMPI PUSH1 0x40 MLOAD SWAP2 POP PUSH1 0x1F NOT PUSH1 0x3F RETURNDATASIZE ADD AND DUP3 ADD PUSH1 0x40 MSTORE RETURNDATASIZE DUP3 MSTORE RETURNDATASIZE PUSH1 0x0 PUSH1 0x20 DUP5 ADD RETURNDATACOPY PUSH3 0x2E7 JUMP JUMPDEST PUSH1 0x60 SWAP2 POP JUMPDEST POP SWAP2 POP SWAP2 POP DUP2 DUP1 ISZERO PUSH3 0x2FC JUMPI POP PUSH1 0x20 DUP2 MLOAD LT ISZERO JUMPDEST ISZERO PUSH3 0x339 JUMPI PUSH1 0x0 DUP2 DUP1 PUSH1 0x20 ADD SWAP1 MLOAD DUP2 ADD SWAP1 PUSH3 0x31A SWAP2 SWAP1 PUSH3 0x910 JUMP JUMPDEST SWAP1 POP PUSH1 0xFF DUP1 AND DUP2 GT PUSH3 0x337 JUMPI PUSH1 0x1 DUP2 SWAP5 POP SWAP5 POP POP POP POP PUSH3 0x343 JUMP JUMPDEST POP JUMPDEST PUSH1 0x0 DUP1 SWAP4 POP SWAP4 POP POP POP JUMPDEST SWAP2 POP SWAP2 JUMP JUMPDEST PUSH1 0x0 PUSH1 0x5 PUSH1 0x0 SWAP1 SLOAD SWAP1 PUSH2 0x100 EXP SWAP1 DIV PUSH20 0xFFFFFFFFFFFFFFFFFFFFFFFFFFFFFFFFFFFFFFFF AND SWAP1 POP DUP2 PUSH1 0x5 PUSH1 0x0 PUSH2 0x100 EXP DUP2 SLOAD DUP2 PUSH20 0xFFFFFFFFFFFFFFFFFFFFFFFFFFFFFFFFFFFFFFFF MUL NOT AND SWAP1 DUP4 PUSH20 0xFFFFFFFFFFFFFFFFFFFFFFFFFFFFFFFFFFFFFFFF AND MUL OR SWAP1 SSTORE POP DUP2 PUSH20 0xFFFFFFFFFFFFFFFFFFFFFFFFFFFFFFFFFFFFFFFF AND DUP2 PUSH20 0xFFFFFFFFFFFFFFFFFFFFFFFFFFFFFFFFFFFFFFFF AND PUSH32 0x8BE0079C531659141344CD1FD0A4F28419497F9722A3DAAFE3B4186F6B6457E0 PUSH1 0x40 MLOAD PUSH1 0x40 MLOAD DUP1 SWAP2 SUB SWAP1 LOG3 POP POP JUMP JUMPDEST PUSH1 0x0 DUP1 REVERT JUMPDEST PUSH1 0x0 PUSH20 0xFFFFFFFFFFFFFFFFFFFFFFFFFFFFFFFFFFFFFFFF DUP3 AND SWAP1 POP SWAP2 SWAP1 POP JUMP JUMPDEST PUSH1 0x0 PUSH3 0x440 DUP3 PUSH3 0x413 JUMP JUMPDEST SWAP1 POP SWAP2 SWAP1 POP JUMP JUMPDEST PUSH1 0x0 PUSH3 0x454 DUP3 PUSH3 0x433 JUMP JUMPDEST SWAP1 POP SWAP2 SWAP1 POP JUMP JUMPDEST PUSH3 0x466 DUP2 PUSH3 0x447 JUMP JUMPDEST DUP2 EQ PUSH3 0x472 JUMPI PUSH1 0x0 DUP1 REVERT JUMPDEST POP JUMP JUMPDEST PUSH1 0x0 DUP2 MLOAD SWAP1 POP PUSH3 0x486 DUP2 PUSH3 0x45B JUMP JUMPDEST SWAP3 SWAP2 POP POP JUMP JUMPDEST PUSH1 0x0 PUSH1 0x20 DUP3 DUP5 SUB SLT ISZERO PUSH3 0x4A5 JUMPI PUSH3 0x4A4 PUSH3 0x40E JUMP JUMPDEST JUMPDEST PUSH1 0x0 PUSH3 0x4B5 DUP5 DUP3 DUP6 ADD PUSH3 0x475 JUMP JUMPDEST SWAP2 POP POP SWAP3 SWAP2 POP POP JUMP JUMPDEST PUSH1 0x0 DUP2 MLOAD SWAP1 POP SWAP2 SWAP1 POP JUMP JUMPDEST PUSH32 0x4E487B7100000000000000000000000000000000000000000000000000000000 PUSH1 0x0 MSTORE PUSH1 0x41 PUSH1 0x4 MSTORE PUSH1 0x24 PUSH1 0x0 REVERT JUMPDEST PUSH32 0x4E487B7100000000000000000000000000000000000000000000000000000000 PUSH1 0x0 MSTORE PUSH1 0x22 PUSH1 0x4 MSTORE PUSH1 0x24 PUSH1 0x0 REVERT JUMPDEST PUSH1 0x0 PUSH1 0x2 DUP3 DIV SWAP1 POP PUSH1 0x1 DUP3 AND DUP1 PUSH3 0x540 JUMPI PUSH1 0x7F DUP3 AND SWAP2 POP JUMPDEST PUSH1 0x20 DUP3 LT DUP2 SUB PUSH3 0x556 JUMPI PUSH3 0x555 PUSH3 0x4F8 JUMP JUMPDEST JUMPDEST POP SWAP2 SWAP1 POP JUMP JUMPDEST PUSH1 0x0 DUP2 SWAP1 POP DUP2 PUSH1 0x0 MSTORE PUSH1 0x20 PUSH1 0x0 KECCAK256 SWAP1 POP SWAP2 SWAP1 POP JUMP JUMPDEST PUSH1 0x0 PUSH1 0x20 PUSH1 0x1F DUP4 ADD DIV SWAP1 POP SWAP2 SWAP1 POP JUMP JUMPDEST PUSH1 0x0 DUP3 DUP3 SHL SWAP1 POP SWAP3 SWAP2 POP POP JUMP JUMPDEST PUSH1 0x0 PUSH1 0x8 DUP4 MUL PUSH3 0x5C0 PUSH32 0xFFFFFFFFFFFFFFFFFFFFFFFFFFFFFFFFFFFFFFFFFFFFFFFFFFFFFFFFFFFFFFFF DUP3 PUSH3 0x581 JUMP JUMPDEST PUSH3 0x5CC DUP7 DUP4 PUSH3 0x581 JUMP JUMPDEST SWAP6 POP DUP1 NOT DUP5 AND SWAP4 POP DUP1 DUP7 AND DUP5 OR SWAP3 POP POP POP SWAP4 SWAP3 POP POP POP JUMP JUMPDEST PUSH1 0x0 DUP2 SWAP1 POP SWAP2 SWAP1 POP JUMP JUMPDEST PUSH1 0x0 DUP2 SWAP1 POP SWAP2 SWAP1 POP JUMP JUMPDEST PUSH1 0x0 PUSH3 0x619 PUSH3 0x613 PUSH3 0x60D DUP5 PUSH3 0x5E4 JUMP JUMPDEST PUSH3 0x5EE JUMP JUMPDEST PUSH3 0x5E4 JUMP JUMPDEST SWAP1 POP SWAP2 SWAP1 POP JUMP JUMPDEST PUSH1 0x0 DUP2 SWAP1 POP SWAP2 SWAP1 POP JUMP JUMPDEST PUSH3 0x635 DUP4 PUSH3 0x5F8 JUMP JUMPDEST PUSH3 0x64D PUSH3 0x644 DUP3 PUSH3 0x620 JUMP JUMPDEST DUP5 DUP5 SLOAD PUSH3 0x58E JUMP JUMPDEST DUP3 SSTORE POP POP POP POP JUMP JUMPDEST PUSH1 0x0 SWAP1 JUMP JUMPDEST PUSH3 0x664 PUSH3 0x655 JUMP JUMPDEST PUSH3 0x671 DUP2 DUP5 DUP5 PUSH3 0x62A JUMP JUMPDEST POP POP POP JUMP JUMPDEST JUMPDEST DUP2 DUP2 LT ISZERO PUSH3 0x699 JUMPI PUSH3 0x68D PUSH1 0x0 DUP3 PUSH3 0x65A JUMP JUMPDEST PUSH1 0x1 DUP2 ADD SWAP1 POP PUSH3 0x677 JUMP JUMPDEST POP POP JUMP JUMPDEST PUSH1 0x1F DUP3 GT ISZERO PUSH3 0x6E8 JUMPI PUSH3 0x6B2 DUP2 PUSH3 0x55C JUMP JUMPDEST PUSH3 0x6BD DUP5 PUSH3 0x571 JUMP JUMPDEST DUP2 ADD PUSH1 0x20 DUP6 LT ISZERO PUSH3 0x6CD JUMPI DUP2 SWAP1 POP JUMPDEST PUSH3 0x6E5 PUSH3 0x6DC DUP6 PUSH3 0x571 JUMP JUMPDEST DUP4 ADD DUP3 PUSH3 0x676 JUMP JUMPDEST POP POP JUMPDEST POP POP POP JUMP JUMPDEST PUSH1 0x0 DUP3 DUP3 SHR SWAP1 POP SWAP3 SWAP2 POP POP JUMP JUMPDEST PUSH1 0x0 PUSH3 0x70D PUSH1 0x0 NOT DUP5 PUSH1 0x8 MUL PUSH3 0x6ED JUMP JUMPDEST NOT DUP1 DUP4 AND SWAP2 POP POP SWAP3 SWAP2 POP POP JUMP JUMPDEST PUSH1 0x0 PUSH3 0x728 DUP4 DUP4 PUSH3 0x6FA JUMP JUMPDEST SWAP2 POP DUP3 PUSH1 0x2 MUL DUP3 OR SWAP1 POP SWAP3 SWAP2 POP POP JUMP JUMPDEST PUSH3 0x743 DUP3 PUSH3 0x4BE JUMP JUMPDEST PUSH8 0xFFFFFFFFFFFFFFFF DUP2 GT ISZERO PUSH3 0x75F JUMPI PUSH3 0x75E PUSH3 0x4C9 JUMP JUMPDEST JUMPDEST PUSH3 0x76B DUP3 SLOAD PUSH3 0x527 JUMP JUMPDEST PUSH3 0x778 DUP3 DUP3 DUP6 PUSH3 0x69D JUMP JUMPDEST PUSH1 0x0 PUSH1 0x20 SWAP1 POP PUSH1 0x1F DUP4 GT PUSH1 0x1 DUP2 EQ PUSH3 0x7B0 JUMPI PUSH1 0x0 DUP5 ISZERO PUSH3 0x79B JUMPI DUP3 DUP8 ADD MLOAD SWAP1 POP JUMPDEST PUSH3 0x7A7 DUP6 DUP3 PUSH3 0x71A JUMP JUMPDEST DUP7 SSTORE POP PUSH3 0x817 JUMP JUMPDEST PUSH1 0x1F NOT DUP5 AND PUSH3 0x7C0 DUP7 PUSH3 0x55C JUMP JUMPDEST PUSH1 0x0 JUMPDEST DUP3 DUP2 LT ISZERO PUSH3 0x7EA JUMPI DUP5 DUP10 ADD MLOAD DUP3 SSTORE PUSH1 0x1 DUP3 ADD SWAP2 POP PUSH1 0x20 DUP6 ADD SWAP5 POP PUSH1 0x20 DUP2 ADD SWAP1 POP PUSH3 0x7C3 JUMP JUMPDEST DUP7 DUP4 LT ISZERO PUSH3 0x80A JUMPI DUP5 DUP10 ADD MLOAD PUSH3 0x806 PUSH1 0x1F DUP10 AND DUP3 PUSH3 0x6FA JUMP JUMPDEST DUP4 SSTORE POP JUMPDEST PUSH1 0x1 PUSH1 0x2 DUP9 MUL ADD DUP9 SSTORE POP POP POP JUMPDEST POP POP POP POP POP POP JUMP JUMPDEST PUSH3 0x82A DUP2 PUSH3 0x433 JUMP JUMPDEST DUP3 MSTORE POP POP JUMP JUMPDEST PUSH1 0x0 PUSH1 0x20 DUP3 ADD SWAP1 POP PUSH3 0x847 PUSH1 0x0 DUP4 ADD DUP5 PUSH3 0x81F JUMP JUMPDEST SWAP3 SWAP2 POP POP JUMP JUMPDEST PUSH1 0x0 DUP2 MLOAD SWAP1 POP SWAP2 SWAP1 POP JUMP JUMPDEST PUSH1 0x0 DUP2 SWAP1 POP SWAP3 SWAP2 POP POP JUMP JUMPDEST PUSH1 0x0 JUMPDEST DUP4 DUP2 LT ISZERO PUSH3 0x883 JUMPI DUP1 DUP3 ADD MLOAD DUP2 DUP5 ADD MSTORE PUSH1 0x20 DUP2 ADD SWAP1 POP PUSH3 0x866 JUMP JUMPDEST PUSH1 0x0 DUP5 DUP5 ADD MSTORE POP POP POP POP JUMP JUMPDEST PUSH1 0x0 PUSH3 0x89C DUP3 PUSH3 0x84D JUMP JUMPDEST PUSH3 0x8A8 DUP2 DUP6 PUSH3 0x858 JUMP JUMPDEST SWAP4 POP PUSH3 0x8BA DUP2 DUP6 PUSH1 0x20 DUP7 ADD PUSH3 0x863 JUMP JUMPDEST DUP1 DUP5 ADD SWAP2 POP POP SWAP3 SWAP2 POP POP JUMP JUMPDEST PUSH1 0x0 PUSH3 0x8D4 DUP3 DUP5 PUSH3 0x88F JUMP JUMPDEST SWAP2 POP DUP2 SWAP1 POP SWAP3 SWAP2 POP POP JUMP JUMPDEST PUSH3 0x8EA DUP2 PUSH3 0x5E4 JUMP JUMPDEST DUP2 EQ PUSH3 0x8F6 JUMPI PUSH1 0x0 DUP1 REVERT JUMPDEST POP JUMP JUMPDEST PUSH1 0x0 DUP2 MLOAD SWAP1 POP PUSH3 0x90A DUP2 PUSH3 0x8DF JUMP JUMPDEST SWAP3 SWAP2 POP POP JUMP JUMPDEST PUSH1 0x0 PUSH1 0x20 DUP3 DUP5 SUB SLT ISZERO PUSH3 0x929 JUMPI PUSH3 0x928 PUSH3 0x40E JUMP JUMPDEST JUMPDEST PUSH1 0x0 PUSH3 0x939 DUP5 DUP3 DUP6 ADD PUSH3 0x8F9 JUMP JUMPDEST SWAP2 POP POP SWAP3 SWAP2 POP POP JUMP JUMPDEST PUSH1 0x80 MLOAD PUSH1 0xA0 MLOAD PUSH1 0xC0 MLOAD PUSH1 0xE0 MLOAD PUSH2 0x33DB PUSH3 0x98E PUSH1 0x0 CODECOPY PUSH1 0x0 POP POP PUSH1 0x0 PUSH2 0xF54 ADD MSTORE PUSH1 0x0 PUSH2 0xC53 ADD MSTORE PUSH1 0x0 DUP2 DUP2 PUSH2 0x7D4 ADD MSTORE DUP2 DUP2 PUSH2 0xC85 ADD MSTORE DUP2 DUP2 PUSH2 0x18F2 ADD MSTORE PUSH2 0x19A2 ADD MSTORE PUSH2 0x33DB PUSH1 0x0 RETURN INVALID PUSH1 0x80 PUSH1 0x40 MSTORE CALLVALUE DUP1 ISZERO PUSH2 0x10 JUMPI PUSH1 0x0 DUP1 REVERT JUMPDEST POP PUSH1 0x4 CALLDATASIZE LT PUSH2 0x21C JUMPI PUSH1 0x0 CALLDATALOAD PUSH1 0xE0 SHR DUP1 PUSH4 0x8DA5CB5B GT PUSH2 0x125 JUMPI DUP1 PUSH4 0xC63D75B6 GT PUSH2 0xAD JUMPI DUP1 PUSH4 0xD905777E GT PUSH2 0x7C JUMPI DUP1 PUSH4 0xD905777E EQ PUSH2 0x706 JUMPI DUP1 PUSH4 0xDD62ED3E EQ PUSH2 0x736 JUMPI DUP1 PUSH4 0xDE9F1BE3 EQ PUSH2 0x766 JUMPI DUP1 PUSH4 0xEF8B30F7 EQ PUSH2 0x784 JUMPI DUP1 PUSH4 0xF2FDE38B EQ PUSH2 0x7B4 JUMPI PUSH2 0x21C JUMP JUMPDEST DUP1 PUSH4 0xC63D75B6 EQ PUSH2 0x645 JUMPI DUP1 PUSH4 0xC6E6F592 EQ PUSH2 0x675 JUMPI DUP1 PUSH4 0xC9F7927A EQ PUSH2 0x6A5 JUMPI DUP1 PUSH4 0xCE96CB77 EQ PUSH2 0x6D6 JUMPI PUSH2 0x21C JUMP JUMPDEST DUP1 PUSH4 0xA9059CBB GT PUSH2 0xF4 JUMPI DUP1 PUSH4 0xA9059CBB EQ PUSH2 0x567 JUMPI DUP1 PUSH4 0xB2BDFA7B EQ PUSH2 0x597 JUMPI DUP1 PUSH4 0xB3D7F6B9 EQ PUSH2 0x5B5 JUMPI DUP1 PUSH4 0xB460AF94 EQ PUSH2 0x5E5 JUMPI DUP1 PUSH4 0xBA087652 EQ PUSH2 0x615 JUMPI PUSH2 0x21C JUMP JUMPDEST DUP1 PUSH4 0x8DA5CB5B EQ PUSH2 0x4CB JUMPI DUP1 PUSH4 0x94BF804D EQ PUSH2 0x4E9 JUMPI DUP1 PUSH4 0x95D89B41 EQ PUSH2 0x519 JUMPI DUP1 PUSH4 0x96212916 EQ PUSH2 0x537 JUMPI PUSH2 0x21C JUMP JUMPDEST DUP1 PUSH4 0x313CE567 GT PUSH2 0x1A8 JUMPI DUP1 PUSH4 0x479C9254 GT PUSH2 0x177 JUMPI DUP1 PUSH4 0x479C9254 EQ PUSH2 0x413 JUMPI DUP1 PUSH4 0x4CDAD506 EQ PUSH2 0x431 JUMPI DUP1 PUSH4 0x6E553F65 EQ PUSH2 0x461 JUMPI DUP1 PUSH4 0x70A08231 EQ PUSH2 0x491 JUMPI DUP1 PUSH4 0x715018A6 EQ PUSH2 0x4C1 JUMPI PUSH2 0x21C JUMP JUMPDEST DUP1 PUSH4 0x313CE567 EQ PUSH2 0x389 JUMPI DUP1 PUSH4 0x38D52E0F EQ PUSH2 0x3A7 JUMPI DUP1 PUSH4 0x3CCFD60B EQ PUSH2 0x3C5 JUMPI DUP1 PUSH4 0x402D267D EQ PUSH2 0x3E3 JUMPI PUSH2 0x21C JUMP JUMPDEST DUP1 PUSH4 0xA28A477 GT PUSH2 0x1EF JUMPI DUP1 PUSH4 0xA28A477 EQ PUSH2 0x2BD JUMPI DUP1 PUSH4 0x18160DDD EQ PUSH2 0x2ED JUMPI DUP1 PUSH4 0x23B872DD EQ PUSH2 0x30B JUMPI DUP1 PUSH4 0x27853EA9 EQ PUSH2 0x33B JUMPI DUP1 PUSH4 0x2A7BEACC EQ PUSH2 0x357 JUMPI PUSH2 0x21C JUMP JUMPDEST DUP1 PUSH4 0x1E1D114 EQ PUSH2 0x221 JUMPI DUP1 PUSH4 0x6FDDE03 EQ PUSH2 0x23F JUMPI DUP1 PUSH4 0x7A2D13A EQ PUSH2 0x25D JUMPI DUP1 PUSH4 0x95EA7B3 EQ PUSH2 0x28D JUMPI JUMPDEST PUSH1 0x0 DUP1 REVERT JUMPDEST PUSH2 0x229 PUSH2 0x7D0 JUMP JUMPDEST PUSH1 0x40 MLOAD PUSH2 0x236 SWAP2 SWAP1 PUSH2 0x2649 JUMP JUMPDEST PUSH1 0x40 MLOAD DUP1 SWAP2 SUB SWAP1 RETURN JUMPDEST PUSH2 0x247 PUSH2 0x871 JUMP JUMPDEST PUSH1 0x40 MLOAD PUSH2 0x254 SWAP2 SWAP1 PUSH2 0x26F4 JUMP JUMPDEST PUSH1 0x40 MLOAD DUP1 SWAP2 SUB SWAP1 RETURN JUMPDEST PUSH2 0x277 PUSH1 0x4 DUP1 CALLDATASIZE SUB DUP2 ADD SWAP1 PUSH2 0x272 SWAP2 SWAP1 PUSH2 0x2747 JUMP JUMPDEST PUSH2 0x903 JUMP JUMPDEST PUSH1 0x40 MLOAD PUSH2 0x284 SWAP2 SWAP1 PUSH2 0x2649 JUMP JUMPDEST PUSH1 0x40 MLOAD DUP1 SWAP2 SUB SWAP1 RETURN JUMPDEST PUSH2 0x2A7 PUSH1 0x4 DUP1 CALLDATASIZE SUB DUP2 ADD SWAP1 PUSH2 0x2A2 SWAP2 SWAP1 PUSH2 0x27D2 JUMP JUMPDEST PUSH2 0x917 JUMP JUMPDEST PUSH1 0x40 MLOAD PUSH2 0x2B4 SWAP2 SWAP1 PUSH2 0x282D JUMP JUMPDEST PUSH1 0x40 MLOAD DUP1 SWAP2 SUB SWAP1 RETURN JUMPDEST PUSH2 0x2D7 PUSH1 0x4 DUP1 CALLDATASIZE SUB DUP2 ADD SWAP1 PUSH2 0x2D2 SWAP2 SWAP1 PUSH2 0x2747 JUMP JUMPDEST PUSH2 0x93A JUMP JUMPDEST PUSH1 0x40 MLOAD PUSH2 0x2E4 SWAP2 SWAP1 PUSH2 0x2649 JUMP JUMPDEST PUSH1 0x40 MLOAD DUP1 SWAP2 SUB SWAP1 RETURN JUMPDEST PUSH2 0x2F5 PUSH2 0x94E JUMP JUMPDEST PUSH1 0x40 MLOAD PUSH2 0x302 SWAP2 SWAP1 PUSH2 0x2649 JUMP JUMPDEST PUSH1 0x40 MLOAD DUP1 SWAP2 SUB SWAP1 RETURN JUMPDEST PUSH2 0x325 PUSH1 0x4 DUP1 CALLDATASIZE SUB DUP2 ADD SWAP1 PUSH2 0x320 SWAP2 SWAP1 PUSH2 0x2848 JUMP JUMPDEST PUSH2 0x958 JUMP JUMPDEST PUSH1 0x40 MLOAD PUSH2 0x332 SWAP2 SWAP1 PUSH2 0x282D JUMP JUMPDEST PUSH1 0x40 MLOAD DUP1 SWAP2 SUB SWAP1 RETURN JUMPDEST PUSH2 0x355 PUSH1 0x4 DUP1 CALLDATASIZE SUB DUP2 ADD SWAP1 PUSH2 0x350 SWAP2 SWAP1 PUSH2 0x289B JUMP JUMPDEST PUSH2 0x987 JUMP JUMPDEST STOP JUMPDEST PUSH2 0x371 PUSH1 0x4 DUP1 CALLDATASIZE SUB DUP2 ADD SWAP1 PUSH2 0x36C SWAP2 SWAP1 PUSH2 0x2928 JUMP JUMPDEST PUSH2 0xC03 JUMP JUMPDEST PUSH1 0x40 MLOAD PUSH2 0x380 SWAP4 SWAP3 SWAP2 SWAP1 PUSH2 0x2968 JUMP JUMPDEST PUSH1 0x40 MLOAD DUP1 SWAP2 SUB SWAP1 RETURN JUMPDEST PUSH2 0x391 PUSH2 0xC47 JUMP JUMPDEST PUSH1 0x40 MLOAD PUSH2 0x39E SWAP2 SWAP1 PUSH2 0x29BB JUMP JUMPDEST PUSH1 0x40 MLOAD DUP1 SWAP2 SUB SWAP1 RETURN JUMPDEST PUSH2 0x3AF PUSH2 0xC81 JUMP JUMPDEST PUSH1 0x40 MLOAD PUSH2 0x3BC SWAP2 SWAP1 PUSH2 0x29E5 JUMP JUMPDEST PUSH1 0x40 MLOAD DUP1 SWAP2 SUB SWAP1 RETURN JUMPDEST PUSH2 0x3CD PUSH2 0xCA9 JUMP JUMPDEST PUSH1 0x40 MLOAD PUSH2 0x3DA SWAP2 SWAP1 PUSH2 0x2649 JUMP JUMPDEST PUSH1 0x40 MLOAD DUP1 SWAP2 SUB SWAP1 RETURN JUMPDEST PUSH2 0x3FD PUSH1 0x4 DUP1 CALLDATASIZE SUB DUP2 ADD SWAP1 PUSH2 0x3F8 SWAP2 SWAP1 PUSH2 0x2A00 JUMP JUMPDEST PUSH2 0xCE0 JUMP JUMPDEST PUSH1 0x40 MLOAD PUSH2 0x40A SWAP2 SWAP1 PUSH2 0x2649 JUMP JUMPDEST PUSH1 0x40 MLOAD DUP1 SWAP2 SUB SWAP1 RETURN JUMPDEST PUSH2 0x41B PUSH2 0xD0A JUMP JUMPDEST PUSH1 0x40 MLOAD PUSH2 0x428 SWAP2 SWAP1 PUSH2 0x2649 JUMP JUMPDEST PUSH1 0x40 MLOAD DUP1 SWAP2 SUB SWAP1 RETURN JUMPDEST PUSH2 0x44B PUSH1 0x4 DUP1 CALLDATASIZE SUB DUP2 ADD SWAP1 PUSH2 0x446 SWAP2 SWAP1 PUSH2 0x2747 JUMP JUMPDEST PUSH2 0xD1A JUMP JUMPDEST PUSH1 0x40 MLOAD PUSH2 0x458 SWAP2 SWAP1 PUSH2 0x2649 JUMP JUMPDEST PUSH1 0x40 MLOAD DUP1 SWAP2 SUB SWAP1 RETURN JUMPDEST PUSH2 0x47B PUSH1 0x4 DUP1 CALLDATASIZE SUB DUP2 ADD SWAP1 PUSH2 0x476 SWAP2 SWAP1 PUSH2 0x2A2D JUMP JUMPDEST PUSH2 0xD2E JUMP JUMPDEST PUSH1 0x40 MLOAD PUSH2 0x488 SWAP2 SWAP1 PUSH2 0x2649 JUMP JUMPDEST PUSH1 0x40 MLOAD DUP1 SWAP2 SUB SWAP1 RETURN JUMPDEST PUSH2 0x4AB PUSH1 0x4 DUP1 CALLDATASIZE SUB DUP2 ADD SWAP1 PUSH2 0x4A6 SWAP2 SWAP1 PUSH2 0x2A00 JUMP JUMPDEST PUSH2 0xD56 JUMP JUMPDEST PUSH1 0x40 MLOAD PUSH2 0x4B8 SWAP2 SWAP1 PUSH2 0x2649 JUMP JUMPDEST PUSH1 0x40 MLOAD DUP1 SWAP2 SUB SWAP1 RETURN JUMPDEST PUSH2 0x4C9 PUSH2 0xD9E JUMP JUMPDEST STOP JUMPDEST PUSH2 0x4D3 PUSH2 0xDB2 JUMP JUMPDEST PUSH1 0x40 MLOAD PUSH2 0x4E0 SWAP2 SWAP1 PUSH2 0x29E5 JUMP JUMPDEST PUSH1 0x40 MLOAD DUP1 SWAP2 SUB SWAP1 RETURN JUMPDEST PUSH2 0x503 PUSH1 0x4 DUP1 CALLDATASIZE SUB DUP2 ADD SWAP1 PUSH2 0x4FE SWAP2 SWAP1 PUSH2 0x2A2D JUMP JUMPDEST PUSH2 0xDDC JUMP JUMPDEST PUSH1 0x40 MLOAD PUSH2 0x510 SWAP2 SWAP1 PUSH2 0x2649 JUMP JUMPDEST PUSH1 0x40 MLOAD DUP1 SWAP2 SUB SWAP1 RETURN JUMPDEST PUSH2 0x521 PUSH2 0xE5E JUMP JUMPDEST PUSH1 0x40 MLOAD PUSH2 0x52E SWAP2 SWAP1 PUSH2 0x26F4 JUMP JUMPDEST PUSH1 0x40 MLOAD DUP1 SWAP2 SUB SWAP1 RETURN JUMPDEST PUSH2 0x551 PUSH1 0x4 DUP1 CALLDATASIZE SUB DUP2 ADD SWAP1 PUSH2 0x54C SWAP2 SWAP1 PUSH2 0x2747 JUMP JUMPDEST PUSH2 0xEF0 JUMP JUMPDEST PUSH1 0x40 MLOAD PUSH2 0x55E SWAP2 SWAP1 PUSH2 0x29E5 JUMP JUMPDEST PUSH1 0x40 MLOAD DUP1 SWAP2 SUB SWAP1 RETURN JUMPDEST PUSH2 0x581 PUSH1 0x4 DUP1 CALLDATASIZE SUB DUP2 ADD SWAP1 PUSH2 0x57C SWAP2 SWAP1 PUSH2 0x27D2 JUMP JUMPDEST PUSH2 0xF2F JUMP JUMPDEST PUSH1 0x40 MLOAD PUSH2 0x58E SWAP2 SWAP1 PUSH2 0x282D JUMP JUMPDEST PUSH1 0x40 MLOAD DUP1 SWAP2 SUB SWAP1 RETURN JUMPDEST PUSH2 0x59F PUSH2 0xF52 JUMP JUMPDEST PUSH1 0x40 MLOAD PUSH2 0x5AC SWAP2 SWAP1 PUSH2 0x29E5 JUMP JUMPDEST PUSH1 0x40 MLOAD DUP1 SWAP2 SUB SWAP1 RETURN JUMPDEST PUSH2 0x5CF PUSH1 0x4 DUP1 CALLDATASIZE SUB DUP2 ADD SWAP1 PUSH2 0x5CA SWAP2 SWAP1 PUSH2 0x2747 JUMP JUMPDEST PUSH2 0xF76 JUMP JUMPDEST PUSH1 0x40 MLOAD PUSH2 0x5DC SWAP2 SWAP1 PUSH2 0x2649 JUMP JUMPDEST PUSH1 0x40 MLOAD DUP1 SWAP2 SUB SWAP1 RETURN JUMPDEST PUSH2 0x5FF PUSH1 0x4 DUP1 CALLDATASIZE SUB DUP2 ADD SWAP1 PUSH2 0x5FA SWAP2 SWAP1 PUSH2 0x2A6D JUMP JUMPDEST PUSH2 0xF8A JUMP JUMPDEST PUSH1 0x40 MLOAD PUSH2 0x60C SWAP2 SWAP1 PUSH2 0x2649 JUMP JUMPDEST PUSH1 0x40 MLOAD DUP1 SWAP2 SUB SWAP1 RETURN JUMPDEST PUSH2 0x62F PUSH1 0x4 DUP1 CALLDATASIZE SUB DUP2 ADD SWAP1 PUSH2 0x62A SWAP2 SWAP1 PUSH2 0x2A6D JUMP JUMPDEST PUSH2 0x100E JUMP JUMPDEST PUSH1 0x40 MLOAD PUSH2 0x63C SWAP2 SWAP1 PUSH2 0x2649 JUMP JUMPDEST PUSH1 0x40 MLOAD DUP1 SWAP2 SUB SWAP1 RETURN JUMPDEST PUSH2 0x65F PUSH1 0x4 DUP1 CALLDATASIZE SUB DUP2 ADD SWAP1 PUSH2 0x65A SWAP2 SWAP1 PUSH2 0x2A00 JUMP JUMPDEST PUSH2 0x1092 JUMP JUMPDEST PUSH1 0x40 MLOAD PUSH2 0x66C SWAP2 SWAP1 PUSH2 0x2649 JUMP JUMPDEST PUSH1 0x40 MLOAD DUP1 SWAP2 SUB SWAP1 RETURN JUMPDEST PUSH2 0x68F PUSH1 0x4 DUP1 CALLDATASIZE SUB DUP2 ADD SWAP1 PUSH2 0x68A SWAP2 SWAP1 PUSH2 0x2747 JUMP JUMPDEST PUSH2 0x10BC JUMP JUMPDEST PUSH1 0x40 MLOAD PUSH2 0x69C SWAP2 SWAP1 PUSH2 0x2649 JUMP JUMPDEST PUSH1 0x40 MLOAD DUP1 SWAP2 SUB SWAP1 RETURN JUMPDEST PUSH2 0x6BF PUSH1 0x4 DUP1 CALLDATASIZE SUB DUP2 ADD SWAP1 PUSH2 0x6BA SWAP2 SWAP1 PUSH2 0x2928 JUMP JUMPDEST PUSH2 0x10D0 JUMP JUMPDEST PUSH1 0x40 MLOAD PUSH2 0x6CD SWAP3 SWAP2 SWAP1 PUSH2 0x2B7E JUMP JUMPDEST PUSH1 0x40 MLOAD DUP1 SWAP2 SUB SWAP1 RETURN JUMPDEST PUSH2 0x6F0 PUSH1 0x4 DUP1 CALLDATASIZE SUB DUP2 ADD SWAP1 PUSH2 0x6EB SWAP2 SWAP1 PUSH2 0x2A00 JUMP JUMPDEST PUSH2 0x1110 JUMP JUMPDEST PUSH1 0x40 MLOAD PUSH2 0x6FD SWAP2 SWAP1 PUSH2 0x2649 JUMP JUMPDEST PUSH1 0x40 MLOAD DUP1 SWAP2 SUB SWAP1 RETURN JUMPDEST PUSH2 0x720 PUSH1 0x4 DUP1 CALLDATASIZE SUB DUP2 ADD SWAP1 PUSH2 0x71B SWAP2 SWAP1 PUSH2 0x2A00 JUMP JUMPDEST PUSH2 0x112C JUMP JUMPDEST PUSH1 0x40 MLOAD PUSH2 0x72D SWAP2 SWAP1 PUSH2 0x2649 JUMP JUMPDEST PUSH1 0x40 MLOAD DUP1 SWAP2 SUB SWAP1 RETURN JUMPDEST PUSH2 0x750 PUSH1 0x4 DUP1 CALLDATASIZE SUB DUP2 ADD SWAP1 PUSH2 0x74B SWAP2 SWAP1 PUSH2 0x2BB5 JUMP JUMPDEST PUSH2 0x113E JUMP JUMPDEST PUSH1 0x40 MLOAD PUSH2 0x75D SWAP2 SWAP1 PUSH2 0x2649 JUMP JUMPDEST PUSH1 0x40 MLOAD DUP1 SWAP2 SUB SWAP1 RETURN JUMPDEST PUSH2 0x76E PUSH2 0x11C5 JUMP JUMPDEST PUSH1 0x40 MLOAD PUSH2 0x77B SWAP2 SWAP1 PUSH2 0x2649 JUMP JUMPDEST PUSH1 0x40 MLOAD DUP1 SWAP2 SUB SWAP1 RETURN JUMPDEST PUSH2 0x79E PUSH1 0x4 DUP1 CALLDATASIZE SUB DUP2 ADD SWAP1 PUSH2 0x799 SWAP2 SWAP1 PUSH2 0x2747 JUMP JUMPDEST PUSH2 0x11CB JUMP JUMPDEST PUSH1 0x40 MLOAD PUSH2 0x7AB SWAP2 SWAP1 PUSH2 0x2649 JUMP JUMPDEST PUSH1 0x40 MLOAD DUP1 SWAP2 SUB SWAP1 RETURN JUMPDEST PUSH2 0x7CE PUSH1 0x4 DUP1 CALLDATASIZE SUB DUP2 ADD SWAP1 PUSH2 0x7C9 SWAP2 SWAP1 PUSH2 0x2A00 JUMP JUMPDEST PUSH2 0x11DF JUMP JUMPDEST STOP JUMPDEST PUSH1 0x0 PUSH32 0x0 PUSH20 0xFFFFFFFFFFFFFFFFFFFFFFFFFFFFFFFFFFFFFFFF AND PUSH4 0x70A08231 ADDRESS PUSH1 0x40 MLOAD DUP3 PUSH4 0xFFFFFFFF AND PUSH1 0xE0 SHL DUP2 MSTORE PUSH1 0x4 ADD PUSH2 0x82B SWAP2 SWAP1 PUSH2 0x29E5 JUMP JUMPDEST PUSH1 0x20 PUSH1 0x40 MLOAD DUP1 DUP4 SUB DUP2 DUP7 GAS STATICCALL ISZERO DUP1 ISZERO PUSH2 0x848 JUMPI RETURNDATASIZE PUSH1 0x0 DUP1 RETURNDATACOPY RETURNDATASIZE PUSH1 0x0 REVERT JUMPDEST POP POP POP POP PUSH1 0x40 MLOAD RETURNDATASIZE PUSH1 0x1F NOT PUSH1 0x1F DUP3 ADD AND DUP3 ADD DUP1 PUSH1 0x40 MSTORE POP DUP2 ADD SWAP1 PUSH2 0x86C SWAP2 SWAP1 PUSH2 0x2C0A JUMP JUMPDEST SWAP1 POP SWAP1 JUMP JUMPDEST PUSH1 0x60 PUSH1 0x3 DUP1 SLOAD PUSH2 0x880 SWAP1 PUSH2 0x2C66 JUMP JUMPDEST DUP1 PUSH1 0x1F ADD PUSH1 0x20 DUP1 SWAP2 DIV MUL PUSH1 0x20 ADD PUSH1 0x40 MLOAD SWAP1 DUP2 ADD PUSH1 0x40 MSTORE DUP1 SWAP3 SWAP2 SWAP1 DUP2 DUP2 MSTORE PUSH1 0x20 ADD DUP3 DUP1 SLOAD PUSH2 0x8AC SWAP1 PUSH2 0x2C66 JUMP JUMPDEST DUP1 ISZERO PUSH2 0x8F9 JUMPI DUP1 PUSH1 0x1F LT PUSH2 0x8CE JUMPI PUSH2 0x100 DUP1 DUP4 SLOAD DIV MUL DUP4 MSTORE SWAP2 PUSH1 0x20 ADD SWAP2 PUSH2 0x8F9 JUMP JUMPDEST DUP3 ADD SWAP2 SWAP1 PUSH1 0x0 MSTORE PUSH1 0x20 PUSH1 0x0 KECCAK256 SWAP1 JUMPDEST DUP2 SLOAD DUP2 MSTORE SWAP1 PUSH1 0x1 ADD SWAP1 PUSH1 0x20 ADD DUP1 DUP4 GT PUSH2 0x8DC JUMPI DUP3 SWAP1 SUB PUSH1 0x1F AND DUP3 ADD SWAP2 JUMPDEST POP POP POP POP POP SWAP1 POP SWAP1 JUMP JUMPDEST PUSH1 0x0 PUSH2 0x910 DUP3 PUSH1 0x0 PUSH2 0x1265 JUMP JUMPDEST SWAP1 POP SWAP2 SWAP1 POP JUMP JUMPDEST PUSH1 0x0 DUP1 PUSH2 0x922 PUSH2 0x12BE JUMP JUMPDEST SWAP1 POP PUSH2 0x92F DUP2 DUP6 DUP6 PUSH2 0x12C6 JUMP JUMPDEST PUSH1 0x1 SWAP2 POP POP SWAP3 SWAP2 POP POP JUMP JUMPDEST PUSH1 0x0 PUSH2 0x947 DUP3 PUSH1 0x1 PUSH2 0x12D8 JUMP JUMPDEST SWAP1 POP SWAP2 SWAP1 POP JUMP JUMPDEST PUSH1 0x0 PUSH1 0x2 SLOAD SWAP1 POP SWAP1 JUMP JUMPDEST PUSH1 0x0 DUP1 PUSH2 0x963 PUSH2 0x12BE JUMP JUMPDEST SWAP1 POP PUSH2 0x970 DUP6 DUP3 DUP6 PUSH2 0x1331 JUMP JUMPDEST PUSH2 0x97B DUP6 DUP6 DUP6 PUSH2 0x13C5 JUMP JUMPDEST PUSH1 0x1 SWAP2 POP POP SWAP4 SWAP3 POP POP POP JUMP JUMPDEST PUSH2 0x98F PUSH2 0x14B9 JUMP JUMPDEST PUSH1 0x0 PUSH1 0x8 PUSH1 0x0 DUP9 DUP2 MSTORE PUSH1 0x20 ADD SWAP1 DUP2 MSTORE PUSH1 0x20 ADD PUSH1 0x0 KECCAK256 PUSH1 0x0 DUP8 DUP2 MSTORE PUSH1 0x20 ADD SWAP1 DUP2 MSTORE PUSH1 0x20 ADD PUSH1 0x0 KECCAK256 SWAP1 POP PUSH1 0x0 TIMESTAMP SWAP1 POP PUSH1 0x0 DUP3 PUSH1 0x0 ADD SLOAD SUB PUSH2 0x9E8 JUMPI PUSH2 0x9E7 DUP3 DUP3 DUP9 DUP9 PUSH1 0x2 DUP2 GT ISZERO PUSH2 0x9E1 JUMPI PUSH2 0x9E0 PUSH2 0x2C97 JUMP JUMPDEST JUMPDEST DUP9 PUSH2 0x1540 JUMP JUMPDEST JUMPDEST PUSH1 0x0 DUP1 PUSH2 0x9F4 DUP5 PUSH2 0x169F JUMP JUMPDEST SWAP2 POP SWAP2 POP PUSH1 0x0 DUP3 MLOAD GT PUSH2 0xA3C JUMPI PUSH1 0x40 MLOAD PUSH32 0x8C379A000000000000000000000000000000000000000000000000000000000 DUP2 MSTORE PUSH1 0x4 ADD PUSH2 0xA33 SWAP1 PUSH2 0x2D12 JUMP JUMPDEST PUSH1 0x40 MLOAD DUP1 SWAP2 SUB SWAP1 REVERT JUMPDEST PUSH1 0x0 DUP3 PUSH1 0x0 DUP2 MLOAD DUP2 LT PUSH2 0xA52 JUMPI PUSH2 0xA51 PUSH2 0x2D32 JUMP JUMPDEST JUMPDEST PUSH1 0x20 MUL PUSH1 0x20 ADD ADD MLOAD SWAP1 POP PUSH1 0x0 DUP3 PUSH1 0x0 DUP2 MLOAD DUP2 LT PUSH2 0xA72 JUMPI PUSH2 0xA71 PUSH2 0x2D32 JUMP JUMPDEST JUMPDEST PUSH1 0x20 MUL PUSH1 0x20 ADD ADD MLOAD SWAP1 POP DUP2 DUP8 LT ISZERO PUSH2 0xABF JUMPI PUSH1 0x40 MLOAD PUSH32 0x8C379A000000000000000000000000000000000000000000000000000000000 DUP2 MSTORE PUSH1 0x4 ADD PUSH2 0xAB6 SWAP1 PUSH2 0x2DD3 JUMP JUMPDEST PUSH1 0x40 MLOAD DUP1 SWAP2 SUB SWAP1 REVERT JUMPDEST DUP1 DUP6 LT ISZERO PUSH2 0xB02 JUMPI PUSH1 0x40 MLOAD PUSH32 0x8C379A000000000000000000000000000000000000000000000000000000000 DUP2 MSTORE PUSH1 0x4 ADD PUSH2 0xAF9 SWAP1 PUSH2 0x2E3F JUMP JUMPDEST PUSH1 0x40 MLOAD DUP1 SWAP2 SUB SWAP1 REVERT JUMPDEST PUSH1 0x0 JUMPDEST DUP7 PUSH1 0x2 ADD DUP1 SLOAD SWAP1 POP DUP2 LT ISZERO PUSH2 0xBAF JUMPI DUP2 DUP8 PUSH1 0x2 ADD DUP3 DUP2 SLOAD DUP2 LT PUSH2 0xB2B JUMPI PUSH2 0xB2A PUSH2 0x2D32 JUMP JUMPDEST JUMPDEST SWAP1 PUSH1 0x0 MSTORE PUSH1 0x20 PUSH1 0x0 KECCAK256 ADD SLOAD SUB PUSH2 0xB9C JUMPI PUSH1 0x1 DUP8 PUSH1 0x4 ADD DUP3 DUP2 SLOAD DUP2 LT PUSH2 0xB53 JUMPI PUSH2 0xB52 PUSH2 0x2D32 JUMP JUMPDEST JUMPDEST SWAP1 PUSH1 0x0 MSTORE PUSH1 0x20 PUSH1 0x0 KECCAK256 SWAP1 PUSH1 0x20 SWAP2 DUP3 DUP3 DIV ADD SWAP2 SWAP1 MOD PUSH2 0x100 EXP DUP2 SLOAD DUP2 PUSH1 0xFF MUL NOT AND SWAP1 DUP4 ISZERO ISZERO MUL OR SWAP1 SSTORE POP DUP3 DUP8 PUSH1 0x1 ADD PUSH1 0x0 DUP3 DUP3 SLOAD PUSH2 0xB90 SWAP2 SWAP1 PUSH2 0x2E8E JUMP JUMPDEST SWAP3 POP POP DUP2 SWAP1 SSTORE POP PUSH2 0xBAF JUMP JUMPDEST DUP1 DUP1 PUSH2 0xBA7 SWAP1 PUSH2 0x2EC2 JUMP JUMPDEST SWAP2 POP POP PUSH2 0xB05 JUMP JUMPDEST POP PUSH32 0xDEBFA329389A6F20D44C8AE61763BA5F5DDFE7F867D953DBCD740A80568FCBD2 DUP13 DUP13 DUP9 PUSH1 0x0 ADD SLOAD DUP10 PUSH1 0x1 ADD SLOAD PUSH1 0x40 MLOAD PUSH2 0xBED SWAP5 SWAP4 SWAP3 SWAP2 SWAP1 PUSH2 0x2F0A JUMP JUMPDEST PUSH1 0x40 MLOAD DUP1 SWAP2 SUB SWAP1 LOG1 POP POP POP POP POP POP POP POP POP POP POP POP JUMP JUMPDEST PUSH1 0x8 PUSH1 0x20 MSTORE DUP2 PUSH1 0x0 MSTORE PUSH1 0x40 PUSH1 0x0 KECCAK256 PUSH1 0x20 MSTORE DUP1 PUSH1 0x0 MSTORE PUSH1 0x40 PUSH1 0x0 KECCAK256 PUSH1 0x0 SWAP2 POP SWAP2 POP POP DUP1 PUSH1 0x0 ADD SLOAD SWAP1 DUP1 PUSH1 0x1 ADD SLOAD SWAP1 DUP1 PUSH1 0x5 ADD PUSH1 0x0 SWAP1 SLOAD SWAP1 PUSH2 0x100 EXP SWAP1 DIV PUSH1 0xFF AND SWAP1 POP DUP4 JUMP JUMPDEST PUSH1 0x0 PUSH2 0xC51 PUSH2 0x189F JUMP JUMPDEST PUSH32 0x0 PUSH2 0xC7C SWAP2 SWAP1 PUSH2 0x2F4F JUMP JUMPDEST SWAP1 POP SWAP1 JUMP JUMPDEST PUSH1 0x0 PUSH32 0x0 SWAP1 POP SWAP1 JUMP JUMPDEST PUSH1 0x0 DUP1 PUSH2 0xCB5 CALLER PUSH2 0x1110 JUMP JUMPDEST SWAP1 POP PUSH1 0x0 PUSH2 0xCC2 DUP3 PUSH2 0x93A JUMP JUMPDEST SWAP1 POP PUSH2 0xCD8 PUSH2 0xCCF PUSH2 0x12BE JUMP JUMPDEST CALLER CALLER DUP6 DUP6 PUSH2 0x18A4 JUMP JUMPDEST DUP1 SWAP3 POP POP POP SWAP1 JUMP JUMPDEST PUSH1 0x0 PUSH32 0xFFFFFFFFFFFFFFFFFFFFFFFFFFFFFFFFFFFFFFFFFFFFFFFFFFFFFFFFFFFFFFFF SWAP1 POP SWAP2 SWAP1 POP JUMP JUMPDEST PUSH1 0x0 PUSH2 0xD15 CALLER PUSH2 0xCE0 JUMP JUMPDEST SWAP1 POP SWAP1 JUMP JUMPDEST PUSH1 0x0 PUSH2 0xD27 DUP3 PUSH1 0x0 PUSH2 0x1265 JUMP JUMPDEST SWAP1 POP SWAP2 SWAP1 POP JUMP JUMPDEST PUSH1 0x0 DUP1 PUSH2 0xD3A DUP5 PUSH2 0x11CB JUMP JUMPDEST SWAP1 POP PUSH2 0xD4F PUSH2 0xD47 PUSH2 0x12BE JUMP JUMPDEST CALLER DUP7 DUP5 PUSH2 0x199D JUMP JUMPDEST POP SWAP3 SWAP2 POP POP JUMP JUMPDEST PUSH1 0x0 DUP1 PUSH1 0x0 DUP4 PUSH20 0xFFFFFFFFFFFFFFFFFFFFFFFFFFFFFFFFFFFFFFFF AND PUSH20 0xFFFFFFFFFFFFFFFFFFFFFFFFFFFFFFFFFFFFFFFF AND DUP2 MSTORE PUSH1 0x20 ADD SWAP1 DUP2 MSTORE PUSH1 0x20 ADD PUSH1 0x0 KECCAK256 SLOAD SWAP1 POP SWAP2 SWAP1 POP JUMP JUMPDEST PUSH2 0xDA6 PUSH2 0x14B9 JUMP JUMPDEST PUSH2 0xDB0 PUSH1 0x0 PUSH2 0x1A40 JUMP JUMPDEST JUMP JUMPDEST PUSH1 0x0 PUSH1 0x5 PUSH1 0x0 SWAP1 SLOAD SWAP1 PUSH2 0x100 EXP SWAP1 DIV PUSH20 0xFFFFFFFFFFFFFFFFFFFFFFFFFFFFFFFFFFFFFFFF AND SWAP1 POP SWAP1 JUMP JUMPDEST PUSH1 0x0 DUP1 PUSH2 0xDE8 DUP4 PUSH2 0x1092 JUMP JUMPDEST SWAP1 POP DUP1 DUP5 GT ISZERO PUSH2 0xE33 JUMPI DUP3 DUP5 DUP3 PUSH1 0x40 MLOAD PUSH32 0x284FF66700000000000000000000000000000000000000000000000000000000 DUP2 MSTORE PUSH1 0x4 ADD PUSH2 0xE2A SWAP4 SWAP3 SWAP2 SWAP1 PUSH2 0x2F84 JUMP JUMPDEST PUSH1 0x40 MLOAD DUP1 SWAP2 SUB SWAP1 REVERT JUMPDEST PUSH1 0x0 PUSH2 0xE3E DUP6 PUSH2 0xF76 JUMP JUMPDEST SWAP1 POP PUSH2 0xE53 PUSH2 0xE4B PUSH2 0x12BE JUMP JUMPDEST DUP6 DUP4 DUP9 PUSH2 0x199D JUMP JUMPDEST DUP1 SWAP3 POP POP POP SWAP3 SWAP2 POP POP JUMP JUMPDEST PUSH1 0x60 PUSH1 0x4 DUP1 SLOAD PUSH2 0xE6D SWAP1 PUSH2 0x2C66 JUMP JUMPDEST DUP1 PUSH1 0x1F ADD PUSH1 0x20 DUP1 SWAP2 DIV MUL PUSH1 0x20 ADD PUSH1 0x40 MLOAD SWAP1 DUP2 ADD PUSH1 0x40 MSTORE DUP1 SWAP3 SWAP2 SWAP1 DUP2 DUP2 MSTORE PUSH1 0x20 ADD DUP3 DUP1 SLOAD PUSH2 0xE99 SWAP1 PUSH2 0x2C66 JUMP JUMPDEST DUP1 ISZERO PUSH2 0xEE6 JUMPI DUP1 PUSH1 0x1F LT PUSH2 0xEBB JUMPI PUSH2 0x100 DUP1 DUP4 SLOAD DIV MUL DUP4 MSTORE SWAP2 PUSH1 0x20 ADD SWAP2 PUSH2 0xEE6 JUMP JUMPDEST DUP3 ADD SWAP2 SWAP1 PUSH1 0x0 MSTORE PUSH1 0x20 PUSH1 0x0 KECCAK256 SWAP1 JUMPDEST DUP2 SLOAD DUP2 MSTORE SWAP1 PUSH1 0x1 ADD SWAP1 PUSH1 0x20 ADD DUP1 DUP4 GT PUSH2 0xEC9 JUMPI DUP3 SWAP1 SUB PUSH1 0x1F AND DUP3 ADD SWAP2 JUMPDEST POP POP POP POP POP SWAP1 POP SWAP1 JUMP JUMPDEST PUSH1 0x7 DUP2 DUP2 SLOAD DUP2 LT PUSH2 0xF00 JUMPI PUSH1 0x0 DUP1 REVERT JUMPDEST SWAP1 PUSH1 0x0 MSTORE PUSH1 0x20 PUSH1 0x0 KECCAK256 ADD PUSH1 0x0 SWAP2 POP SLOAD SWAP1 PUSH2 0x100 EXP SWAP1 DIV PUSH20 0xFFFFFFFFFFFFFFFFFFFFFFFFFFFFFFFFFFFFFFFF AND DUP2 JUMP JUMPDEST PUSH1 0x0 DUP1 PUSH2 0xF3A PUSH2 0x12BE JUMP JUMPDEST SWAP1 POP PUSH2 0xF47 DUP2 DUP6 DUP6 PUSH2 0x13C5 JUMP JUMPDEST PUSH1 0x1 SWAP2 POP POP SWAP3 SWAP2 POP POP JUMP JUMPDEST PUSH32 0x0 DUP2 JUMP JUMPDEST PUSH1 0x0 PUSH2 0xF83 DUP3 PUSH1 0x1 PUSH2 0x1265 JUMP JUMPDEST SWAP1 POP SWAP2 SWAP1 POP JUMP JUMPDEST PUSH1 0x0 DUP1 PUSH2 0xF96 DUP4 PUSH2 0x1110 JUMP JUMPDEST SWAP1 POP DUP1 DUP6 GT ISZERO PUSH2 0xFE1 JUMPI DUP3 DUP6 DUP3 PUSH1 0x40 MLOAD PUSH32 0xFE9CCEEC00000000000000000000000000000000000000000000000000000000 DUP2 MSTORE PUSH1 0x4 ADD PUSH2 0xFD8 SWAP4 SWAP3 SWAP2 SWAP1 PUSH2 0x2F84 JUMP JUMPDEST PUSH1 0x40 MLOAD DUP1 SWAP2 SUB SWAP1 REVERT JUMPDEST PUSH1 0x0 PUSH2 0xFEC DUP7 PUSH2 0x93A JUMP JUMPDEST SWAP1 POP PUSH2 0x1002 PUSH2 0xFF9 PUSH2 0x12BE JUMP JUMPDEST DUP7 DUP7 DUP10 DUP6 PUSH2 0x18A4 JUMP JUMPDEST DUP1 SWAP3 POP POP POP SWAP4 SWAP3 POP POP POP JUMP JUMPDEST PUSH1 0x0 DUP1 PUSH2 0x101A DUP4 PUSH2 0x112C JUMP JUMPDEST SWAP1 POP DUP1 DUP6 GT ISZERO PUSH2 0x1065 JUMPI DUP3 DUP6 DUP3 PUSH1 0x40 MLOAD PUSH32 0xB94ABEEC00000000000000000000000000000000000000000000000000000000 DUP2 MSTORE PUSH1 0x4 ADD PUSH2 0x105C SWAP4 SWAP3 SWAP2 SWAP1 PUSH2 0x2F84 JUMP JUMPDEST PUSH1 0x40 MLOAD DUP1 SWAP2 SUB SWAP1 REVERT JUMPDEST PUSH1 0x0 PUSH2 0x1070 DUP7 PUSH2 0xD1A JUMP JUMPDEST SWAP1 POP PUSH2 0x1086 PUSH2 0x107D PUSH2 0x12BE JUMP JUMPDEST DUP7 DUP7 DUP5 DUP11 PUSH2 0x18A4 JUMP JUMPDEST DUP1 SWAP3 POP POP POP SWAP4 SWAP3 POP POP POP JUMP JUMPDEST PUSH1 0x0 PUSH32 0xFFFFFFFFFFFFFFFFFFFFFFFFFFFFFFFFFFFFFFFFFFFFFFFFFFFFFFFFFFFFFFFF SWAP1 POP SWAP2 SWAP1 POP JUMP JUMPDEST PUSH1 0x0 PUSH2 0x10C9 DUP3 PUSH1 0x0 PUSH2 0x12D8 JUMP JUMPDEST SWAP1 POP SWAP2 SWAP1 POP JUMP JUMPDEST PUSH1 0x60 DUP1 PUSH1 0x0 PUSH1 0x8 PUSH1 0x0 DUP7 DUP2 MSTORE PUSH1 0x20 ADD SWAP1 DUP2 MSTORE PUSH1 0x20 ADD PUSH1 0x0 KECCAK256 PUSH1 0x0 DUP6 DUP2 MSTORE PUSH1 0x20 ADD SWAP1 DUP2 MSTORE PUSH1 0x20 ADD PUSH1 0x0 KECCAK256 SWAP1 POP PUSH2 0x1104 DUP2 PUSH2 0x169F JUMP JUMPDEST SWAP3 POP SWAP3 POP POP SWAP3 POP SWAP3 SWAP1 POP JUMP JUMPDEST PUSH1 0x0 PUSH2 0x1125 PUSH2 0x111E DUP4 PUSH2 0xD56 JUMP JUMPDEST PUSH1 0x0 PUSH2 0x1265 JUMP JUMPDEST SWAP1 POP SWAP2 SWAP1 POP JUMP JUMPDEST PUSH1 0x0 PUSH2 0x1137 DUP3 PUSH2 0xD56 JUMP JUMPDEST SWAP1 POP SWAP2 SWAP1 POP JUMP JUMPDEST PUSH1 0x0 PUSH1 0x1 PUSH1 0x0 DUP5 PUSH20 0xFFFFFFFFFFFFFFFFFFFFFFFFFFFFFFFFFFFFFFFF AND PUSH20 0xFFFFFFFFFFFFFFFFFFFFFFFFFFFFFFFFFFFFFFFF AND DUP2 MSTORE PUSH1 0x20 ADD SWAP1 DUP2 MSTORE PUSH1 0x20 ADD PUSH1 0x0 KECCAK256 PUSH1 0x0 DUP4 PUSH20 0xFFFFFFFFFFFFFFFFFFFFFFFFFFFFFFFFFFFFFFFF AND PUSH20 0xFFFFFFFFFFFFFFFFFFFFFFFFFFFFFFFFFFFFFFFF AND DUP2 MSTORE PUSH1 0x20 ADD SWAP1 DUP2 MSTORE PUSH1 0x20 ADD PUSH1 0x0 KECCAK256 SLOAD SWAP1 POP SWAP3 SWAP2 POP POP JUMP JUMPDEST PUSH1 0x6 SLOAD DUP2 JUMP JUMPDEST PUSH1 0x0 PUSH2 0x11D8 DUP3 PUSH1 0x0 PUSH2 0x12D8 JUMP JUMPDEST SWAP1 POP SWAP2 SWAP1 POP JUMP JUMPDEST PUSH2 0x11E7 PUSH2 0x14B9 JUMP JUMPDEST PUSH1 0x0 PUSH20 0xFFFFFFFFFFFFFFFFFFFFFFFFFFFFFFFFFFFFFFFF AND DUP2 PUSH20 0xFFFFFFFFFFFFFFFFFFFFFFFFFFFFFFFFFFFFFFFF AND SUB PUSH2 0x1259 JUMPI PUSH1 0x0 PUSH1 0x40 MLOAD PUSH32 0x1E4FBDF700000000000000000000000000000000000000000000000000000000 DUP2 MSTORE PUSH1 0x4 ADD PUSH2 0x1250 SWAP2 SWAP1 PUSH2 0x29E5 JUMP JUMPDEST PUSH1 0x40 MLOAD DUP1 SWAP2 SUB SWAP1 REVERT JUMPDEST PUSH2 0x1262 DUP2 PUSH2 0x1A40 JUMP JUMPDEST POP JUMP JUMPDEST PUSH1 0x0 PUSH2 0x12B6 PUSH1 0x1 PUSH2 0x1274 PUSH2 0x7D0 JUMP JUMPDEST PUSH2 0x127E SWAP2 SWAP1 PUSH2 0x2E8E JUMP JUMPDEST PUSH2 0x1286 PUSH2 0x189F JUMP JUMPDEST PUSH1 0xA PUSH2 0x1292 SWAP2 SWAP1 PUSH2 0x30EE JUMP JUMPDEST PUSH2 0x129A PUSH2 0x94E JUMP JUMPDEST PUSH2 0x12A4 SWAP2 SWAP1 PUSH2 0x2E8E JUMP JUMPDEST DUP5 DUP7 PUSH2 0x1B06 SWAP1 SWAP4 SWAP3 SWAP2 SWAP1 PUSH4 0xFFFFFFFF AND JUMP JUMPDEST SWAP1 POP SWAP3 SWAP2 POP POP JUMP JUMPDEST PUSH1 0x0 CALLER SWAP1 POP SWAP1 JUMP JUMPDEST PUSH2 0x12D3 DUP4 DUP4 DUP4 PUSH1 0x1 PUSH2 0x1B5D JUMP JUMPDEST POP POP POP JUMP JUMPDEST PUSH1 0x0 PUSH2 0x1329 PUSH2 0x12E5 PUSH2 0x189F JUMP JUMPDEST PUSH1 0xA PUSH2 0x12F1 SWAP2 SWAP1 PUSH2 0x30EE JUMP JUMPDEST PUSH2 0x12F9 PUSH2 0x94E JUMP JUMPDEST PUSH2 0x1303 SWAP2 SWAP1 PUSH2 0x2E8E JUMP JUMPDEST PUSH1 0x1 PUSH2 0x130D PUSH2 0x7D0 JUMP JUMPDEST PUSH2 0x1317 SWAP2 SWAP1 PUSH2 0x2E8E JUMP JUMPDEST DUP5 DUP7 PUSH2 0x1B06 SWAP1 SWAP4 SWAP3 SWAP2 SWAP1 PUSH4 0xFFFFFFFF AND JUMP JUMPDEST SWAP1 POP SWAP3 SWAP2 POP POP JUMP JUMPDEST PUSH1 0x0 PUSH2 0x133D DUP5 DUP5 PUSH2 0x113E JUMP JUMPDEST SWAP1 POP PUSH32 0xFFFFFFFFFFFFFFFFFFFFFFFFFFFFFFFFFFFFFFFFFFFFFFFFFFFFFFFFFFFFFFFF DUP2 EQ PUSH2 0x13BF JUMPI DUP2 DUP2 LT ISZERO PUSH2 0x13AF JUMPI DUP3 DUP2 DUP4 PUSH1 0x40 MLOAD PUSH32 0xFB8F41B200000000000000000000000000000000000000000000000000000000 DUP2 MSTORE PUSH1 0x4 ADD PUSH2 0x13A6 SWAP4 SWAP3 SWAP2 SWAP1 PUSH2 0x2F84 JUMP JUMPDEST PUSH1 0x40 MLOAD DUP1 SWAP2 SUB SWAP1 REVERT JUMPDEST PUSH2 0x13BE DUP5 DUP5 DUP5 DUP5 SUB PUSH1 0x0 PUSH2 0x1B5D JUMP JUMPDEST JUMPDEST POP POP POP POP JUMP JUMPDEST PUSH1 0x0 PUSH20 0xFFFFFFFFFFFFFFFFFFFFFFFFFFFFFFFFFFFFFFFF AND DUP4 PUSH20 0xFFFFFFFFFFFFFFFFFFFFFFFFFFFFFFFFFFFFFFFF AND SUB PUSH2 0x1437 JUMPI PUSH1 0x0 PUSH1 0x40 MLOAD PUSH32 0x96C6FD1E00000000000000000000000000000000000000000000000000000000 DUP2 MSTORE PUSH1 0x4 ADD PUSH2 0x142E SWAP2 SWAP1 PUSH2 0x29E5 JUMP JUMPDEST PUSH1 0x40 MLOAD DUP1 SWAP2 SUB SWAP1 REVERT JUMPDEST PUSH1 0x0 PUSH20 0xFFFFFFFFFFFFFFFFFFFFFFFFFFFFFFFFFFFFFFFF AND DUP3 PUSH20 0xFFFFFFFFFFFFFFFFFFFFFFFFFFFFFFFFFFFFFFFF AND SUB PUSH2 0x14A9 JUMPI PUSH1 0x0 PUSH1 0x40 MLOAD PUSH32 0xEC442F0500000000000000000000000000000000000000000000000000000000 DUP2 MSTORE PUSH1 0x4 ADD PUSH2 0x14A0 SWAP2 SWAP1 PUSH2 0x29E5 JUMP JUMPDEST PUSH1 0x40 MLOAD DUP1 SWAP2 SUB SWAP1 REVERT JUMPDEST PUSH2 0x14B4 DUP4 DUP4 DUP4 PUSH2 0x1D34 JUMP JUMPDEST POP POP POP JUMP JUMPDEST PUSH2 0x14C1 PUSH2 0x12BE JUMP JUMPDEST PUSH20 0xFFFFFFFFFFFFFFFFFFFFFFFFFFFFFFFFFFFFFFFF AND PUSH2 0x14DF PUSH2 0xDB2 JUMP JUMPDEST PUSH20 0xFFFFFFFFFFFFFFFFFFFFFFFFFFFFFFFFFFFFFFFF AND EQ PUSH2 0x153E JUMPI PUSH2 0x1502 PUSH2 0x12BE JUMP JUMPDEST PUSH1 0x40 MLOAD PUSH32 0x118CDAA700000000000000000000000000000000000000000000000000000000 DUP2 MSTORE PUSH1 0x4 ADD PUSH2 0x1535 SWAP2 SWAP1 PUSH2 0x29E5 JUMP JUMPDEST PUSH1 0x40 MLOAD DUP1 SWAP2 SUB SWAP1 REVERT JUMPDEST JUMP JUMPDEST PUSH1 0x0 DUP5 SWAP1 POP PUSH1 0x0 PUSH2 0x1550 DUP5 PUSH2 0x1F59 JUMP JUMPDEST SWAP1 POP DUP5 PUSH8 0xFFFFFFFFFFFFFFFF DUP2 GT ISZERO PUSH2 0x156C JUMPI PUSH2 0x156B PUSH2 0x3139 JUMP JUMPDEST JUMPDEST PUSH1 0x40 MLOAD SWAP1 DUP1 DUP3 MSTORE DUP1 PUSH1 0x20 MUL PUSH1 0x20 ADD DUP3 ADD PUSH1 0x40 MSTORE DUP1 ISZERO PUSH2 0x159A JUMPI DUP2 PUSH1 0x20 ADD PUSH1 0x20 DUP3 MUL DUP1 CALLDATASIZE DUP4 CALLDATACOPY DUP1 DUP3 ADD SWAP2 POP POP SWAP1 POP JUMPDEST POP DUP8 PUSH1 0x2 ADD SWAP1 DUP1 MLOAD SWAP1 PUSH1 0x20 ADD SWAP1 PUSH2 0x15B2 SWAP3 SWAP2 SWAP1 PUSH2 0x25C6 JUMP JUMPDEST POP DUP5 PUSH8 0xFFFFFFFFFFFFFFFF DUP2 GT ISZERO PUSH2 0x15CD JUMPI PUSH2 0x15CC PUSH2 0x3139 JUMP JUMPDEST JUMPDEST PUSH1 0x40 MLOAD SWAP1 DUP1 DUP3 MSTORE DUP1 PUSH1 0x20 MUL PUSH1 0x20 ADD DUP3 ADD PUSH1 0x40 MSTORE DUP1 ISZERO PUSH2 0x15FB JUMPI DUP2 PUSH1 0x20 ADD PUSH1 0x20 DUP3 MUL DUP1 CALLDATASIZE DUP4 CALLDATACOPY DUP1 DUP3 ADD SWAP2 POP POP SWAP1 POP JUMPDEST POP DUP8 PUSH1 0x3 ADD SWAP1 DUP1 MLOAD SWAP1 PUSH1 0x20 ADD SWAP1 PUSH2 0x1613 SWAP3 SWAP2 SWAP1 PUSH2 0x25C6 JUMP JUMPDEST POP PUSH1 0x0 JUMPDEST DUP6 DUP2 LT ISZERO PUSH2 0x1695 JUMPI DUP3 DUP9 PUSH1 0x2 ADD DUP3 DUP2 SLOAD DUP2 LT PUSH2 0x1636 JUMPI PUSH2 0x1635 PUSH2 0x2D32 JUMP JUMPDEST JUMPDEST SWAP1 PUSH1 0x0 MSTORE PUSH1 0x20 PUSH1 0x0 KECCAK256 ADD DUP2 SWAP1 SSTORE POP DUP6 DUP5 PUSH2 0x1650 SWAP2 SWAP1 PUSH2 0x3197 JUMP JUMPDEST DUP9 PUSH1 0x3 ADD DUP3 DUP2 SLOAD DUP2 LT PUSH2 0x1666 JUMPI PUSH2 0x1665 PUSH2 0x2D32 JUMP JUMPDEST JUMPDEST SWAP1 PUSH1 0x0 MSTORE PUSH1 0x20 PUSH1 0x0 KECCAK256 ADD DUP2 SWAP1 SSTORE POP DUP2 DUP4 PUSH2 0x1680 SWAP2 SWAP1 PUSH2 0x2E8E JUMP JUMPDEST SWAP3 POP DUP1 DUP1 PUSH2 0x168D SWAP1 PUSH2 0x2EC2 JUMP JUMPDEST SWAP2 POP POP PUSH2 0x1617 JUMP JUMPDEST POP POP POP POP POP POP POP POP JUMP JUMPDEST PUSH1 0x60 DUP1 PUSH1 0x0 DUP1 JUMPDEST DUP5 PUSH1 0x2 ADD DUP1 SLOAD SWAP1 POP DUP2 LT ISZERO PUSH2 0x1711 JUMPI DUP5 PUSH1 0x4 ADD DUP2 DUP2 SLOAD DUP2 LT PUSH2 0x16CB JUMPI PUSH2 0x16CA PUSH2 0x2D32 JUMP JUMPDEST JUMPDEST SWAP1 PUSH1 0x0 MSTORE PUSH1 0x20 PUSH1 0x0 KECCAK256 SWAP1 PUSH1 0x20 SWAP2 DUP3 DUP3 DIV ADD SWAP2 SWAP1 MOD SWAP1 SLOAD SWAP1 PUSH2 0x100 EXP SWAP1 DIV PUSH1 0xFF AND PUSH2 0x16FE JUMPI DUP2 DUP1 PUSH2 0x16FA SWAP1 PUSH2 0x2EC2 JUMP JUMPDEST SWAP3 POP POP JUMPDEST DUP1 DUP1 PUSH2 0x1709 SWAP1 PUSH2 0x2EC2 JUMP JUMPDEST SWAP2 POP POP PUSH2 0x16A6 JUMP JUMPDEST POP DUP1 PUSH8 0xFFFFFFFFFFFFFFFF DUP2 GT ISZERO PUSH2 0x172C JUMPI PUSH2 0x172B PUSH2 0x3139 JUMP JUMPDEST JUMPDEST PUSH1 0x40 MLOAD SWAP1 DUP1 DUP3 MSTORE DUP1 PUSH1 0x20 MUL PUSH1 0x20 ADD DUP3 ADD PUSH1 0x40 MSTORE DUP1 ISZERO PUSH2 0x175A JUMPI DUP2 PUSH1 0x20 ADD PUSH1 0x20 DUP3 MUL DUP1 CALLDATASIZE DUP4 CALLDATACOPY DUP1 DUP3 ADD SWAP2 POP POP SWAP1 POP JUMPDEST POP SWAP2 POP DUP1 PUSH8 0xFFFFFFFFFFFFFFFF DUP2 GT ISZERO PUSH2 0x1777 JUMPI PUSH2 0x1776 PUSH2 0x3139 JUMP JUMPDEST JUMPDEST PUSH1 0x40 MLOAD SWAP1 DUP1 DUP3 MSTORE DUP1 PUSH1 0x20 MUL PUSH1 0x20 ADD DUP3 ADD PUSH1 0x40 MSTORE DUP1 ISZERO PUSH2 0x17A5 JUMPI DUP2 PUSH1 0x20 ADD PUSH1 0x20 DUP3 MUL DUP1 CALLDATASIZE DUP4 CALLDATACOPY DUP1 DUP3 ADD SWAP2 POP POP SWAP1 POP JUMPDEST POP SWAP3 POP PUSH1 0x0 DUP1 JUMPDEST DUP6 PUSH1 0x2 ADD DUP1 SLOAD SWAP1 POP DUP2 LT ISZERO PUSH2 0x1897 JUMPI DUP6 PUSH1 0x4 ADD DUP2 DUP2 SLOAD DUP2 LT PUSH2 0x17D1 JUMPI PUSH2 0x17D0 PUSH2 0x2D32 JUMP JUMPDEST JUMPDEST SWAP1 PUSH1 0x0 MSTORE PUSH1 0x20 PUSH1 0x0 KECCAK256 SWAP1 PUSH1 0x20 SWAP2 DUP3 DUP3 DIV ADD SWAP2 SWAP1 MOD SWAP1 SLOAD SWAP1 PUSH2 0x100 EXP SWAP1 DIV PUSH1 0xFF AND PUSH2 0x1884 JUMPI DUP6 PUSH1 0x2 ADD DUP2 DUP2 SLOAD DUP2 LT PUSH2 0x180B JUMPI PUSH2 0x180A PUSH2 0x2D32 JUMP JUMPDEST JUMPDEST SWAP1 PUSH1 0x0 MSTORE PUSH1 0x20 PUSH1 0x0 KECCAK256 ADD SLOAD DUP5 DUP4 DUP2 MLOAD DUP2 LT PUSH2 0x1829 JUMPI PUSH2 0x1828 PUSH2 0x2D32 JUMP JUMPDEST JUMPDEST PUSH1 0x20 MUL PUSH1 0x20 ADD ADD DUP2 DUP2 MSTORE POP POP DUP6 PUSH1 0x3 ADD DUP2 DUP2 SLOAD DUP2 LT PUSH2 0x184B JUMPI PUSH2 0x184A PUSH2 0x2D32 JUMP JUMPDEST JUMPDEST SWAP1 PUSH1 0x0 MSTORE PUSH1 0x20 PUSH1 0x0 KECCAK256 ADD SLOAD DUP6 DUP4 DUP2 MLOAD DUP2 LT PUSH2 0x1869 JUMPI PUSH2 0x1868 PUSH2 0x2D32 JUMP JUMPDEST JUMPDEST PUSH1 0x20 MUL PUSH1 0x20 ADD ADD DUP2 DUP2 MSTORE POP POP DUP2 DUP1 PUSH2 0x1880 SWAP1 PUSH2 0x2EC2 JUMP JUMPDEST SWAP3 POP POP JUMPDEST DUP1 DUP1 PUSH2 0x188F SWAP1 PUSH2 0x2EC2 JUMP JUMPDEST SWAP2 POP POP PUSH2 0x17AC JUMP JUMPDEST POP POP POP SWAP2 POP SWAP2 JUMP JUMPDEST PUSH1 0x0 SWAP1 JUMP JUMPDEST DUP3 PUSH20 0xFFFFFFFFFFFFFFFFFFFFFFFFFFFFFFFFFFFFFFFF AND DUP6 PUSH20 0xFFFFFFFFFFFFFFFFFFFFFFFFFFFFFFFFFFFFFFFF AND EQ PUSH2 0x18E3 JUMPI PUSH2 0x18E2 DUP4 DUP7 DUP4 PUSH2 0x1331 JUMP JUMPDEST JUMPDEST PUSH2 0x18ED DUP4 DUP3 PUSH2 0x203E JUMP JUMPDEST PUSH2 0x1918 PUSH32 0x0 DUP6 DUP5 PUSH2 0x20C0 JUMP JUMPDEST DUP3 PUSH20 0xFFFFFFFFFFFFFFFFFFFFFFFFFFFFFFFFFFFFFFFF AND DUP5 PUSH20 0xFFFFFFFFFFFFFFFFFFFFFFFFFFFFFFFFFFFFFFFF AND DUP7 PUSH20 0xFFFFFFFFFFFFFFFFFFFFFFFFFFFFFFFFFFFFFFFF AND PUSH32 0xFBDE797D201C681B91056529119E0B02407C7BB96A4A2C75C01FC9667232C8DB DUP6 DUP6 PUSH1 0x40 MLOAD PUSH2 0x198E SWAP3 SWAP2 SWAP1 PUSH2 0x31C8 JUMP JUMPDEST PUSH1 0x40 MLOAD DUP1 SWAP2 SUB SWAP1 LOG4 POP POP POP POP POP JUMP JUMPDEST PUSH2 0x19C9 PUSH32 0x0 DUP6 ADDRESS DUP6 PUSH2 0x213F JUMP JUMPDEST PUSH2 0x19D3 DUP4 DUP3 PUSH2 0x21C1 JUMP JUMPDEST DUP3 PUSH20 0xFFFFFFFFFFFFFFFFFFFFFFFFFFFFFFFFFFFFFFFF AND DUP5 PUSH20 0xFFFFFFFFFFFFFFFFFFFFFFFFFFFFFFFFFFFFFFFF AND PUSH32 0xDCBC1C05240F31FF3AD067EF1EE35CE4997762752E3A095284754544F4C709D7 DUP5 DUP5 PUSH1 0x40 MLOAD PUSH2 0x1A32 SWAP3 SWAP2 SWAP1 PUSH2 0x31C8 JUMP JUMPDEST PUSH1 0x40 MLOAD DUP1 SWAP2 SUB SWAP1 LOG3 POP POP POP POP JUMP JUMPDEST PUSH1 0x0 PUSH1 0x5 PUSH1 0x0 SWAP1 SLOAD SWAP1 PUSH2 0x100 EXP SWAP1 DIV PUSH20 0xFFFFFFFFFFFFFFFFFFFFFFFFFFFFFFFFFFFFFFFF AND SWAP1 POP DUP2 PUSH1 0x5 PUSH1 0x0 PUSH2 0x100 EXP DUP2 SLOAD DUP2 PUSH20 0xFFFFFFFFFFFFFFFFFFFFFFFFFFFFFFFFFFFFFFFF MUL NOT AND SWAP1 DUP4 PUSH20 0xFFFFFFFFFFFFFFFFFFFFFFFFFFFFFFFFFFFFFFFF AND MUL OR SWAP1 SSTORE POP DUP2 PUSH20 0xFFFFFFFFFFFFFFFFFFFFFFFFFFFFFFFFFFFFFFFF AND DUP2 PUSH20 0xFFFFFFFFFFFFFFFFFFFFFFFFFFFFFFFFFFFFFFFF AND PUSH32 0x8BE0079C531659141344CD1FD0A4F28419497F9722A3DAAFE3B4186F6B6457E0 PUSH1 0x40 MLOAD PUSH1 0x40 MLOAD DUP1 SWAP2 SUB SWAP1 LOG3 POP POP JUMP JUMPDEST PUSH1 0x0 DUP1 PUSH2 0x1B14 DUP7 DUP7 DUP7 PUSH2 0x2243 JUMP JUMPDEST SWAP1 POP PUSH2 0x1B1F DUP4 PUSH2 0x234A JUMP JUMPDEST DUP1 ISZERO PUSH2 0x1B3C JUMPI POP PUSH1 0x0 DUP5 DUP1 PUSH2 0x1B37 JUMPI PUSH2 0x1B36 PUSH2 0x3168 JUMP JUMPDEST JUMPDEST DUP7 DUP9 MULMOD GT JUMPDEST ISZERO PUSH2 0x1B51 JUMPI PUSH1 0x1 DUP2 PUSH2 0x1B4E SWAP2 SWAP1 PUSH2 0x2E8E JUMP JUMPDEST SWAP1 POP JUMPDEST DUP1 SWAP2 POP POP SWAP5 SWAP4 POP POP POP POP JUMP JUMPDEST PUSH1 0x0 PUSH20 0xFFFFFFFFFFFFFFFFFFFFFFFFFFFFFFFFFFFFFFFF AND DUP5 PUSH20 0xFFFFFFFFFFFFFFFFFFFFFFFFFFFFFFFFFFFFFFFF AND SUB PUSH2 0x1BCF JUMPI PUSH1 0x0 PUSH1 0x40 MLOAD PUSH32 0xE602DF0500000000000000000000000000000000000000000000000000000000 DUP2 MSTORE PUSH1 0x4 ADD PUSH2 0x1BC6 SWAP2 SWAP1 PUSH2 0x29E5 JUMP JUMPDEST PUSH1 0x40 MLOAD DUP1 SWAP2 SUB SWAP1 REVERT JUMPDEST PUSH1 0x0 PUSH20 0xFFFFFFFFFFFFFFFFFFFFFFFFFFFFFFFFFFFFFFFF AND DUP4 PUSH20 0xFFFFFFFFFFFFFFFFFFFFFFFFFFFFFFFFFFFFFFFF AND SUB PUSH2 0x1C41 JUMPI PUSH1 0x0 PUSH1 0x40 MLOAD PUSH32 0x94280D6200000000000000000000000000000000000000000000000000000000 DUP2 MSTORE PUSH1 0x4 ADD PUSH2 0x1C38 SWAP2 SWAP1 PUSH2 0x29E5 JUMP JUMPDEST PUSH1 0x40 MLOAD DUP1 SWAP2 SUB SWAP1 REVERT JUMPDEST DUP2 PUSH1 0x1 PUSH1 0x0 DUP7 PUSH20 0xFFFFFFFFFFFFFFFFFFFFFFFFFFFFFFFFFFFFFFFF AND PUSH20 0xFFFFFFFFFFFFFFFFFFFFFFFFFFFFFFFFFFFFFFFF AND DUP2 MSTORE PUSH1 0x20 ADD SWAP1 DUP2 MSTORE PUSH1 0x20 ADD PUSH1 0x0 KECCAK256 PUSH1 0x0 DUP6 PUSH20 0xFFFFFFFFFFFFFFFFFFFFFFFFFFFFFFFFFFFFFFFF AND PUSH20 0xFFFFFFFFFFFFFFFFFFFFFFFFFFFFFFFFFFFFFFFF AND DUP2 MSTORE PUSH1 0x20 ADD SWAP1 DUP2 MSTORE PUSH1 0x20 ADD PUSH1 0x0 KECCAK256 DUP2 SWAP1 SSTORE POP DUP1 ISZERO PUSH2 0x1D2E JUMPI DUP3 PUSH20 0xFFFFFFFFFFFFFFFFFFFFFFFFFFFFFFFFFFFFFFFF AND DUP5 PUSH20 0xFFFFFFFFFFFFFFFFFFFFFFFFFFFFFFFFFFFFFFFF AND PUSH32 0x8C5BE1E5EBEC7D5BD14F71427D1E84F3DD0314C0F7B2291E5B200AC8C7C3B925 DUP5 PUSH1 0x40 MLOAD PUSH2 0x1D25 SWAP2 SWAP1 PUSH2 0x2649 JUMP JUMPDEST PUSH1 0x40 MLOAD DUP1 SWAP2 SUB SWAP1 LOG3 JUMPDEST POP POP POP POP JUMP JUMPDEST PUSH1 0x0 PUSH20 0xFFFFFFFFFFFFFFFFFFFFFFFFFFFFFFFFFFFFFFFF AND DUP4 PUSH20 0xFFFFFFFFFFFFFFFFFFFFFFFFFFFFFFFFFFFFFFFF AND SUB PUSH2 0x1D86 JUMPI DUP1 PUSH1 0x2 PUSH1 0x0 DUP3 DUP3 SLOAD PUSH2 0x1D7A SWAP2 SWAP1 PUSH2 0x2E8E JUMP JUMPDEST SWAP3 POP POP DUP2 SWAP1 SSTORE POP PUSH2 0x1E59 JUMP JUMPDEST PUSH1 0x0 DUP1 PUSH1 0x0 DUP6 PUSH20 0xFFFFFFFFFFFFFFFFFFFFFFFFFFFFFFFFFFFFFFFF AND PUSH20 0xFFFFFFFFFFFFFFFFFFFFFFFFFFFFFFFFFFFFFFFF AND DUP2 MSTORE PUSH1 0x20 ADD SWAP1 DUP2 MSTORE PUSH1 0x20 ADD PUSH1 0x0 KECCAK256 SLOAD SWAP1 POP DUP2 DUP2 LT ISZERO PUSH2 0x1E12 JUMPI DUP4 DUP2 DUP4 PUSH1 0x40 MLOAD PUSH32 0xE450D38C00000000000000000000000000000000000000000000000000000000 DUP2 MSTORE PUSH1 0x4 ADD PUSH2 0x1E09 SWAP4 SWAP3 SWAP2 SWAP1 PUSH2 0x2F84 JUMP JUMPDEST PUSH1 0x40 MLOAD DUP1 SWAP2 SUB SWAP1 REVERT JUMPDEST DUP2 DUP2 SUB PUSH1 0x0 DUP1 DUP7 PUSH20 0xFFFFFFFFFFFFFFFFFFFFFFFFFFFFFFFFFFFFFFFF AND PUSH20 0xFFFFFFFFFFFFFFFFFFFFFFFFFFFFFFFFFFFFFFFF AND DUP2 MSTORE PUSH1 0x20 ADD SWAP1 DUP2 MSTORE PUSH1 0x20 ADD PUSH1 0x0 KECCAK256 DUP2 SWAP1 SSTORE POP POP JUMPDEST PUSH1 0x0 PUSH20 0xFFFFFFFFFFFFFFFFFFFFFFFFFFFFFFFFFFFFFFFF AND DUP3 PUSH20 0xFFFFFFFFFFFFFFFFFFFFFFFFFFFFFFFFFFFFFFFF AND SUB PUSH2 0x1EA2 JUMPI DUP1 PUSH1 0x2 PUSH1 0x0 DUP3 DUP3 SLOAD SUB SWAP3 POP POP DUP2 SWAP1 SSTORE POP PUSH2 0x1EEF JUMP JUMPDEST DUP1 PUSH1 0x0 DUP1 DUP5 PUSH20 0xFFFFFFFFFFFFFFFFFFFFFFFFFFFFFFFFFFFFFFFF AND PUSH20 0xFFFFFFFFFFFFFFFFFFFFFFFFFFFFFFFFFFFFFFFF AND DUP2 MSTORE PUSH1 0x20 ADD SWAP1 DUP2 MSTORE PUSH1 0x20 ADD PUSH1 0x0 KECCAK256 PUSH1 0x0 DUP3 DUP3 SLOAD ADD SWAP3 POP POP DUP2 SWAP1 SSTORE POP JUMPDEST DUP2 PUSH20 0xFFFFFFFFFFFFFFFFFFFFFFFFFFFFFFFFFFFFFFFF AND DUP4 PUSH20 0xFFFFFFFFFFFFFFFFFFFFFFFFFFFFFFFFFFFFFFFF AND PUSH32 0xDDF252AD1BE2C89B69C2B068FC378DAA952BA7F163C4A11628F55A4DF523B3EF DUP4 PUSH1 0x40 MLOAD PUSH2 0x1F4C SWAP2 SWAP1 PUSH2 0x2649 JUMP JUMPDEST PUSH1 0x40 MLOAD DUP1 SWAP2 SUB SWAP1 LOG3 POP POP POP JUMP JUMPDEST PUSH1 0x0 DUP1 PUSH1 0x2 DUP2 GT ISZERO PUSH2 0x1F6E JUMPI PUSH2 0x1F6D PUSH2 0x2C97 JUMP JUMPDEST JUMPDEST DUP3 PUSH1 0x2 DUP2 GT ISZERO PUSH2 0x1F81 JUMPI PUSH2 0x1F80 PUSH2 0x2C97 JUMP JUMPDEST JUMPDEST SUB PUSH2 0x1F91 JUMPI PUSH3 0x15180 SWAP1 POP PUSH2 0x2039 JUMP JUMPDEST PUSH1 0x1 PUSH1 0x2 DUP2 GT ISZERO PUSH2 0x1FA5 JUMPI PUSH2 0x1FA4 PUSH2 0x2C97 JUMP JUMPDEST JUMPDEST DUP3 PUSH1 0x2 DUP2 GT ISZERO PUSH2 0x1FB8 JUMPI PUSH2 0x1FB7 PUSH2 0x2C97 JUMP JUMPDEST JUMPDEST SUB PUSH2 0x1FC8 JUMPI PUSH3 0x93A80 SWAP1 POP PUSH2 0x2039 JUMP JUMPDEST PUSH1 0x2 DUP1 DUP2 GT ISZERO PUSH2 0x1FDB JUMPI PUSH2 0x1FDA PUSH2 0x2C97 JUMP JUMPDEST JUMPDEST DUP3 PUSH1 0x2 DUP2 GT ISZERO PUSH2 0x1FEE JUMPI PUSH2 0x1FED PUSH2 0x2C97 JUMP JUMPDEST JUMPDEST SUB PUSH2 0x1FFE JUMPI PUSH3 0x278D00 SWAP1 POP PUSH2 0x2039 JUMP JUMPDEST PUSH1 0x40 MLOAD PUSH32 0x8C379A000000000000000000000000000000000000000000000000000000000 DUP2 MSTORE PUSH1 0x4 ADD PUSH2 0x2030 SWAP1 PUSH2 0x323D JUMP JUMPDEST PUSH1 0x40 MLOAD DUP1 SWAP2 SUB SWAP1 REVERT JUMPDEST SWAP2 SWAP1 POP JUMP JUMPDEST PUSH1 0x0 PUSH20 0xFFFFFFFFFFFFFFFFFFFFFFFFFFFFFFFFFFFFFFFF AND DUP3 PUSH20 0xFFFFFFFFFFFFFFFFFFFFFFFFFFFFFFFFFFFFFFFF AND SUB PUSH2 0x20B0 JUMPI PUSH1 0x0 PUSH1 0x40 MLOAD PUSH32 0x96C6FD1E00000000000000000000000000000000000000000000000000000000 DUP2 MSTORE PUSH1 0x4 ADD PUSH2 0x20A7 SWAP2 SWAP1 PUSH2 0x29E5 JUMP JUMPDEST PUSH1 0x40 MLOAD DUP1 SWAP2 SUB SWAP1 REVERT JUMPDEST PUSH2 0x20BC DUP3 PUSH1 0x0 DUP4 PUSH2 0x1D34 JUMP JUMPDEST POP POP JUMP JUMPDEST PUSH2 0x213A DUP4 DUP5 PUSH20 0xFFFFFFFFFFFFFFFFFFFFFFFFFFFFFFFFFFFFFFFF AND PUSH4 0xA9059CBB DUP6 DUP6 PUSH1 0x40 MLOAD PUSH1 0x24 ADD PUSH2 0x20F3 SWAP3 SWAP2 SWAP1 PUSH2 0x325D JUMP JUMPDEST PUSH1 0x40 MLOAD PUSH1 0x20 DUP2 DUP4 SUB SUB DUP2 MSTORE SWAP1 PUSH1 0x40 MSTORE SWAP2 POP PUSH1 0xE0 SHL PUSH1 0x20 DUP3 ADD DUP1 MLOAD PUSH28 0xFFFFFFFFFFFFFFFFFFFFFFFFFFFFFFFFFFFFFFFFFFFFFFFFFFFFFFFF DUP4 DUP2 DUP4 AND OR DUP4 MSTORE POP POP POP POP PUSH2 0x2378 JUMP JUMPDEST POP POP POP JUMP JUMPDEST PUSH2 0x21BB DUP5 DUP6 PUSH20 0xFFFFFFFFFFFFFFFFFFFFFFFFFFFFFFFFFFFFFFFF AND PUSH4 0x23B872DD DUP7 DUP7 DUP7 PUSH1 0x40 MLOAD PUSH1 0x24 ADD PUSH2 0x2174 SWAP4 SWAP3 SWAP2 SWAP1 PUSH2 0x3286 JUMP JUMPDEST PUSH1 0x40 MLOAD PUSH1 0x20 DUP2 DUP4 SUB SUB DUP2 MSTORE SWAP1 PUSH1 0x40 MSTORE SWAP2 POP PUSH1 0xE0 SHL PUSH1 0x20 DUP3 ADD DUP1 MLOAD PUSH28 0xFFFFFFFFFFFFFFFFFFFFFFFFFFFFFFFFFFFFFFFFFFFFFFFFFFFFFFFF DUP4 DUP2 DUP4 AND OR DUP4 MSTORE POP POP POP POP PUSH2 0x2378 JUMP JUMPDEST POP POP POP POP JUMP JUMPDEST PUSH1 0x0 PUSH20 0xFFFFFFFFFFFFFFFFFFFFFFFFFFFFFFFFFFFFFFFF AND DUP3 PUSH20 0xFFFFFFFFFFFFFFFFFFFFFFFFFFFFFFFFFFFFFFFF AND SUB PUSH2 0x2233 JUMPI PUSH1 0x0 PUSH1 0x40 MLOAD PUSH32 0xEC442F0500000000000000000000000000000000000000000000000000000000 DUP2 MSTORE PUSH1 0x4 ADD PUSH2 0x222A SWAP2 SWAP1 PUSH2 0x29E5 JUMP JUMPDEST PUSH1 0x40 MLOAD DUP1 SWAP2 SUB SWAP1 REVERT JUMPDEST PUSH2 0x223F PUSH1 0x0 DUP4 DUP4 PUSH2 0x1D34 JUMP JUMPDEST POP POP JUMP JUMPDEST PUSH1 0x0 DUP1 DUP4 DUP6 MUL SWAP1 POP PUSH1 0x0 DUP1 NOT DUP6 DUP8 MULMOD DUP3 DUP2 LT DUP4 DUP3 SUB SUB SWAP2 POP POP PUSH1 0x0 DUP2 SUB PUSH2 0x227E JUMPI DUP4 DUP3 DUP2 PUSH2 0x2274 JUMPI PUSH2 0x2273 PUSH2 0x3168 JUMP JUMPDEST JUMPDEST DIV SWAP3 POP POP POP PUSH2 0x2343 JUMP JUMPDEST DUP1 DUP5 GT PUSH2 0x22B7 JUMPI PUSH1 0x40 MLOAD PUSH32 0x227BC15300000000000000000000000000000000000000000000000000000000 DUP2 MSTORE PUSH1 0x4 ADD PUSH1 0x40 MLOAD DUP1 SWAP2 SUB SWAP1 REVERT JUMPDEST PUSH1 0x0 DUP5 DUP7 DUP9 MULMOD SWAP1 POP DUP3 DUP2 GT DUP3 SUB SWAP2 POP DUP1 DUP4 SUB SWAP3 POP PUSH1 0x0 DUP6 PUSH1 0x0 SUB DUP7 AND SWAP1 POP DUP1 DUP7 DIV SWAP6 POP DUP1 DUP5 DIV SWAP4 POP PUSH1 0x1 DUP2 DUP3 PUSH1 0x0 SUB DIV ADD SWAP1 POP DUP1 DUP4 MUL DUP5 OR SWAP4 POP PUSH1 0x0 PUSH1 0x2 DUP8 PUSH1 0x3 MUL XOR SWAP1 POP DUP1 DUP8 MUL PUSH1 0x2 SUB DUP2 MUL SWAP1 POP DUP1 DUP8 MUL PUSH1 0x2 SUB DUP2 MUL SWAP1 POP DUP1 DUP8 MUL PUSH1 0x2 SUB DUP2 MUL SWAP1 POP DUP1 DUP8 MUL PUSH1 0x2 SUB DUP2 MUL SWAP1 POP DUP1 DUP8 MUL PUSH1 0x2 SUB DUP2 MUL SWAP1 POP DUP1 DUP8 MUL PUSH1 0x2 SUB DUP2 MUL SWAP1 POP DUP1 DUP6 MUL SWAP6 POP POP POP POP POP POP JUMPDEST SWAP4 SWAP3 POP POP POP JUMP JUMPDEST PUSH1 0x0 PUSH1 0x1 PUSH1 0x2 DUP4 PUSH1 0x3 DUP2 GT ISZERO PUSH2 0x2363 JUMPI PUSH2 0x2362 PUSH2 0x2C97 JUMP JUMPDEST JUMPDEST PUSH2 0x236D SWAP2 SWAP1 PUSH2 0x32BD JUMP JUMPDEST PUSH1 0xFF AND EQ SWAP1 POP SWAP2 SWAP1 POP JUMP JUMPDEST PUSH1 0x0 PUSH2 0x23A3 DUP3 DUP5 PUSH20 0xFFFFFFFFFFFFFFFFFFFFFFFFFFFFFFFFFFFFFFFF AND PUSH2 0x240F SWAP1 SWAP2 SWAP1 PUSH4 0xFFFFFFFF AND JUMP JUMPDEST SWAP1 POP PUSH1 0x0 DUP2 MLOAD EQ ISZERO DUP1 ISZERO PUSH2 0x23C8 JUMPI POP DUP1 DUP1 PUSH1 0x20 ADD SWAP1 MLOAD DUP2 ADD SWAP1 PUSH2 0x23C6 SWAP2 SWAP1 PUSH2 0x331A JUMP JUMPDEST ISZERO JUMPDEST ISZERO PUSH2 0x240A JUMPI DUP3 PUSH1 0x40 MLOAD PUSH32 0x5274AFE700000000000000000000000000000000000000000000000000000000 DUP2 MSTORE PUSH1 0x4 ADD PUSH2 0x2401 SWAP2 SWAP1 PUSH2 0x29E5 JUMP JUMPDEST PUSH1 0x40 MLOAD DUP1 SWAP2 SUB SWAP1 REVERT JUMPDEST POP POP POP JUMP JUMPDEST PUSH1 0x60 PUSH2 0x241D DUP4 DUP4 PUSH1 0x0 PUSH2 0x2425 JUMP JUMPDEST SWAP1 POP SWAP3 SWAP2 POP POP JUMP JUMPDEST PUSH1 0x60 DUP2 SELFBALANCE LT ISZERO PUSH2 0x246C JUMPI ADDRESS PUSH1 0x40 MLOAD PUSH32 0xCD78605900000000000000000000000000000000000000000000000000000000 DUP2 MSTORE PUSH1 0x4 ADD PUSH2 0x2463 SWAP2 SWAP1 PUSH2 0x29E5 JUMP JUMPDEST PUSH1 0x40 MLOAD DUP1 SWAP2 SUB SWAP1 REVERT JUMPDEST PUSH1 0x0 DUP1 DUP6 PUSH20 0xFFFFFFFFFFFFFFFFFFFFFFFFFFFFFFFFFFFFFFFF AND DUP5 DUP7 PUSH1 0x40 MLOAD PUSH2 0x2495 SWAP2 SWAP1 PUSH2 0x338E JUMP JUMPDEST PUSH1 0x0 PUSH1 0x40 MLOAD DUP1 DUP4 SUB DUP2 DUP6 DUP8 GAS CALL SWAP3 POP POP POP RETURNDATASIZE DUP1 PUSH1 0x0 DUP2 EQ PUSH2 0x24D2 JUMPI PUSH1 0x40 MLOAD SWAP2 POP PUSH1 0x1F NOT PUSH1 0x3F RETURNDATASIZE ADD AND DUP3 ADD PUSH1 0x40 MSTORE RETURNDATASIZE DUP3 MSTORE RETURNDATASIZE PUSH1 0x0 PUSH1 0x20 DUP5 ADD RETURNDATACOPY PUSH2 0x24D7 JUMP JUMPDEST PUSH1 0x60 SWAP2 POP JUMPDEST POP SWAP2 POP SWAP2 POP PUSH2 0x24E7 DUP7 DUP4 DUP4 PUSH2 0x24F2 JUMP JUMPDEST SWAP3 POP POP POP SWAP4 SWAP3 POP POP POP JUMP JUMPDEST PUSH1 0x60 DUP3 PUSH2 0x2507 JUMPI PUSH2 0x2502 DUP3 PUSH2 0x2581 JUMP JUMPDEST PUSH2 0x2579 JUMP JUMPDEST PUSH1 0x0 DUP3 MLOAD EQ DUP1 ISZERO PUSH2 0x252F JUMPI POP PUSH1 0x0 DUP5 PUSH20 0xFFFFFFFFFFFFFFFFFFFFFFFFFFFFFFFFFFFFFFFF AND EXTCODESIZE EQ JUMPDEST ISZERO PUSH2 0x2571 JUMPI DUP4 PUSH1 0x40 MLOAD PUSH32 0x9996B31500000000000000000000000000000000000000000000000000000000 DUP2 MSTORE PUSH1 0x4 ADD PUSH2 0x2568 SWAP2 SWAP1 PUSH2 0x29E5 JUMP JUMPDEST PUSH1 0x40 MLOAD DUP1 SWAP2 SUB SWAP1 REVERT JUMPDEST DUP2 SWAP1 POP PUSH2 0x257A JUMP JUMPDEST JUMPDEST SWAP4 SWAP3 POP POP POP JUMP JUMPDEST PUSH1 0x0 DUP2 MLOAD GT ISZERO PUSH2 0x2594 JUMPI DUP1 MLOAD DUP1 DUP3 PUSH1 0x20 ADD REVERT JUMPDEST PUSH1 0x40 MLOAD PUSH32 0x1425EA4200000000000000000000000000000000000000000000000000000000 DUP2 MSTORE PUSH1 0x4 ADD PUSH1 0x40 MLOAD DUP1 SWAP2 SUB SWAP1 REVERT JUMPDEST DUP3 DUP1 SLOAD DUP3 DUP3 SSTORE SWAP1 PUSH1 0x0 MSTORE PUSH1 0x20 PUSH1 0x0 KECCAK256 SWAP1 DUP2 ADD SWAP3 DUP3 ISZERO PUSH2 0x2602 JUMPI SWAP2 PUSH1 0x20 MUL DUP3 ADD JUMPDEST DUP3 DUP2 GT ISZERO PUSH2 0x2601 JUMPI DUP3 MLOAD DUP3 SSTORE SWAP2 PUSH1 0x20 ADD SWAP2 SWAP1 PUSH1 0x1 ADD SWAP1 PUSH2 0x25E6 JUMP JUMPDEST JUMPDEST POP SWAP1 POP PUSH2 0x260F SWAP2 SWAP1 PUSH2 0x2613 JUMP JUMPDEST POP SWAP1 JUMP JUMPDEST JUMPDEST DUP1 DUP3 GT ISZERO PUSH2 0x262C JUMPI PUSH1 0x0 DUP2 PUSH1 0x0 SWAP1 SSTORE POP PUSH1 0x1 ADD PUSH2 0x2614 JUMP JUMPDEST POP SWAP1 JUMP JUMPDEST PUSH1 0x0 DUP2 SWAP1 POP SWAP2 SWAP1 POP JUMP JUMPDEST PUSH2 0x2643 DUP2 PUSH2 0x2630 JUMP JUMPDEST DUP3 MSTORE POP POP JUMP JUMPDEST PUSH1 0x0 PUSH1 0x20 DUP3 ADD SWAP1 POP PUSH2 0x265E PUSH1 0x0 DUP4 ADD DUP5 PUSH2 0x263A JUMP JUMPDEST SWAP3 SWAP2 POP POP JUMP JUMPDEST PUSH1 0x0 DUP2 MLOAD SWAP1 POP SWAP2 SWAP1 POP JUMP JUMPDEST PUSH1 0x0 DUP3 DUP3 MSTORE PUSH1 0x20 DUP3 ADD SWAP1 POP SWAP3 SWAP2 POP POP JUMP JUMPDEST PUSH1 0x0 JUMPDEST DUP4 DUP2 LT ISZERO PUSH2 0x269E JUMPI DUP1 DUP3 ADD MLOAD DUP2 DUP5 ADD MSTORE PUSH1 0x20 DUP2 ADD SWAP1 POP PUSH2 0x2683 JUMP JUMPDEST PUSH1 0x0 DUP5 DUP5 ADD MSTORE POP POP POP POP JUMP JUMPDEST PUSH1 0x0 PUSH1 0x1F NOT PUSH1 0x1F DUP4 ADD AND SWAP1 POP SWAP2 SWAP1 POP JUMP JUMPDEST PUSH1 0x0 PUSH2 0x26C6 DUP3 PUSH2 0x2664 JUMP JUMPDEST PUSH2 0x26D0 DUP2 DUP6 PUSH2 0x266F JUMP JUMPDEST SWAP4 POP PUSH2 0x26E0 DUP2 DUP6 PUSH1 0x20 DUP7 ADD PUSH2 0x2680 JUMP JUMPDEST PUSH2 0x26E9 DUP2 PUSH2 0x26AA JUMP JUMPDEST DUP5 ADD SWAP2 POP POP SWAP3 SWAP2 POP POP JUMP JUMPDEST PUSH1 0x0 PUSH1 0x20 DUP3 ADD SWAP1 POP DUP2 DUP2 SUB PUSH1 0x0 DUP4 ADD MSTORE PUSH2 0x270E DUP2 DUP5 PUSH2 0x26BB JUMP JUMPDEST SWAP1 POP SWAP3 SWAP2 POP POP JUMP JUMPDEST PUSH1 0x0 DUP1 REVERT JUMPDEST PUSH2 0x2724 DUP2 PUSH2 0x2630 JUMP JUMPDEST DUP2 EQ PUSH2 0x272F JUMPI PUSH1 0x0 DUP1 REVERT JUMPDEST POP JUMP JUMPDEST PUSH1 0x0 DUP2 CALLDATALOAD SWAP1 POP PUSH2 0x2741 DUP2 PUSH2 0x271B JUMP JUMPDEST SWAP3 SWAP2 POP POP JUMP JUMPDEST PUSH1 0x0 PUSH1 0x20 DUP3 DUP5 SUB SLT ISZERO PUSH2 0x275D JUMPI PUSH2 0x275C PUSH2 0x2716 JUMP JUMPDEST JUMPDEST PUSH1 0x0 PUSH2 0x276B DUP5 DUP3 DUP6 ADD PUSH2 0x2732 JUMP JUMPDEST SWAP2 POP POP SWAP3 SWAP2 POP POP JUMP JUMPDEST PUSH1 0x0 PUSH20 0xFFFFFFFFFFFFFFFFFFFFFFFFFFFFFFFFFFFFFFFF DUP3 AND SWAP1 POP SWAP2 SWAP1 POP JUMP JUMPDEST PUSH1 0x0 PUSH2 0x279F DUP3 PUSH2 0x2774 JUMP JUMPDEST SWAP1 POP SWAP2 SWAP1 POP JUMP JUMPDEST PUSH2 0x27AF DUP2 PUSH2 0x2794 JUMP JUMPDEST DUP2 EQ PUSH2 0x27BA JUMPI PUSH1 0x0 DUP1 REVERT JUMPDEST POP JUMP JUMPDEST PUSH1 0x0 DUP2 CALLDATALOAD SWAP1 POP PUSH2 0x27CC DUP2 PUSH2 0x27A6 JUMP JUMPDEST SWAP3 SWAP2 POP POP JUMP JUMPDEST PUSH1 0x0 DUP1 PUSH1 0x40 DUP4 DUP6 SUB SLT ISZERO PUSH2 0x27E9 JUMPI PUSH2 0x27E8 PUSH2 0x2716 JUMP JUMPDEST JUMPDEST PUSH1 0x0 PUSH2 0x27F7 DUP6 DUP3 DUP7 ADD PUSH2 0x27BD JUMP JUMPDEST SWAP3 POP POP PUSH1 0x20 PUSH2 0x2808 DUP6 DUP3 DUP7 ADD PUSH2 0x2732 JUMP JUMPDEST SWAP2 POP POP SWAP3 POP SWAP3 SWAP1 POP JUMP JUMPDEST PUSH1 0x0 DUP2 ISZERO ISZERO SWAP1 POP SWAP2 SWAP1 POP JUMP JUMPDEST PUSH2 0x2827 DUP2 PUSH2 0x2812 JUMP JUMPDEST DUP3 MSTORE POP POP JUMP JUMPDEST PUSH1 0x0 PUSH1 0x20 DUP3 ADD SWAP1 POP PUSH2 0x2842 PUSH1 0x0 DUP4 ADD DUP5 PUSH2 0x281E JUMP JUMPDEST SWAP3 SWAP2 POP POP JUMP JUMPDEST PUSH1 0x0 DUP1 PUSH1 0x0 PUSH1 0x60 DUP5 DUP7 SUB SLT ISZERO PUSH2 0x2861 JUMPI PUSH2 0x2860 PUSH2 0x2716 JUMP JUMPDEST JUMPDEST PUSH1 0x0 PUSH2 0x286F DUP7 DUP3 DUP8 ADD PUSH2 0x27BD JUMP JUMPDEST SWAP4 POP POP PUSH1 0x20 PUSH2 0x2880 DUP7 DUP3 DUP8 ADD PUSH2 0x27BD JUMP JUMPDEST SWAP3 POP POP PUSH1 0x40 PUSH2 0x2891 DUP7 DUP3 DUP8 ADD PUSH2 0x2732 JUMP JUMPDEST SWAP2 POP POP SWAP3 POP SWAP3 POP SWAP3 JUMP JUMPDEST PUSH1 0x0 DUP1 PUSH1 0x0 DUP1 PUSH1 0x0 DUP1 PUSH1 0xC0 DUP8 DUP10 SUB SLT ISZERO PUSH2 0x28B8 JUMPI PUSH2 0x28B7 PUSH2 0x2716 JUMP JUMPDEST JUMPDEST PUSH1 0x0 PUSH2 0x28C6 DUP10 DUP3 DUP11 ADD PUSH2 0x2732 JUMP JUMPDEST SWAP7 POP POP PUSH1 0x20 PUSH2 0x28D7 DUP10 DUP3 DUP11 ADD PUSH2 0x2732 JUMP JUMPDEST SWAP6 POP POP PUSH1 0x40 PUSH2 0x28E8 DUP10 DUP3 DUP11 ADD PUSH2 0x2732 JUMP JUMPDEST SWAP5 POP POP PUSH1 0x60 PUSH2 0x28F9 DUP10 DUP3 DUP11 ADD PUSH2 0x2732 JUMP JUMPDEST SWAP4 POP POP PUSH1 0x80 PUSH2 0x290A DUP10 DUP3 DUP11 ADD PUSH2 0x2732 JUMP JUMPDEST SWAP3 POP POP PUSH1 0xA0 PUSH2 0x291B DUP10 DUP3 DUP11 ADD PUSH2 0x2732 JUMP JUMPDEST SWAP2 POP POP SWAP3 SWAP6 POP SWAP3 SWAP6 POP SWAP3 SWAP6 JUMP JUMPDEST PUSH1 0x0 DUP1 PUSH1 0x40 DUP4 DUP6 SUB SLT ISZERO PUSH2 0x293F JUMPI PUSH2 0x293E PUSH2 0x2716 JUMP JUMPDEST JUMPDEST PUSH1 0x0 PUSH2 0x294D DUP6 DUP3 DUP7 ADD PUSH2 0x2732 JUMP JUMPDEST SWAP3 POP POP PUSH1 0x20 PUSH2 0x295E DUP6 DUP3 DUP7 ADD PUSH2 0x2732 JUMP JUMPDEST SWAP2 POP POP SWAP3 POP SWAP3 SWAP1 POP JUMP JUMPDEST PUSH1 0x0 PUSH1 0x60 DUP3 ADD SWAP1 POP PUSH2 0x297D PUSH1 0x0 DUP4 ADD DUP7 PUSH2 0x263A JUMP JUMPDEST PUSH2 0x298A PUSH1 0x20 DUP4 ADD DUP6 PUSH2 0x263A JUMP JUMPDEST PUSH2 0x2997 PUSH1 0x40 DUP4 ADD DUP5 PUSH2 0x281E JUMP JUMPDEST SWAP5 SWAP4 POP POP POP POP JUMP JUMPDEST PUSH1 0x0 PUSH1 0xFF DUP3 AND SWAP1 POP SWAP2 SWAP1 POP JUMP JUMPDEST PUSH2 0x29B5 DUP2 PUSH2 0x299F JUMP JUMPDEST DUP3 MSTORE POP POP JUMP JUMPDEST PUSH1 0x0 PUSH1 0x20 DUP3 ADD SWAP1 POP PUSH2 0x29D0 PUSH1 0x0 DUP4 ADD DUP5 PUSH2 0x29AC JUMP JUMPDEST SWAP3 SWAP2 POP POP JUMP JUMPDEST PUSH2 0x29DF DUP2 PUSH2 0x2794 JUMP JUMPDEST DUP3 MSTORE POP POP JUMP JUMPDEST PUSH1 0x0 PUSH1 0x20 DUP3 ADD SWAP1 POP PUSH2 0x29FA PUSH1 0x0 DUP4 ADD DUP5 PUSH2 0x29D6 JUMP JUMPDEST SWAP3 SWAP2 POP POP JUMP JUMPDEST PUSH1 0x0 PUSH1 0x20 DUP3 DUP5 SUB SLT ISZERO PUSH2 0x2A16 JUMPI PUSH2 0x2A15 PUSH2 0x2716 JUMP JUMPDEST JUMPDEST PUSH1 0x0 PUSH2 0x2A24 DUP5 DUP3 DUP6 ADD PUSH2 0x27BD JUMP JUMPDEST SWAP2 POP POP SWAP3 SWAP2 POP POP JUMP JUMPDEST PUSH1 0x0 DUP1 PUSH1 0x40 DUP4 DUP6 SUB SLT ISZERO PUSH2 0x2A44 JUMPI PUSH2 0x2A43 PUSH2 0x2716 JUMP JUMPDEST JUMPDEST PUSH1 0x0 PUSH2 0x2A52 DUP6 DUP3 DUP7 ADD PUSH2 0x2732 JUMP JUMPDEST SWAP3 POP POP PUSH1 0x20 PUSH2 0x2A63 DUP6 DUP3 DUP7 ADD PUSH2 0x27BD JUMP JUMPDEST SWAP2 POP POP SWAP3 POP SWAP3 SWAP1 POP JUMP JUMPDEST PUSH1 0x0 DUP1 PUSH1 0x0 PUSH1 0x60 DUP5 DUP7 SUB SLT ISZERO PUSH2 0x2A86 JUMPI PUSH2 0x2A85 PUSH2 0x2716 JUMP JUMPDEST JUMPDEST PUSH1 0x0 PUSH2 0x2A94 DUP7 DUP3 DUP8 ADD PUSH2 0x2732 JUMP JUMPDEST SWAP4 POP POP PUSH1 0x20 PUSH2 0x2AA5 DUP7 DUP3 DUP8 ADD PUSH2 0x27BD JUMP JUMPDEST SWAP3 POP POP PUSH1 0x40 PUSH2 0x2AB6 DUP7 DUP3 DUP8 ADD PUSH2 0x27BD JUMP JUMPDEST SWAP2 POP POP SWAP3 POP SWAP3 POP SWAP3 JUMP JUMPDEST PUSH1 0x0 DUP2 MLOAD SWAP1 POP SWAP2 SWAP1 POP JUMP JUMPDEST PUSH1 0x0 DUP3 DUP3 MSTORE PUSH1 0x20 DUP3 ADD SWAP1 POP SWAP3 SWAP2 POP POP JUMP JUMPDEST PUSH1 0x0 DUP2 SWAP1 POP PUSH1 0x20 DUP3 ADD SWAP1 POP SWAP2 SWAP1 POP JUMP JUMPDEST PUSH2 0x2AF5 DUP2 PUSH2 0x2630 JUMP JUMPDEST DUP3 MSTORE POP POP JUMP JUMPDEST PUSH1 0x0 PUSH2 0x2B07 DUP4 DUP4 PUSH2 0x2AEC JUMP JUMPDEST PUSH1 0x20 DUP4 ADD SWAP1 POP SWAP3 SWAP2 POP POP JUMP JUMPDEST PUSH1 0x0 PUSH1 0x20 DUP3 ADD SWAP1 POP SWAP2 SWAP1 POP JUMP JUMPDEST PUSH1 0x0 PUSH2 0x2B2B DUP3 PUSH2 0x2AC0 JUMP JUMPDEST PUSH2 0x2B35 DUP2 DUP6 PUSH2 0x2ACB JUMP JUMPDEST SWAP4 POP PUSH2 0x2B40 DUP4 PUSH2 0x2ADC JUMP JUMPDEST DUP1 PUSH1 0x0 JUMPDEST DUP4 DUP2 LT ISZERO PUSH2 0x2B71 JUMPI DUP2 MLOAD PUSH2 0x2B58 DUP9 DUP3 PUSH2 0x2AFB JUMP JUMPDEST SWAP8 POP PUSH2 0x2B63 DUP4 PUSH2 0x2B13 JUMP JUMPDEST SWAP3 POP POP PUSH1 0x1 DUP2 ADD SWAP1 POP PUSH2 0x2B44 JUMP JUMPDEST POP DUP6 SWAP4 POP POP POP POP SWAP3 SWAP2 POP POP JUMP JUMPDEST PUSH1 0x0 PUSH1 0x40 DUP3 ADD SWAP1 POP DUP2 DUP2 SUB PUSH1 0x0 DUP4 ADD MSTORE PUSH2 0x2B98 DUP2 DUP6 PUSH2 0x2B20 JUMP JUMPDEST SWAP1 POP DUP2 DUP2 SUB PUSH1 0x20 DUP4 ADD MSTORE PUSH2 0x2BAC DUP2 DUP5 PUSH2 0x2B20 JUMP JUMPDEST SWAP1 POP SWAP4 SWAP3 POP POP POP JUMP JUMPDEST PUSH1 0x0 DUP1 PUSH1 0x40 DUP4 DUP6 SUB SLT ISZERO PUSH2 0x2BCC JUMPI PUSH2 0x2BCB PUSH2 0x2716 JUMP JUMPDEST JUMPDEST PUSH1 0x0 PUSH2 0x2BDA DUP6 DUP3 DUP7 ADD PUSH2 0x27BD JUMP JUMPDEST SWAP3 POP POP PUSH1 0x20 PUSH2 0x2BEB DUP6 DUP3 DUP7 ADD PUSH2 0x27BD JUMP JUMPDEST SWAP2 POP POP SWAP3 POP SWAP3 SWAP1 POP JUMP JUMPDEST PUSH1 0x0 DUP2 MLOAD SWAP1 POP PUSH2 0x2C04 DUP2 PUSH2 0x271B JUMP JUMPDEST SWAP3 SWAP2 POP POP JUMP JUMPDEST PUSH1 0x0 PUSH1 0x20 DUP3 DUP5 SUB SLT ISZERO PUSH2 0x2C20 JUMPI PUSH2 0x2C1F PUSH2 0x2716 JUMP JUMPDEST JUMPDEST PUSH1 0x0 PUSH2 0x2C2E DUP5 DUP3 DUP6 ADD PUSH2 0x2BF5 JUMP JUMPDEST SWAP2 POP POP SWAP3 SWAP2 POP POP JUMP JUMPDEST PUSH32 0x4E487B7100000000000000000000000000000000000000000000000000000000 PUSH1 0x0 MSTORE PUSH1 0x22 PUSH1 0x4 MSTORE PUSH1 0x24 PUSH1 0x0 REVERT JUMPDEST PUSH1 0x0 PUSH1 0x2 DUP3 DIV SWAP1 POP PUSH1 0x1 DUP3 AND DUP1 PUSH2 0x2C7E JUMPI PUSH1 0x7F DUP3 AND SWAP2 POP JUMPDEST PUSH1 0x20 DUP3 LT DUP2 SUB PUSH2 0x2C91 JUMPI PUSH2 0x2C90 PUSH2 0x2C37 JUMP JUMPDEST JUMPDEST POP SWAP2 SWAP1 POP JUMP JUMPDEST PUSH32 0x4E487B7100000000000000000000000000000000000000000000000000000000 PUSH1 0x0 MSTORE PUSH1 0x21 PUSH1 0x4 MSTORE PUSH1 0x24 PUSH1 0x0 REVERT JUMPDEST PUSH32 0x4E6F2072656D61696E696E672073706C69747320746F2070726F636573730000 PUSH1 0x0 DUP3 ADD MSTORE POP JUMP JUMPDEST PUSH1 0x0 PUSH2 0x2CFC PUSH1 0x1E DUP4 PUSH2 0x266F JUMP JUMPDEST SWAP2 POP PUSH2 0x2D07 DUP3 PUSH2 0x2CC6 JUMP JUMPDEST PUSH1 0x20 DUP3 ADD SWAP1 POP SWAP2 SWAP1 POP JUMP JUMPDEST PUSH1 0x0 PUSH1 0x20 DUP3 ADD SWAP1 POP DUP2 DUP2 SUB PUSH1 0x0 DUP4 ADD MSTORE PUSH2 0x2D2B DUP2 PUSH2 0x2CEF JUMP JUMPDEST SWAP1 POP SWAP2 SWAP1 POP JUMP JUMPDEST PUSH32 0x4E487B7100000000000000000000000000000000000000000000000000000000 PUSH1 0x0 MSTORE PUSH1 0x32 PUSH1 0x4 MSTORE PUSH1 0x24 PUSH1 0x0 REVERT JUMPDEST PUSH32 0x496E73756666696369656E7420616D6F756E7420666F7220746865206E657874 PUSH1 0x0 DUP3 ADD MSTORE PUSH32 0x207061796D656E74000000000000000000000000000000000000000000000000 PUSH1 0x20 DUP3 ADD MSTORE POP JUMP JUMPDEST PUSH1 0x0 PUSH2 0x2DBD PUSH1 0x28 DUP4 PUSH2 0x266F JUMP JUMPDEST SWAP2 POP PUSH2 0x2DC8 DUP3 PUSH2 0x2D61 JUMP JUMPDEST PUSH1 0x40 DUP3 ADD SWAP1 POP SWAP2 SWAP1 POP JUMP JUMPDEST PUSH1 0x0 PUSH1 0x20 DUP3 ADD SWAP1 POP DUP2 DUP2 SUB PUSH1 0x0 DUP4 ADD MSTORE PUSH2 0x2DEC DUP2 PUSH2 0x2DB0 JUMP JUMPDEST SWAP1 POP SWAP2 SWAP1 POP JUMP JUMPDEST PUSH32 0x4E657874207061796D656E74206973206E6F7420647565207965740000000000 PUSH1 0x0 DUP3 ADD MSTORE POP JUMP JUMPDEST PUSH1 0x0 PUSH2 0x2E29 PUSH1 0x1B DUP4 PUSH2 0x266F JUMP JUMPDEST SWAP2 POP PUSH2 0x2E34 DUP3 PUSH2 0x2DF3 JUMP JUMPDEST PUSH1 0x20 DUP3 ADD SWAP1 POP SWAP2 SWAP1 POP JUMP JUMPDEST PUSH1 0x0 PUSH1 0x20 DUP3 ADD SWAP1 POP DUP2 DUP2 SUB PUSH1 0x0 DUP4 ADD MSTORE PUSH2 0x2E58 DUP2 PUSH2 0x2E1C JUMP JUMPDEST SWAP1 POP SWAP2 SWAP1 POP JUMP JUMPDEST PUSH32 0x4E487B7100000000000000000000000000000000000000000000000000000000 PUSH1 0x0 MSTORE PUSH1 0x11 PUSH1 0x4 MSTORE PUSH1 0x24 PUSH1 0x0 REVERT JUMPDEST PUSH1 0x0 PUSH2 0x2E99 DUP3 PUSH2 0x2630 JUMP JUMPDEST SWAP2 POP PUSH2 0x2EA4 DUP4 PUSH2 0x2630 JUMP JUMPDEST SWAP3 POP DUP3 DUP3 ADD SWAP1 POP DUP1 DUP3 GT ISZERO PUSH2 0x2EBC JUMPI PUSH2 0x2EBB PUSH2 0x2E5F JUMP JUMPDEST JUMPDEST SWAP3 SWAP2 POP POP JUMP JUMPDEST PUSH1 0x0 PUSH2 0x2ECD DUP3 PUSH2 0x2630 JUMP JUMPDEST SWAP2 POP PUSH32 0xFFFFFFFFFFFFFFFFFFFFFFFFFFFFFFFFFFFFFFFFFFFFFFFFFFFFFFFFFFFFFFFF DUP3 SUB PUSH2 0x2EFF JUMPI PUSH2 0x2EFE PUSH2 0x2E5F JUMP JUMPDEST JUMPDEST PUSH1 0x1 DUP3 ADD SWAP1 POP SWAP2 SWAP1 POP JUMP JUMPDEST PUSH1 0x0 PUSH1 0x80 DUP3 ADD SWAP1 POP PUSH2 0x2F1F PUSH1 0x0 DUP4 ADD DUP8 PUSH2 0x263A JUMP JUMPDEST PUSH2 0x2F2C PUSH1 0x20 DUP4 ADD DUP7 PUSH2 0x263A JUMP JUMPDEST PUSH2 0x2F39 PUSH1 0x40 DUP4 ADD DUP6 PUSH2 0x263A JUMP JUMPDEST PUSH2 0x2F46 PUSH1 0x60 DUP4 ADD DUP5 PUSH2 0x263A JUMP JUMPDEST SWAP6 SWAP5 POP POP POP POP POP JUMP JUMPDEST PUSH1 0x0 PUSH2 0x2F5A DUP3 PUSH2 0x299F JUMP JUMPDEST SWAP2 POP PUSH2 0x2F65 DUP4 PUSH2 0x299F JUMP JUMPDEST SWAP3 POP DUP3 DUP3 ADD SWAP1 POP PUSH1 0xFF DUP2 GT ISZERO PUSH2 0x2F7E JUMPI PUSH2 0x2F7D PUSH2 0x2E5F JUMP JUMPDEST JUMPDEST SWAP3 SWAP2 POP POP JUMP JUMPDEST PUSH1 0x0 PUSH1 0x60 DUP3 ADD SWAP1 POP PUSH2 0x2F99 PUSH1 0x0 DUP4 ADD DUP7 PUSH2 0x29D6 JUMP JUMPDEST PUSH2 0x2FA6 PUSH1 0x20 DUP4 ADD DUP6 PUSH2 0x263A JUMP JUMPDEST PUSH2 0x2FB3 PUSH1 0x40 DUP4 ADD DUP5 PUSH2 0x263A JUMP JUMPDEST SWAP5 SWAP4 POP POP POP POP JUMP JUMPDEST PUSH1 0x0 DUP2 PUSH1 0x1 SHR SWAP1 POP SWAP2 SWAP1 POP JUMP JUMPDEST PUSH1 0x0 DUP1 DUP3 SWAP2 POP DUP4 SWAP1 POP JUMPDEST PUSH1 0x1 DUP6 GT ISZERO PUSH2 0x3012 JUMPI DUP1 DUP7 DIV DUP2 GT ISZERO PUSH2 0x2FEE JUMPI PUSH2 0x2FED PUSH2 0x2E5F JUMP JUMPDEST JUMPDEST PUSH1 0x1 DUP6 AND ISZERO PUSH2 0x2FFD JUMPI DUP1 DUP3 MUL SWAP2 POP JUMPDEST DUP1 DUP2 MUL SWAP1 POP PUSH2 0x300B DUP6 PUSH2 0x2FBB JUMP JUMPDEST SWAP5 POP PUSH2 0x2FD2 JUMP JUMPDEST SWAP5 POP SWAP5 SWAP3 POP POP POP JUMP JUMPDEST PUSH1 0x0 DUP3 PUSH2 0x302B JUMPI PUSH1 0x1 SWAP1 POP PUSH2 0x30E7 JUMP JUMPDEST DUP2 PUSH2 0x3039 JUMPI PUSH1 0x0 SWAP1 POP PUSH2 0x30E7 JUMP JUMPDEST DUP2 PUSH1 0x1 DUP2 EQ PUSH2 0x304F JUMPI PUSH1 0x2 DUP2 EQ PUSH2 0x3059 JUMPI PUSH2 0x3088 JUMP JUMPDEST PUSH1 0x1 SWAP2 POP POP PUSH2 0x30E7 JUMP JUMPDEST PUSH1 0xFF DUP5 GT ISZERO PUSH2 0x306B JUMPI PUSH2 0x306A PUSH2 0x2E5F JUMP JUMPDEST JUMPDEST DUP4 PUSH1 0x2 EXP SWAP2 POP DUP5 DUP3 GT ISZERO PUSH2 0x3082 JUMPI PUSH2 0x3081 PUSH2 0x2E5F JUMP JUMPDEST JUMPDEST POP PUSH2 0x30E7 JUMP JUMPDEST POP PUSH1 0x20 DUP4 LT PUSH2 0x133 DUP4 LT AND PUSH1 0x4E DUP5 LT PUSH1 0xB DUP5 LT AND OR ISZERO PUSH2 0x30BD JUMPI DUP3 DUP3 EXP SWAP1 POP DUP4 DUP2 GT ISZERO PUSH2 0x30B8 JUMPI PUSH2 0x30B7 PUSH2 0x2E5F JUMP JUMPDEST JUMPDEST PUSH2 0x30E7 JUMP JUMPDEST PUSH2 0x30CA DUP5 DUP5 DUP5 PUSH1 0x1 PUSH2 0x2FC8 JUMP JUMPDEST SWAP3 POP SWAP1 POP DUP2 DUP5 DIV DUP2 GT ISZERO PUSH2 0x30E1 JUMPI PUSH2 0x30E0 PUSH2 0x2E5F JUMP JUMPDEST JUMPDEST DUP2 DUP2 MUL SWAP1 POP JUMPDEST SWAP4 SWAP3 POP POP POP JUMP JUMPDEST PUSH1 0x0 PUSH2 0x30F9 DUP3 PUSH2 0x2630 JUMP JUMPDEST SWAP2 POP PUSH2 0x3104 DUP4 PUSH2 0x299F JUMP JUMPDEST SWAP3 POP PUSH2 0x3131 PUSH32 0xFFFFFFFFFFFFFFFFFFFFFFFFFFFFFFFFFFFFFFFFFFFFFFFFFFFFFFFFFFFFFFFF DUP5 DUP5 PUSH2 0x301B JUMP JUMPDEST SWAP1 POP SWAP3 SWAP2 POP POP JUMP JUMPDEST PUSH32 0x4E487B7100000000000000000000000000000000000000000000000000000000 PUSH1 0x0 MSTORE PUSH1 0x41 PUSH1 0x4 MSTORE PUSH1 0x24 PUSH1 0x0 REVERT JUMPDEST PUSH32 0x4E487B7100000000000000000000000000000000000000000000000000000000 PUSH1 0x0 MSTORE PUSH1 0x12 PUSH1 0x4 MSTORE PUSH1 0x24 PUSH1 0x0 REVERT JUMPDEST PUSH1 0x0 PUSH2 0x31A2 DUP3 PUSH2 0x2630 JUMP JUMPDEST SWAP2 POP PUSH2 0x31AD DUP4 PUSH2 0x2630 JUMP JUMPDEST SWAP3 POP DUP3 PUSH2 0x31BD JUMPI PUSH2 0x31BC PUSH2 0x3168 JUMP JUMPDEST JUMPDEST DUP3 DUP3 DIV SWAP1 POP SWAP3 SWAP2 POP POP JUMP JUMPDEST PUSH1 0x0 PUSH1 0x40 DUP3 ADD SWAP1 POP PUSH2 0x31DD PUSH1 0x0 DUP4 ADD DUP6 PUSH2 0x263A JUMP JUMPDEST PUSH2 0x31EA PUSH1 0x20 DUP4 ADD DUP5 PUSH2 0x263A JUMP JUMPDEST SWAP4 SWAP3 POP POP POP JUMP JUMPDEST PUSH32 0x496E76616C6964207061796D656E7420696E74657276616C0000000000000000 PUSH1 0x0 DUP3 ADD MSTORE POP JUMP JUMPDEST PUSH1 0x0 PUSH2 0x3227 PUSH1 0x18 DUP4 PUSH2 0x266F JUMP JUMPDEST SWAP2 POP PUSH2 0x3232 DUP3 PUSH2 0x31F1 JUMP JUMPDEST PUSH1 0x20 DUP3 ADD SWAP1 POP SWAP2 SWAP1 POP JUMP JUMPDEST PUSH1 0x0 PUSH1 0x20 DUP3 ADD SWAP1 POP DUP2 DUP2 SUB PUSH1 0x0 DUP4 ADD MSTORE PUSH2 0x3256 DUP2 PUSH2 0x321A JUMP JUMPDEST SWAP1 POP SWAP2 SWAP1 POP JUMP JUMPDEST PUSH1 0x0 PUSH1 0x40 DUP3 ADD SWAP1 POP PUSH2 0x3272 PUSH1 0x0 DUP4 ADD DUP6 PUSH2 0x29D6 JUMP JUMPDEST PUSH2 0x327F PUSH1 0x20 DUP4 ADD DUP5 PUSH2 0x263A JUMP JUMPDEST SWAP4 SWAP3 POP POP POP JUMP JUMPDEST PUSH1 0x0 PUSH1 0x60 DUP3 ADD SWAP1 POP PUSH2 0x329B PUSH1 0x0 DUP4 ADD DUP7 PUSH2 0x29D6 JUMP JUMPDEST PUSH2 0x32A8 PUSH1 0x20 DUP4 ADD DUP6 PUSH2 0x29D6 JUMP JUMPDEST PUSH2 0x32B5 PUSH1 0x40 DUP4 ADD DUP5 PUSH2 0x263A JUMP JUMPDEST SWAP5 SWAP4 POP POP POP POP JUMP JUMPDEST PUSH1 0x0 PUSH2 0x32C8 DUP3 PUSH2 0x299F JUMP JUMPDEST SWAP2 POP PUSH2 0x32D3 DUP4 PUSH2 0x299F JUMP JUMPDEST SWAP3 POP DUP3 PUSH2 0x32E3 JUMPI PUSH2 0x32E2 PUSH2 0x3168 JUMP JUMPDEST JUMPDEST DUP3 DUP3 MOD SWAP1 POP SWAP3 SWAP2 POP POP JUMP JUMPDEST PUSH2 0x32F7 DUP2 PUSH2 0x2812 JUMP JUMPDEST DUP2 EQ PUSH2 0x3302 JUMPI PUSH1 0x0 DUP1 REVERT JUMPDEST POP JUMP JUMPDEST PUSH1 0x0 DUP2 MLOAD SWAP1 POP PUSH2 0x3314 DUP2 PUSH2 0x32EE JUMP JUMPDEST SWAP3 SWAP2 POP POP JUMP JUMPDEST PUSH1 0x0 PUSH1 0x20 DUP3 DUP5 SUB SLT ISZERO PUSH2 0x3330 JUMPI PUSH2 0x332F PUSH2 0x2716 JUMP JUMPDEST JUMPDEST PUSH1 0x0 PUSH2 0x333E DUP5 DUP3 DUP6 ADD PUSH2 0x3305 JUMP JUMPDEST SWAP2 POP POP SWAP3 SWAP2 POP POP JUMP JUMPDEST PUSH1 0x0 DUP2 MLOAD SWAP1 POP SWAP2 SWAP1 POP JUMP JUMPDEST PUSH1 0x0 DUP2 SWAP1 POP SWAP3 SWAP2 POP POP JUMP JUMPDEST PUSH1 0x0 PUSH2 0x3368 DUP3 PUSH2 0x3347 JUMP JUMPDEST PUSH2 0x3372 DUP2 DUP6 PUSH2 0x3352 JUMP JUMPDEST SWAP4 POP PUSH2 0x3382 DUP2 DUP6 PUSH1 0x20 DUP7 ADD PUSH2 0x2680 JUMP JUMPDEST DUP1 DUP5 ADD SWAP2 POP POP SWAP3 SWAP2 POP POP JUMP JUMPDEST PUSH1 0x0 PUSH2 0x339A DUP3 DUP5 PUSH2 0x335D JUMP JUMPDEST SWAP2 POP DUP2 SWAP1 POP SWAP3 SWAP2 POP POP JUMP INVALID LOG2 PUSH5 0x6970667358 0x22 SLT KECCAK256 0xAA 0xCB 0xCC 0xB4 0x2B EXTCODEHASH 0xAA PUSH32 0x96B5A9D179EA1B55F9A52FBBC86BFC5CCC0A4DC9587B466B64736F6C63430008 EQ STOP CALLER "
		},
		"gasEstimates": {
			"creation": {
				"codeDepositCost": "2655000",
				"executionCost": "infinite",
				"totalCost": "infinite"
			},
			"external": {
				"_owner()": "infinite",
				"allowance(address,address)": "infinite",
				"approve(address,uint256)": "infinite",
				"asset()": "infinite",
				"balanceOf(address)": "2952",
				"convertToAssets(uint256)": "infinite",
				"convertToShares(uint256)": "infinite",
				"decimals()": "infinite",
				"deposit(uint256,address)": "infinite",
				"executeTrade(uint256,uint256,uint256,uint256,uint256,uint256)": "infinite",
				"getSplits(uint256,uint256)": "infinite",
				"liquidityProviders(uint256)": "5068",
				"maxDeposit(address)": "763",
				"maxMint(address)": "696",
				"maxRedeem(address)": "2928",
				"maxWithdraw(address)": "infinite",
				"mint(uint256,address)": "infinite",
				"name()": "infinite",
				"owner()": "2568",
				"prev()": "424",
				"previewDeposit(uint256)": "infinite",
				"previewMint(uint256)": "infinite",
				"previewRedeem(uint256)": "infinite",
				"previewWithdraw(uint256)": "infinite",
				"redeem(uint256,address,address)": "infinite",
				"renounceOwnership()": "infinite",
				"rewardsApplicable()": "2517",
				"symbol()": "infinite",
				"totalAssets()": "infinite",
				"totalSupply()": "2505",
				"trades(uint256,uint256)": "infinite",
				"transfer(address,uint256)": "infinite",
				"transferFrom(address,address,uint256)": "infinite",
				"transferOwnership(address)": "infinite",
				"withdraw()": "infinite",
				"withdraw(uint256,address,address)": "infinite"
			}
		},
		"methodIdentifiers": {
			"_owner()": "b2bdfa7b",
			"allowance(address,address)": "dd62ed3e",
			"approve(address,uint256)": "095ea7b3",
			"asset()": "38d52e0f",
			"balanceOf(address)": "70a08231",
			"convertToAssets(uint256)": "07a2d13a",
			"convertToShares(uint256)": "c6e6f592",
			"decimals()": "313ce567",
			"deposit(uint256,address)": "6e553f65",
			"executeTrade(uint256,uint256,uint256,uint256,uint256,uint256)": "27853ea9",
			"getSplits(uint256,uint256)": "c9f7927a",
			"liquidityProviders(uint256)": "96212916",
			"maxDeposit(address)": "402d267d",
			"maxMint(address)": "c63d75b6",
			"maxRedeem(address)": "d905777e",
			"maxWithdraw(address)": "ce96cb77",
			"mint(uint256,address)": "94bf804d",
			"name()": "06fdde03",
			"owner()": "8da5cb5b",
			"prev()": "479c9254",
			"previewDeposit(uint256)": "ef8b30f7",
			"previewMint(uint256)": "b3d7f6b9",
			"previewRedeem(uint256)": "4cdad506",
			"previewWithdraw(uint256)": "0a28a477",
			"redeem(uint256,address,address)": "ba087652",
			"renounceOwnership()": "715018a6",
			"rewardsApplicable()": "de9f1be3",
			"symbol()": "95d89b41",
			"totalAssets()": "01e1d114",
			"totalSupply()": "18160ddd",
			"trades(uint256,uint256)": "2a7beacc",
			"transfer(address,uint256)": "a9059cbb",
			"transferFrom(address,address,uint256)": "23b872dd",
			"transferOwnership(address)": "f2fde38b",
			"withdraw()": "3ccfd60b",
			"withdraw(uint256,address,address)": "b460af94"
		}
	},
	"abi": [
		{
			"inputs": [
				{
					"internalType": "contract ERC20",
					"name": "asset",
					"type": "address"
				}
			],
			"stateMutability": "nonpayable",
			"type": "constructor"
		},
		{
			"inputs": [
				{
					"internalType": "address",
					"name": "target",
					"type": "address"
				}
			],
			"name": "AddressEmptyCode",
			"type": "error"
		},
		{
			"inputs": [
				{
					"internalType": "address",
					"name": "account",
					"type": "address"
				}
			],
			"name": "AddressInsufficientBalance",
			"type": "error"
		},
		{
			"inputs": [
				{
					"internalType": "address",
					"name": "spender",
					"type": "address"
				},
				{
					"internalType": "uint256",
					"name": "allowance",
					"type": "uint256"
				},
				{
					"internalType": "uint256",
					"name": "needed",
					"type": "uint256"
				}
			],
			"name": "ERC20InsufficientAllowance",
			"type": "error"
		},
		{
			"inputs": [
				{
					"internalType": "address",
					"name": "sender",
					"type": "address"
				},
				{
					"internalType": "uint256",
					"name": "balance",
					"type": "uint256"
				},
				{
					"internalType": "uint256",
					"name": "needed",
					"type": "uint256"
				}
			],
			"name": "ERC20InsufficientBalance",
			"type": "error"
		},
		{
			"inputs": [
				{
					"internalType": "address",
					"name": "approver",
					"type": "address"
				}
			],
			"name": "ERC20InvalidApprover",
			"type": "error"
		},
		{
			"inputs": [
				{
					"internalType": "address",
					"name": "receiver",
					"type": "address"
				}
			],
			"name": "ERC20InvalidReceiver",
			"type": "error"
		},
		{
			"inputs": [
				{
					"internalType": "address",
					"name": "sender",
					"type": "address"
				}
			],
			"name": "ERC20InvalidSender",
			"type": "error"
		},
		{
			"inputs": [
				{
					"internalType": "address",
					"name": "spender",
					"type": "address"
				}
			],
			"name": "ERC20InvalidSpender",
			"type": "error"
		},
		{
			"inputs": [
				{
					"internalType": "address",
					"name": "receiver",
					"type": "address"
				},
				{
					"internalType": "uint256",
					"name": "assets",
					"type": "uint256"
				},
				{
					"internalType": "uint256",
					"name": "max",
					"type": "uint256"
				}
			],
			"name": "ERC4626ExceededMaxDeposit",
			"type": "error"
		},
		{
			"inputs": [
				{
					"internalType": "address",
					"name": "receiver",
					"type": "address"
				},
				{
					"internalType": "uint256",
					"name": "shares",
					"type": "uint256"
				},
				{
					"internalType": "uint256",
					"name": "max",
					"type": "uint256"
				}
			],
			"name": "ERC4626ExceededMaxMint",
			"type": "error"
		},
		{
			"inputs": [
				{
					"internalType": "address",
					"name": "owner",
					"type": "address"
				},
				{
					"internalType": "uint256",
					"name": "shares",
					"type": "uint256"
				},
				{
					"internalType": "uint256",
					"name": "max",
					"type": "uint256"
				}
			],
			"name": "ERC4626ExceededMaxRedeem",
			"type": "error"
		},
		{
			"inputs": [
				{
					"internalType": "address",
					"name": "owner",
					"type": "address"
				},
				{
					"internalType": "uint256",
					"name": "assets",
					"type": "uint256"
				},
				{
					"internalType": "uint256",
					"name": "max",
					"type": "uint256"
				}
			],
			"name": "ERC4626ExceededMaxWithdraw",
			"type": "error"
		},
		{
			"inputs": [],
			"name": "FailedInnerCall",
			"type": "error"
		},
		{
			"inputs": [],
			"name": "MathOverflowedMulDiv",
			"type": "error"
		},
		{
			"inputs": [
				{
					"internalType": "address",
					"name": "owner",
					"type": "address"
				}
			],
			"name": "OwnableInvalidOwner",
			"type": "error"
		},
		{
			"inputs": [
				{
					"internalType": "address",
					"name": "account",
					"type": "address"
				}
			],
			"name": "OwnableUnauthorizedAccount",
			"type": "error"
		},
		{
			"inputs": [
				{
					"internalType": "address",
					"name": "token",
					"type": "address"
				}
			],
			"name": "SafeERC20FailedOperation",
			"type": "error"
		},
		{
			"anonymous": false,
			"inputs": [
				{
					"indexed": true,
					"internalType": "address",
					"name": "owner",
					"type": "address"
				},
				{
					"indexed": true,
					"internalType": "address",
					"name": "spender",
					"type": "address"
				},
				{
					"indexed": false,
					"internalType": "uint256",
					"name": "value",
					"type": "uint256"
				}
			],
			"name": "Approval",
			"type": "event"
		},
		{
			"anonymous": false,
			"inputs": [
				{
					"indexed": true,
					"internalType": "address",
					"name": "sender",
					"type": "address"
				},
				{
					"indexed": true,
					"internalType": "address",
					"name": "owner",
					"type": "address"
				},
				{
					"indexed": false,
					"internalType": "uint256",
					"name": "assets",
					"type": "uint256"
				},
				{
					"indexed": false,
					"internalType": "uint256",
					"name": "shares",
					"type": "uint256"
				}
			],
			"name": "Deposit",
			"type": "event"
		},
		{
			"anonymous": false,
			"inputs": [
				{
					"indexed": true,
					"internalType": "address",
					"name": "previousOwner",
					"type": "address"
				},
				{
					"indexed": true,
					"internalType": "address",
					"name": "newOwner",
					"type": "address"
				}
			],
			"name": "OwnershipTransferred",
			"type": "event"
		},
		{
			"anonymous": false,
			"inputs": [
				{
					"indexed": false,
					"internalType": "uint256",
					"name": "campaignID",
					"type": "uint256"
				},
				{
					"indexed": false,
					"internalType": "uint256",
					"name": "tradeId",
					"type": "uint256"
				},
				{
					"indexed": false,
					"internalType": "uint256",
					"name": "totalShares",
					"type": "uint256"
				},
				{
					"indexed": false,
					"internalType": "uint256",
					"name": "lastInterval",
					"type": "uint256"
				}
			],
			"name": "TradeExecuted",
			"type": "event"
		},
		{
			"anonymous": false,
			"inputs": [
				{
					"indexed": true,
					"internalType": "address",
					"name": "from",
					"type": "address"
				},
				{
					"indexed": true,
					"internalType": "address",
					"name": "to",
					"type": "address"
				},
				{
					"indexed": false,
					"internalType": "uint256",
					"name": "value",
					"type": "uint256"
				}
			],
			"name": "Transfer",
			"type": "event"
		},
		{
			"anonymous": false,
			"inputs": [
				{
					"indexed": true,
					"internalType": "address",
					"name": "sender",
					"type": "address"
				},
				{
					"indexed": true,
					"internalType": "address",
					"name": "receiver",
					"type": "address"
				},
				{
					"indexed": true,
					"internalType": "address",
					"name": "owner",
					"type": "address"
				},
				{
					"indexed": false,
					"internalType": "uint256",
					"name": "assets",
					"type": "uint256"
				},
				{
					"indexed": false,
					"internalType": "uint256",
					"name": "shares",
					"type": "uint256"
				}
			],
			"name": "Withdraw",
			"type": "event"
		},
		{
			"inputs": [],
			"name": "_owner",
			"outputs": [
				{
					"internalType": "address",
					"name": "",
					"type": "address"
				}
			],
			"stateMutability": "view",
			"type": "function"
		},
		{
			"inputs": [
				{
					"internalType": "address",
					"name": "owner",
					"type": "address"
				},
				{
					"internalType": "address",
					"name": "spender",
					"type": "address"
				}
			],
			"name": "allowance",
			"outputs": [
				{
					"internalType": "uint256",
					"name": "",
					"type": "uint256"
				}
			],
			"stateMutability": "view",
			"type": "function"
		},
		{
			"inputs": [
				{
					"internalType": "address",
					"name": "spender",
					"type": "address"
				},
				{
					"internalType": "uint256",
					"name": "value",
					"type": "uint256"
				}
			],
			"name": "approve",
			"outputs": [
				{
					"internalType": "bool",
					"name": "",
					"type": "bool"
				}
			],
			"stateMutability": "nonpayable",
			"type": "function"
		},
		{
			"inputs": [],
			"name": "asset",
			"outputs": [
				{
					"internalType": "address",
					"name": "",
					"type": "address"
				}
			],
			"stateMutability": "view",
			"type": "function"
		},
		{
			"inputs": [
				{
					"internalType": "address",
					"name": "account",
					"type": "address"
				}
			],
			"name": "balanceOf",
			"outputs": [
				{
					"internalType": "uint256",
					"name": "",
					"type": "uint256"
				}
			],
			"stateMutability": "view",
			"type": "function"
		},
		{
			"inputs": [
				{
					"internalType": "uint256",
					"name": "shares",
					"type": "uint256"
				}
			],
			"name": "convertToAssets",
			"outputs": [
				{
					"internalType": "uint256",
					"name": "",
					"type": "uint256"
				}
			],
			"stateMutability": "view",
			"type": "function"
		},
		{
			"inputs": [
				{
					"internalType": "uint256",
					"name": "assets",
					"type": "uint256"
				}
			],
			"name": "convertToShares",
			"outputs": [
				{
					"internalType": "uint256",
					"name": "",
					"type": "uint256"
				}
			],
			"stateMutability": "view",
			"type": "function"
		},
		{
			"inputs": [],
			"name": "decimals",
			"outputs": [
				{
					"internalType": "uint8",
					"name": "",
					"type": "uint8"
				}
			],
			"stateMutability": "view",
			"type": "function"
		},
		{
			"inputs": [
				{
					"internalType": "uint256",
					"name": "assets",
					"type": "uint256"
				},
				{
					"internalType": "address",
					"name": "receiver",
					"type": "address"
				}
			],
			"name": "deposit",
			"outputs": [
				{
					"internalType": "uint256",
					"name": "",
					"type": "uint256"
				}
			],
			"stateMutability": "nonpayable",
			"type": "function"
		},
		{
			"inputs": [
				{
					"internalType": "uint256",
					"name": "campaignID",
					"type": "uint256"
				},
				{
					"internalType": "uint256",
					"name": "tradeId",
					"type": "uint256"
				},
				{
					"internalType": "uint256",
					"name": "splitsCount",
					"type": "uint256"
				},
				{
					"internalType": "uint256",
					"name": "interval",
					"type": "uint256"
				},
				{
					"internalType": "uint256",
					"name": "total",
					"type": "uint256"
				},
				{
					"internalType": "uint256",
					"name": "paymentAmount",
					"type": "uint256"
				}
			],
			"name": "executeTrade",
			"outputs": [],
			"stateMutability": "nonpayable",
			"type": "function"
		},
		{
			"inputs": [
				{
					"internalType": "uint256",
					"name": "_campaignID",
					"type": "uint256"
				},
				{
					"internalType": "uint256",
					"name": "_tradeId",
					"type": "uint256"
				}
			],
			"name": "getSplits",
			"outputs": [
				{
					"internalType": "uint256[]",
					"name": "amounts",
					"type": "uint256[]"
				},
				{
					"internalType": "uint256[]",
					"name": "dueDates",
					"type": "uint256[]"
				}
			],
			"stateMutability": "view",
			"type": "function"
		},
		{
			"inputs": [
				{
					"internalType": "uint256",
					"name": "",
					"type": "uint256"
				}
			],
			"name": "liquidityProviders",
			"outputs": [
				{
					"internalType": "address",
					"name": "",
					"type": "address"
				}
			],
			"stateMutability": "view",
			"type": "function"
		},
		{
			"inputs": [
				{
					"internalType": "address",
					"name": "",
					"type": "address"
				}
			],
			"name": "maxDeposit",
			"outputs": [
				{
					"internalType": "uint256",
					"name": "",
					"type": "uint256"
				}
			],
			"stateMutability": "view",
			"type": "function"
		},
		{
			"inputs": [
				{
					"internalType": "address",
					"name": "",
					"type": "address"
				}
			],
			"name": "maxMint",
			"outputs": [
				{
					"internalType": "uint256",
					"name": "",
					"type": "uint256"
				}
			],
			"stateMutability": "view",
			"type": "function"
		},
		{
			"inputs": [
				{
					"internalType": "address",
					"name": "owner",
					"type": "address"
				}
			],
			"name": "maxRedeem",
			"outputs": [
				{
					"internalType": "uint256",
					"name": "",
					"type": "uint256"
				}
			],
			"stateMutability": "view",
			"type": "function"
		},
		{
			"inputs": [
				{
					"internalType": "address",
					"name": "owner",
					"type": "address"
				}
			],
			"name": "maxWithdraw",
			"outputs": [
				{
					"internalType": "uint256",
					"name": "",
					"type": "uint256"
				}
			],
			"stateMutability": "view",
			"type": "function"
		},
		{
			"inputs": [
				{
					"internalType": "uint256",
					"name": "shares",
					"type": "uint256"
				},
				{
					"internalType": "address",
					"name": "receiver",
					"type": "address"
				}
			],
			"name": "mint",
			"outputs": [
				{
					"internalType": "uint256",
					"name": "",
					"type": "uint256"
				}
			],
			"stateMutability": "nonpayable",
			"type": "function"
		},
		{
			"inputs": [],
			"name": "name",
			"outputs": [
				{
					"internalType": "string",
					"name": "",
					"type": "string"
				}
			],
			"stateMutability": "view",
			"type": "function"
		},
		{
			"inputs": [],
			"name": "owner",
			"outputs": [
				{
					"internalType": "address",
					"name": "",
					"type": "address"
				}
			],
			"stateMutability": "view",
			"type": "function"
		},
		{
			"inputs": [],
			"name": "prev",
			"outputs": [
				{
					"internalType": "uint256",
					"name": "maxAssets",
					"type": "uint256"
				}
			],
			"stateMutability": "view",
			"type": "function"
		},
		{
			"inputs": [
				{
					"internalType": "uint256",
					"name": "assets",
					"type": "uint256"
				}
			],
			"name": "previewDeposit",
			"outputs": [
				{
					"internalType": "uint256",
					"name": "",
					"type": "uint256"
				}
			],
			"stateMutability": "view",
			"type": "function"
		},
		{
			"inputs": [
				{
					"internalType": "uint256",
					"name": "shares",
					"type": "uint256"
				}
			],
			"name": "previewMint",
			"outputs": [
				{
					"internalType": "uint256",
					"name": "",
					"type": "uint256"
				}
			],
			"stateMutability": "view",
			"type": "function"
		},
		{
			"inputs": [
				{
					"internalType": "uint256",
					"name": "shares",
					"type": "uint256"
				}
			],
			"name": "previewRedeem",
			"outputs": [
				{
					"internalType": "uint256",
					"name": "",
					"type": "uint256"
				}
			],
			"stateMutability": "view",
			"type": "function"
		},
		{
			"inputs": [
				{
					"internalType": "uint256",
					"name": "assets",
					"type": "uint256"
				}
			],
			"name": "previewWithdraw",
			"outputs": [
				{
					"internalType": "uint256",
					"name": "",
					"type": "uint256"
				}
			],
			"stateMutability": "view",
			"type": "function"
		},
		{
			"inputs": [
				{
					"internalType": "uint256",
					"name": "shares",
					"type": "uint256"
				},
				{
					"internalType": "address",
					"name": "receiver",
					"type": "address"
				},
				{
					"internalType": "address",
					"name": "owner",
					"type": "address"
				}
			],
			"name": "redeem",
			"outputs": [
				{
					"internalType": "uint256",
					"name": "",
					"type": "uint256"
				}
			],
			"stateMutability": "nonpayable",
			"type": "function"
		},
		{
			"inputs": [],
			"name": "renounceOwnership",
			"outputs": [],
			"stateMutability": "nonpayable",
			"type": "function"
		},
		{
			"inputs": [],
			"name": "rewardsApplicable",
			"outputs": [
				{
					"internalType": "uint256",
					"name": "",
					"type": "uint256"
				}
			],
			"stateMutability": "view",
			"type": "function"
		},
		{
			"inputs": [],
			"name": "symbol",
			"outputs": [
				{
					"internalType": "string",
					"name": "",
					"type": "string"
				}
			],
			"stateMutability": "view",
			"type": "function"
		},
		{
			"inputs": [],
			"name": "totalAssets",
			"outputs": [
				{
					"internalType": "uint256",
					"name": "",
					"type": "uint256"
				}
			],
			"stateMutability": "view",
			"type": "function"
		},
		{
			"inputs": [],
			"name": "totalSupply",
			"outputs": [
				{
					"internalType": "uint256",
					"name": "",
					"type": "uint256"
				}
			],
			"stateMutability": "view",
			"type": "function"
		},
		{
			"inputs": [
				{
					"internalType": "uint256",
					"name": "",
					"type": "uint256"
				},
				{
					"internalType": "uint256",
					"name": "",
					"type": "uint256"
				}
			],
			"name": "trades",
			"outputs": [
				{
					"internalType": "uint256",
					"name": "total",
					"type": "uint256"
				},
				{
					"internalType": "uint256",
					"name": "settled",
					"type": "uint256"
				},
				{
					"internalType": "bool",
					"name": "closed",
					"type": "bool"
				}
			],
			"stateMutability": "view",
			"type": "function"
		},
		{
			"inputs": [
				{
					"internalType": "address",
					"name": "to",
					"type": "address"
				},
				{
					"internalType": "uint256",
					"name": "value",
					"type": "uint256"
				}
			],
			"name": "transfer",
			"outputs": [
				{
					"internalType": "bool",
					"name": "",
					"type": "bool"
				}
			],
			"stateMutability": "nonpayable",
			"type": "function"
		},
		{
			"inputs": [
				{
					"internalType": "address",
					"name": "from",
					"type": "address"
				},
				{
					"internalType": "address",
					"name": "to",
					"type": "address"
				},
				{
					"internalType": "uint256",
					"name": "value",
					"type": "uint256"
				}
			],
			"name": "transferFrom",
			"outputs": [
				{
					"internalType": "bool",
					"name": "",
					"type": "bool"
				}
			],
			"stateMutability": "nonpayable",
			"type": "function"
		},
		{
			"inputs": [
				{
					"internalType": "address",
					"name": "newOwner",
					"type": "address"
				}
			],
			"name": "transferOwnership",
			"outputs": [],
			"stateMutability": "nonpayable",
			"type": "function"
		},
		{
			"inputs": [],
			"name": "withdraw",
			"outputs": [
				{
					"internalType": "uint256",
					"name": "",
					"type": "uint256"
				}
			],
			"stateMutability": "nonpayable",
			"type": "function"
		},
		{
			"inputs": [
				{
					"internalType": "uint256",
					"name": "assets",
					"type": "uint256"
				},
				{
					"internalType": "address",
					"name": "receiver",
					"type": "address"
				},
				{
					"internalType": "address",
					"name": "owner",
					"type": "address"
				}
			],
			"name": "withdraw",
			"outputs": [
				{
					"internalType": "uint256",
					"name": "",
					"type": "uint256"
				}
			],
			"stateMutability": "nonpayable",
			"type": "function"
		}
	]
}