{
  "_format": "hh-sol-artifact-1",
  "contractName": "KiteMain",
  "sourceName": "contracts/KiteMain.sol",
  "abi": [
    {
      "inputs": [
        {
          "internalType": "address",
          "name": "router",
          "type": "address"
        }
      ],
      "stateMutability": "nonpayable",
      "type": "constructor"
    },
    {
      "inputs": [
        {
          "internalType": "address",
          "name": "router",
          "type": "address"
        }
      ],
      "name": "InvalidRouter",
      "type": "error"
    },
    {
      "anonymous": false,
      "inputs": [
        {
          "indexed": false,
          "internalType": "uint256",
          "name": "campaignId",
          "type": "uint256"
        },
        {
          "indexed": true,
          "internalType": "address",
          "name": "campaignAddress",
          "type": "address"
        }
      ],
      "name": "CampaignCreated",
      "type": "event"
    },
    {
      "inputs": [],
      "name": "admin",
      "outputs": [
        {
          "internalType": "address",
          "name": "",
          "type": "address"
        }
      ],
      "stateMutability": "view",
      "type": "function"
    },
    {
      "inputs": [
        {
          "internalType": "uint256",
          "name": "",
          "type": "uint256"
        }
      ],
      "name": "arbitrages",
      "outputs": [
        {
          "internalType": "address",
          "name": "userToLiquidate",
          "type": "address"
        },
        {
          "internalType": "uint256",
          "name": "amountToLiquidate",
          "type": "uint256"
        }
      ],
      "stateMutability": "view",
      "type": "function"
    },
    {
      "inputs": [],
      "name": "campaignIdCounter",
      "outputs": [
        {
          "internalType": "uint256",
          "name": "",
          "type": "uint256"
        }
      ],
      "stateMutability": "view",
      "type": "function"
    },
    {
      "inputs": [
        {
          "internalType": "address",
          "name": "",
          "type": "address"
        },
        {
          "internalType": "uint256",
          "name": "",
          "type": "uint256"
        }
      ],
      "name": "campaignIdsByAddress",
      "outputs": [
        {
          "internalType": "uint256",
          "name": "",
          "type": "uint256"
        }
      ],
      "stateMutability": "view",
      "type": "function"
    },
    {
      "inputs": [
        {
          "internalType": "uint256",
          "name": "",
          "type": "uint256"
        }
      ],
      "name": "campaigns",
      "outputs": [
        {
          "internalType": "uint256",
          "name": "campaignId",
          "type": "uint256"
        },
        {
          "internalType": "address",
          "name": "vaultAddress",
          "type": "address"
        },
        {
          "internalType": "uint256",
          "name": "interestRate",
          "type": "uint256"
        },
        {
          "internalType": "enum KiteMain.PaymentInterval",
          "name": "paymentInterval",
          "type": "uint8"
        },
        {
          "internalType": "uint256",
          "name": "splitsCount",
          "type": "uint256"
        }
      ],
      "stateMutability": "view",
      "type": "function"
    },
    {
      "inputs": [
        {
          "components": [
            {
              "internalType": "bytes32",
              "name": "messageId",
              "type": "bytes32"
            },
            {
              "internalType": "uint64",
              "name": "sourceChainSelector",
              "type": "uint64"
            },
            {
              "internalType": "bytes",
              "name": "sender",
              "type": "bytes"
            },
            {
              "internalType": "bytes",
              "name": "data",
              "type": "bytes"
            },
            {
              "components": [
                {
                  "internalType": "address",
                  "name": "token",
                  "type": "address"
                },
                {
                  "internalType": "uint256",
                  "name": "amount",
                  "type": "uint256"
                }
              ],
              "internalType": "struct Client.EVMTokenAmount[]",
              "name": "destTokenAmounts",
              "type": "tuple[]"
            }
          ],
          "internalType": "struct Client.Any2EVMMessage",
          "name": "message",
          "type": "tuple"
        }
      ],
      "name": "ccipReceive",
      "outputs": [],
      "stateMutability": "nonpayable",
      "type": "function"
    },
    {
      "inputs": [
        {
          "internalType": "bytes",
          "name": "",
          "type": "bytes"
        }
      ],
      "name": "checkUpkeep",
      "outputs": [
        {
          "internalType": "bool",
          "name": "upkeepNeeded",
          "type": "bool"
        },
        {
          "internalType": "bytes",
          "name": "",
          "type": "bytes"
        }
      ],
      "stateMutability": "view",
      "type": "function"
    },
    {
      "inputs": [
        {
          "internalType": "uint256",
          "name": "_interestRate",
          "type": "uint256"
        },
        {
          "internalType": "address",
          "name": "_vaultAddress",
          "type": "address"
        },
        {
          "internalType": "enum KiteMain.PaymentInterval",
          "name": "_paymentInterval",
          "type": "uint8"
        },
        {
          "internalType": "uint256",
          "name": "_splitsCount",
          "type": "uint256"
        }
      ],
      "name": "createCampaign",
      "outputs": [],
      "stateMutability": "nonpayable",
      "type": "function"
    },
    {
      "inputs": [],
      "name": "getRouter",
      "outputs": [
        {
          "internalType": "address",
          "name": "",
          "type": "address"
        }
      ],
      "stateMutability": "view",
      "type": "function"
    },
    {
      "inputs": [
        {
          "internalType": "uint256",
          "name": "campaignID",
          "type": "uint256"
        },
        {
          "internalType": "uint256",
          "name": "total",
          "type": "uint256"
        },
        {
          "internalType": "uint256",
          "name": "amount",
          "type": "uint256"
        }
      ],
      "name": "initiateTrade",
      "outputs": [],
      "stateMutability": "nonpayable",
      "type": "function"
    },
    {
      "inputs": [],
      "name": "interval",
      "outputs": [
        {
          "internalType": "uint256",
          "name": "",
          "type": "uint256"
        }
      ],
      "stateMutability": "view",
      "type": "function"
    },
    {
      "inputs": [],
      "name": "lastTimeStamp",
      "outputs": [
        {
          "internalType": "uint256",
          "name": "",
          "type": "uint256"
        }
      ],
      "stateMutability": "view",
      "type": "function"
    },
    {
      "inputs": [
        {
          "internalType": "uint256",
          "name": "campaignID",
          "type": "uint256"
        },
        {
          "internalType": "uint256",
          "name": "tradeID",
          "type": "uint256"
        },
        {
          "internalType": "address",
          "name": "userToLiquidate",
          "type": "address"
        },
        {
          "internalType": "uint256",
          "name": "amountToLiquidate",
          "type": "uint256"
        }
      ],
      "name": "liquidate",
      "outputs": [],
      "stateMutability": "nonpayable",
      "type": "function"
    },
    {
      "inputs": [
        {
          "internalType": "bytes",
          "name": "",
          "type": "bytes"
        }
      ],
      "name": "performUpkeep",
      "outputs": [],
      "stateMutability": "nonpayable",
      "type": "function"
    },
    {
      "inputs": [
        {
          "internalType": "bytes4",
          "name": "interfaceId",
          "type": "bytes4"
        }
      ],
      "name": "supportsInterface",
      "outputs": [
        {
          "internalType": "bool",
          "name": "",
          "type": "bool"
        }
      ],
      "stateMutability": "pure",
      "type": "function"
    }
  ],
  "bytecode": "0x60c06040523480156200001157600080fd5b506040516200258e3803806200258e83398181016040528101906200003791906200024a565b80736ae43d3271ff6888e7fc43fd7321a503ff7389517388233eec48594421fa925d614b3a94a2ddc19a08816000806101000a81548173ffffffffffffffffffffffffffffffffffffffff021916908373ffffffffffffffffffffffffffffffffffffffff16021790555080600160006101000a81548173ffffffffffffffffffffffffffffffffffffffff021916908373ffffffffffffffffffffffffffffffffffffffff1602179055505050600073ffffffffffffffffffffffffffffffffffffffff168173ffffffffffffffffffffffffffffffffffffffff16036200015a5760006040517fd7f733340000000000000000000000000000000000000000000000000000000081526004016200015191906200028d565b60405180910390fd5b8073ffffffffffffffffffffffffffffffffffffffff1660808173ffffffffffffffffffffffffffffffffffffffff168152505050603c60a0818152505033600260006101000a81548173ffffffffffffffffffffffffffffffffffffffff021916908373ffffffffffffffffffffffffffffffffffffffff16021790555050620002aa565b600080fd5b600073ffffffffffffffffffffffffffffffffffffffff82169050919050565b60006200021282620001e5565b9050919050565b620002248162000205565b81146200023057600080fd5b50565b600081519050620002448162000219565b92915050565b600060208284031215620002635762000262620001e0565b5b6000620002738482850162000233565b91505092915050565b620002878162000205565b82525050565b6000602082019050620002a460008301846200027c565b92915050565b60805160a0516122a9620002e5600039600081816104550152818161057601526107de0152600081816105c001526108cb01526122a96000f3fe608060405234801561001057600080fd5b50600436106100f55760003560e01c806385572ffb11610097578063b0f479a111610066578063b0f479a11461028a578063f28cce89146102a8578063f851a440146102d8578063f9d5201c146102f6576100f5565b806385572ffb1461021857806394764c6514610234578063947a36fb146102505780639576ac8b1461026e576100f5565b80633f3b3b27116100d35780633f3b3b271461017c5780634585e33b1461019a578063676c4904146101b65780636e04ff0d146101e7576100f5565b806301ffc9a7146100fa578063141961bc1461012a5780632e6186761461015e575b600080fd5b610114600480360381019061010f91906110cb565b610312565b6040516101219190611113565b60405180910390f35b610144600480360381019061013f9190611164565b6103e4565b604051610155959493929190611258565b60405180910390f35b610166610447565b60405161017391906112ab565b60405180910390f35b61018461044d565b60405161019191906112ab565b60405180910390f35b6101b460048036038101906101af919061132b565b610453565b005b6101d060048036038101906101cb9190611164565b61051c565b6040516101de929190611378565b60405180910390f35b61020160048036038101906101fc919061132b565b610570565b60405161020f929190611431565b60405180910390f35b610232600480360381019061022d9190611485565b6105be565b005b61024e600480360381019061024991906114ce565b610663565b005b6102586107dc565b60405161026591906112ab565b60405180910390f35b6102886004803603810190610283919061154d565b610800565b005b6102926108c7565b60405161029f91906115b4565b60405180910390f35b6102c260048036038101906102bd91906115cf565b6108ef565b6040516102cf91906112ab565b60405180910390f35b6102e0610920565b6040516102ed91906115b4565b60405180910390f35b610310600480360381019061030b9190611634565b610946565b005b60007f85572ffb000000000000000000000000000000000000000000000000000000007bffffffffffffffffffffffffffffffffffffffffffffffffffffffff1916827bffffffffffffffffffffffffffffffffffffffffffffffffffffffff191614806103dd57507f01ffc9a7000000000000000000000000000000000000000000000000000000007bffffffffffffffffffffffffffffffffffffffffffffffffffffffff1916827bffffffffffffffffffffffffffffffffffffffffffffffffffffffff1916145b9050919050565b60086020528060005260406000206000915090508060000154908060010160009054906101000a900473ffffffffffffffffffffffffffffffffffffffff16908060020154908060030160009054906101000a900460ff16908060040154905085565b60035481565b60045481565b7f00000000000000000000000000000000000000000000000000000000000000006004544261048291906116ca565b11801561049457506000600580549050115b1561051857600060058054905067ffffffffffffffff8111156104ba576104b96116fe565b5b6040519080825280602002602001820160405280156104e85781602001602082028036833780820191505090505b50905060005b60058054905081101561050e5780806105069061172d565b9150506104ee565b5042600481905550505b5050565b6005818154811061052c57600080fd5b90600052602060002090600202016000915090508060000160009054906101000a900473ffffffffffffffffffffffffffffffffffffffff16908060010154905082565b600060607f0000000000000000000000000000000000000000000000000000000000000000600454426105a391906116ca565b1180156105b557506000600580549050115b91509250929050565b7f000000000000000000000000000000000000000000000000000000000000000073ffffffffffffffffffffffffffffffffffffffff163373ffffffffffffffffffffffffffffffffffffffff161461064e57336040517fd7f7333400000000000000000000000000000000000000000000000000000000815260040161064591906115b4565b60405180910390fd5b6106608161065b90611ae9565b6109de565b50565b6000600160066000868152602001908152602001600020546106859190611afc565b9050610692848284610a92565b8210156106d4576040517f08c379a00000000000000000000000000000000000000000000000000000000081526004016106cb90611bb3565b60405180910390fd5b600060086000868152602001908152602001600020905060008160010160009054906101000a900473ffffffffffffffffffffffffffffffffffffffff1690508261071e9061172d565b92508260066000888152602001908152602001600020819055508073ffffffffffffffffffffffffffffffffffffffff166327853ea9878585600401548660030160009054906101000a900460ff16600281111561077f5761077e6111e1565b5b8a8a6040518763ffffffff1660e01b81526004016107a296959493929190611bd3565b600060405180830381600087803b1580156107bc57600080fd5b505af11580156107d0573d6000803e3d6000fd5b50505050505050505050565b7f000000000000000000000000000000000000000000000000000000000000000081565b600060086000868152602001908152602001600020905060008160010160009054906101000a900473ffffffffffffffffffffffffffffffffffffffff16905060008173ffffffffffffffffffffffffffffffffffffffff166338d52e0f6040518163ffffffff1660e01b8152600401602060405180830381865afa15801561088d573d6000803e3d6000fd5b505050506040513d601f19601f820116820180604052508101906108b19190611c49565b90506108be818686610c1c565b50505050505050565b60007f0000000000000000000000000000000000000000000000000000000000000000905090565b6007602052816000526040600020818154811061090b57600080fd5b90600052602060002001600091509150505481565b600260009054906101000a900473ffffffffffffffffffffffffffffffffffffffff1681565b60008411610989576040517f08c379a000000000000000000000000000000000000000000000000000000000815260040161098090611ce8565b60405180910390fd5b600081116109cc576040517f08c379a00000000000000000000000000000000000000000000000000000000081526004016109c390611d7a565b60405180910390fd5b6109d884848484610e37565b50505050565b6000806000806109f1856060015161100b565b935093509350935060008411610a3c576040517f08c379a0000000000000000000000000000000000000000000000000000000008152600401610a3390611ce8565b60405180910390fd5b60008111610a7f576040517f08c379a0000000000000000000000000000000000000000000000000000000008152600401610a7690611d7a565b60405180910390fd5b610a8b84848484610e37565b5050505050565b6000806008600086815260200190815260200160002090506000808260010160009054906101000a900473ffffffffffffffffffffffffffffffffffffffff1673ffffffffffffffffffffffffffffffffffffffff1663c9f7927a88886040518363ffffffff1660e01b8152600401610b0c929190611d9a565b600060405180830381865afa158015610b29573d6000803e3d6000fd5b505050506040513d6000823e3d601f19601f82011682018060405250810190610b529190611e9b565b915091506000815103610b88578260040154858460020154610b749190611f13565b610b7e9190611f84565b9350505050610c15565b6000825111610bcc576040517f08c379a0000000000000000000000000000000000000000000000000000000008152600401610bc390612001565b60405180910390fd5b600082600081518110610be257610be1612021565b5b60200260200101519050600082600081518110610c0257610c01612021565b5b6020026020010151905081955050505050505b9392505050565b6000839050818173ffffffffffffffffffffffffffffffffffffffff166370a08231306040518263ffffffff1660e01b8152600401610c5b91906115b4565b602060405180830381865afa158015610c78573d6000803e3d6000fd5b505050506040513d601f19601f82011682018060405250810190610c9c9190612050565b1015610cdd576040517f08c379a0000000000000000000000000000000000000000000000000000000008152600401610cd4906120c9565b60405180910390fd5b8073ffffffffffffffffffffffffffffffffffffffff1663095ea7b360008054906101000a900473ffffffffffffffffffffffffffffffffffffffff16846040518363ffffffff1660e01b8152600401610d38929190611378565b6020604051808303816000875af1158015610d57573d6000803e3d6000fd5b505050506040513d601f19601f82011682018060405250810190610d7b9190612115565b5060008054906101000a900473ffffffffffffffffffffffffffffffffffffffff1673ffffffffffffffffffffffffffffffffffffffff1662a718a9600160009054906101000a900473ffffffffffffffffffffffffffffffffffffffff1683868660006040518663ffffffff1660e01b8152600401610dff959493929190612142565b600060405180830381600087803b158015610e1957600080fd5b505af1158015610e2d573d6000803e3d6000fd5b5050505050505050565b60036000815480929190610e4a9061172d565b91905055506040518060a0016040528060035481526020018473ffffffffffffffffffffffffffffffffffffffff168152602001858152602001836002811115610e9757610e966111e1565b5b8152602001828152506008600060035481526020019081526020016000206000820151816000015560208201518160010160006101000a81548173ffffffffffffffffffffffffffffffffffffffff021916908373ffffffffffffffffffffffffffffffffffffffff1602179055506040820151816002015560608201518160030160006101000a81548160ff02191690836002811115610f3b57610f3a6111e1565b5b021790555060808201518160040155905050600760003373ffffffffffffffffffffffffffffffffffffffff1673ffffffffffffffffffffffffffffffffffffffff16815260200190815260200160002060035490806001815401808255809150506001900390600052602060002001600090919091909150553373ffffffffffffffffffffffffffffffffffffffff167f633109eec20320eded000fc1e2634211aa7e92ba3f5b15faf6dcdafca05094e4600354604051610ffd91906112ab565b60405180910390a250505050565b6000806000806000806000808880602001905181019061102b919061220c565b93509350935093508397508296508160ff16600281111561104f5761104e6111e1565b5b9550809450505050509193509193565b6000604051905090565b600080fd5b600080fd5b60007fffffffff0000000000000000000000000000000000000000000000000000000082169050919050565b6110a881611073565b81146110b357600080fd5b50565b6000813590506110c58161109f565b92915050565b6000602082840312156110e1576110e0611069565b5b60006110ef848285016110b6565b91505092915050565b60008115159050919050565b61110d816110f8565b82525050565b60006020820190506111286000830184611104565b92915050565b6000819050919050565b6111418161112e565b811461114c57600080fd5b50565b60008135905061115e81611138565b92915050565b60006020828403121561117a57611179611069565b5b60006111888482850161114f565b91505092915050565b61119a8161112e565b82525050565b600073ffffffffffffffffffffffffffffffffffffffff82169050919050565b60006111cb826111a0565b9050919050565b6111db816111c0565b82525050565b7f4e487b7100000000000000000000000000000000000000000000000000000000600052602160045260246000fd5b60038110611221576112206111e1565b5b50565b600081905061123282611210565b919050565b600061124282611224565b9050919050565b61125281611237565b82525050565b600060a08201905061126d6000830188611191565b61127a60208301876111d2565b6112876040830186611191565b6112946060830185611249565b6112a16080830184611191565b9695505050505050565b60006020820190506112c06000830184611191565b92915050565b600080fd5b600080fd5b600080fd5b60008083601f8401126112eb576112ea6112c6565b5b8235905067ffffffffffffffff811115611308576113076112cb565b5b602083019150836001820283011115611324576113236112d0565b5b9250929050565b6000806020838503121561134257611341611069565b5b600083013567ffffffffffffffff8111156113605761135f61106e565b5b61136c858286016112d5565b92509250509250929050565b600060408201905061138d60008301856111d2565b61139a6020830184611191565b9392505050565b600081519050919050565b600082825260208201905092915050565b60005b838110156113db5780820151818401526020810190506113c0565b60008484015250505050565b6000601f19601f8301169050919050565b6000611403826113a1565b61140d81856113ac565b935061141d8185602086016113bd565b611426816113e7565b840191505092915050565b60006040820190506114466000830185611104565b818103602083015261145881846113f8565b90509392505050565b600080fd5b600060a0828403121561147c5761147b611461565b5b81905092915050565b60006020828403121561149b5761149a611069565b5b600082013567ffffffffffffffff8111156114b9576114b861106e565b5b6114c584828501611466565b91505092915050565b6000806000606084860312156114e7576114e6611069565b5b60006114f58682870161114f565b93505060206115068682870161114f565b92505060406115178682870161114f565b9150509250925092565b61152a816111c0565b811461153557600080fd5b50565b60008135905061154781611521565b92915050565b6000806000806080858703121561156757611566611069565b5b60006115758782880161114f565b94505060206115868782880161114f565b935050604061159787828801611538565b92505060606115a88782880161114f565b91505092959194509250565b60006020820190506115c960008301846111d2565b92915050565b600080604083850312156115e6576115e5611069565b5b60006115f485828601611538565b92505060206116058582860161114f565b9150509250929050565b6003811061161c57600080fd5b50565b60008135905061162e8161160f565b92915050565b6000806000806080858703121561164e5761164d611069565b5b600061165c8782880161114f565b945050602061166d87828801611538565b935050604061167e8782880161161f565b925050606061168f8782880161114f565b91505092959194509250565b7f4e487b7100000000000000000000000000000000000000000000000000000000600052601160045260246000fd5b60006116d58261112e565b91506116e08361112e565b92508282039050818111156116f8576116f761169b565b5b92915050565b7f4e487b7100000000000000000000000000000000000000000000000000000000600052604160045260246000fd5b60006117388261112e565b91507fffffffffffffffffffffffffffffffffffffffffffffffffffffffffffffffff820361176a5761176961169b565b5b600182019050919050565b600080fd5b611783826113e7565b810181811067ffffffffffffffff821117156117a2576117a16116fe565b5b80604052505050565b60006117b561105f565b90506117c1828261177a565b919050565b600080fd5b6000819050919050565b6117de816117cb565b81146117e957600080fd5b50565b6000813590506117fb816117d5565b92915050565b600067ffffffffffffffff82169050919050565b61181e81611801565b811461182957600080fd5b50565b60008135905061183b81611815565b92915050565b600080fd5b600067ffffffffffffffff821115611861576118606116fe565b5b61186a826113e7565b9050602081019050919050565b82818337600083830152505050565b600061189961189484611846565b6117ab565b9050828152602081018484840111156118b5576118b4611841565b5b6118c0848285611877565b509392505050565b600082601f8301126118dd576118dc6112c6565b5b81356118ed848260208601611886565b91505092915050565b600067ffffffffffffffff821115611911576119106116fe565b5b602082029050602081019050919050565b60006040828403121561193857611937611775565b5b61194260406117ab565b9050600061195284828501611538565b60008301525060206119668482850161114f565b60208301525092915050565b6000611985611980846118f6565b6117ab565b905080838252602082019050604084028301858111156119a8576119a76112d0565b5b835b818110156119d157806119bd8882611922565b8452602084019350506040810190506119aa565b5050509392505050565b600082601f8301126119f0576119ef6112c6565b5b8135611a00848260208601611972565b91505092915050565b600060a08284031215611a1f57611a1e611775565b5b611a2960a06117ab565b90506000611a39848285016117ec565b6000830152506020611a4d8482850161182c565b602083015250604082013567ffffffffffffffff811115611a7157611a706117c6565b5b611a7d848285016118c8565b604083015250606082013567ffffffffffffffff811115611aa157611aa06117c6565b5b611aad848285016118c8565b606083015250608082013567ffffffffffffffff811115611ad157611ad06117c6565b5b611add848285016119db565b60808301525092915050565b6000611af53683611a09565b9050919050565b6000611b078261112e565b9150611b128361112e565b9250828201905080821115611b2a57611b2961169b565b5b92915050565b600082825260208201905092915050565b7f496e73756666696369656e7420616d6f756e7420666f7220696e697469616c2060008201527f7061796d656e7400000000000000000000000000000000000000000000000000602082015250565b6000611b9d602783611b30565b9150611ba882611b41565b604082019050919050565b60006020820190508181036000830152611bcc81611b90565b9050919050565b600060c082019050611be86000830189611191565b611bf56020830188611191565b611c026040830187611191565b611c0f6060830186611191565b611c1c6080830185611191565b611c2960a0830184611191565b979650505050505050565b600081519050611c4381611521565b92915050565b600060208284031215611c5f57611c5e611069565b5b6000611c6d84828501611c34565b91505092915050565b7f496e7465726573742072617465206d757374206265206772656174657220746860008201527f616e203000000000000000000000000000000000000000000000000000000000602082015250565b6000611cd2602483611b30565b9150611cdd82611c76565b604082019050919050565b60006020820190508181036000830152611d0181611cc5565b9050919050565b7f4d6178206475726174696f6e206d75737420626520677265617465722074686160008201527f6e20300000000000000000000000000000000000000000000000000000000000602082015250565b6000611d64602383611b30565b9150611d6f82611d08565b604082019050919050565b60006020820190508181036000830152611d9381611d57565b9050919050565b6000604082019050611daf6000830185611191565b611dbc6020830184611191565b9392505050565b600067ffffffffffffffff821115611dde57611ddd6116fe565b5b602082029050602081019050919050565b600081519050611dfe81611138565b92915050565b6000611e17611e1284611dc3565b6117ab565b90508083825260208201905060208402830185811115611e3a57611e396112d0565b5b835b81811015611e635780611e4f8882611def565b845260208401935050602081019050611e3c565b5050509392505050565b600082601f830112611e8257611e816112c6565b5b8151611e92848260208601611e04565b91505092915050565b60008060408385031215611eb257611eb1611069565b5b600083015167ffffffffffffffff811115611ed057611ecf61106e565b5b611edc85828601611e6d565b925050602083015167ffffffffffffffff811115611efd57611efc61106e565b5b611f0985828601611e6d565b9150509250929050565b6000611f1e8261112e565b9150611f298361112e565b9250828202611f378161112e565b91508282048414831517611f4e57611f4d61169b565b5b5092915050565b7f4e487b7100000000000000000000000000000000000000000000000000000000600052601260045260246000fd5b6000611f8f8261112e565b9150611f9a8361112e565b925082611faa57611fa9611f55565b5b828204905092915050565b7f4e6f2072656d61696e696e672073706c69747320746f2070726f636573730000600082015250565b6000611feb601e83611b30565b9150611ff682611fb5565b602082019050919050565b6000602082019050818103600083015261201a81611fde565b9050919050565b7f4e487b7100000000000000000000000000000000000000000000000000000000600052603260045260246000fd5b60006020828403121561206657612065611069565b5b600061207484828501611def565b91505092915050565b7f496e73756666696369656e742047484f20746f206c6971756964617465000000600082015250565b60006120b3601d83611b30565b91506120be8261207d565b602082019050919050565b600060208201905081810360008301526120e2816120a6565b9050919050565b6120f2816110f8565b81146120fd57600080fd5b50565b60008151905061210f816120e9565b92915050565b60006020828403121561212b5761212a611069565b5b600061213984828501612100565b91505092915050565b600060a08201905061215760008301886111d2565b61216460208301876111d2565b61217160408301866111d2565b61217e6060830185611191565b61218b6080830184611104565b9695505050505050565b60006121a0826111a0565b9050919050565b6121b081612195565b81146121bb57600080fd5b50565b6000815190506121cd816121a7565b92915050565b600060ff82169050919050565b6121e9816121d3565b81146121f457600080fd5b50565b600081519050612206816121e0565b92915050565b6000806000806080858703121561222657612225611069565b5b600061223487828801611def565b9450506020612245878288016121be565b9350506040612256878288016121f7565b925050606061226787828801611def565b9150509295919450925056fea2646970667358221220aad0f002c01194549e0e97386a0986520342bc689068d4c9a8505ba75434fe8064736f6c63430008140033",
  "linkReferences": {},
  "deployedLinkReferences": {}
}