{
    "_format": "hh-sol-artifact-1",
    "contractName": "KiteVault",
    "sourceName": "contracts/KiteVault.sol",
    "abi": [
        {
            "inputs": [],
            "stateMutability": "nonpayable",
            "type": "constructor"
        },
        {
            "inputs": [],
            "name": "AccessControlBadConfirmation",
            "type": "error"
        },
        {
            "inputs": [
                {
                    "internalType": "address",
                    "name": "account",
                    "type": "address"
                },
                {
                    "internalType": "bytes32",
                    "name": "neededRole",
                    "type": "bytes32"
                }
            ],
            "name": "AccessControlUnauthorizedAccount",
            "type": "error"
        },
        {
            "inputs": [
                {
                    "internalType": "address",
                    "name": "target",
                    "type": "address"
                }
            ],
            "name": "AddressEmptyCode",
            "type": "error"
        },
        {
            "inputs": [
                {
                    "internalType": "address",
                    "name": "account",
                    "type": "address"
                }
            ],
            "name": "AddressInsufficientBalance",
            "type": "error"
        },
        {
            "inputs": [
                {
                    "internalType": "address",
                    "name": "spender",
                    "type": "address"
                },
                {
                    "internalType": "uint256",
                    "name": "allowance",
                    "type": "uint256"
                },
                {
                    "internalType": "uint256",
                    "name": "needed",
                    "type": "uint256"
                }
            ],
            "name": "ERC20InsufficientAllowance",
            "type": "error"
        },
        {
            "inputs": [
                {
                    "internalType": "address",
                    "name": "sender",
                    "type": "address"
                },
                {
                    "internalType": "uint256",
                    "name": "balance",
                    "type": "uint256"
                },
                {
                    "internalType": "uint256",
                    "name": "needed",
                    "type": "uint256"
                }
            ],
            "name": "ERC20InsufficientBalance",
            "type": "error"
        },
        {
            "inputs": [
                {
                    "internalType": "address",
                    "name": "approver",
                    "type": "address"
                }
            ],
            "name": "ERC20InvalidApprover",
            "type": "error"
        },
        {
            "inputs": [
                {
                    "internalType": "address",
                    "name": "receiver",
                    "type": "address"
                }
            ],
            "name": "ERC20InvalidReceiver",
            "type": "error"
        },
        {
            "inputs": [
                {
                    "internalType": "address",
                    "name": "sender",
                    "type": "address"
                }
            ],
            "name": "ERC20InvalidSender",
            "type": "error"
        },
        {
            "inputs": [
                {
                    "internalType": "address",
                    "name": "spender",
                    "type": "address"
                }
            ],
            "name": "ERC20InvalidSpender",
            "type": "error"
        },
        {
            "inputs": [
                {
                    "internalType": "address",
                    "name": "receiver",
                    "type": "address"
                },
                {
                    "internalType": "uint256",
                    "name": "assets",
                    "type": "uint256"
                },
                {
                    "internalType": "uint256",
                    "name": "max",
                    "type": "uint256"
                }
            ],
            "name": "ERC4626ExceededMaxDeposit",
            "type": "error"
        },
        {
            "inputs": [
                {
                    "internalType": "address",
                    "name": "receiver",
                    "type": "address"
                },
                {
                    "internalType": "uint256",
                    "name": "shares",
                    "type": "uint256"
                },
                {
                    "internalType": "uint256",
                    "name": "max",
                    "type": "uint256"
                }
            ],
            "name": "ERC4626ExceededMaxMint",
            "type": "error"
        },
        {
            "inputs": [
                {
                    "internalType": "address",
                    "name": "owner",
                    "type": "address"
                },
                {
                    "internalType": "uint256",
                    "name": "shares",
                    "type": "uint256"
                },
                {
                    "internalType": "uint256",
                    "name": "max",
                    "type": "uint256"
                }
            ],
            "name": "ERC4626ExceededMaxRedeem",
            "type": "error"
        },
        {
            "inputs": [
                {
                    "internalType": "address",
                    "name": "owner",
                    "type": "address"
                },
                {
                    "internalType": "uint256",
                    "name": "assets",
                    "type": "uint256"
                },
                {
                    "internalType": "uint256",
                    "name": "max",
                    "type": "uint256"
                }
            ],
            "name": "ERC4626ExceededMaxWithdraw",
            "type": "error"
        },
        {
            "inputs": [],
            "name": "FailedInnerCall",
            "type": "error"
        },
        {
            "inputs": [],
            "name": "MathOverflowedMulDiv",
            "type": "error"
        },
        {
            "inputs": [
                {
                    "internalType": "address",
                    "name": "owner",
                    "type": "address"
                }
            ],
            "name": "OwnableInvalidOwner",
            "type": "error"
        },
        {
            "inputs": [
                {
                    "internalType": "address",
                    "name": "account",
                    "type": "address"
                }
            ],
            "name": "OwnableUnauthorizedAccount",
            "type": "error"
        },
        {
            "inputs": [
                {
                    "internalType": "address",
                    "name": "token",
                    "type": "address"
                }
            ],
            "name": "SafeERC20FailedOperation",
            "type": "error"
        },
        {
            "anonymous": false,
            "inputs": [
                {
                    "indexed": true,
                    "internalType": "address",
                    "name": "owner",
                    "type": "address"
                },
                {
                    "indexed": true,
                    "internalType": "address",
                    "name": "spender",
                    "type": "address"
                },
                {
                    "indexed": false,
                    "internalType": "uint256",
                    "name": "value",
                    "type": "uint256"
                }
            ],
            "name": "Approval",
            "type": "event"
        },
        {
            "anonymous": false,
            "inputs": [
                {
                    "indexed": true,
                    "internalType": "address",
                    "name": "sender",
                    "type": "address"
                },
                {
                    "indexed": true,
                    "internalType": "address",
                    "name": "owner",
                    "type": "address"
                },
                {
                    "indexed": false,
                    "internalType": "uint256",
                    "name": "assets",
                    "type": "uint256"
                },
                {
                    "indexed": false,
                    "internalType": "uint256",
                    "name": "shares",
                    "type": "uint256"
                }
            ],
            "name": "Deposit",
            "type": "event"
        },
        {
            "anonymous": false,
            "inputs": [
                {
                    "indexed": true,
                    "internalType": "address",
                    "name": "previousOwner",
                    "type": "address"
                },
                {
                    "indexed": true,
                    "internalType": "address",
                    "name": "newOwner",
                    "type": "address"
                }
            ],
            "name": "OwnershipTransferred",
            "type": "event"
        },
        {
            "anonymous": false,
            "inputs": [
                {
                    "indexed": true,
                    "internalType": "bytes32",
                    "name": "role",
                    "type": "bytes32"
                },
                {
                    "indexed": true,
                    "internalType": "bytes32",
                    "name": "previousAdminRole",
                    "type": "bytes32"
                },
                {
                    "indexed": true,
                    "internalType": "bytes32",
                    "name": "newAdminRole",
                    "type": "bytes32"
                }
            ],
            "name": "RoleAdminChanged",
            "type": "event"
        },
        {
            "anonymous": false,
            "inputs": [
                {
                    "indexed": true,
                    "internalType": "bytes32",
                    "name": "role",
                    "type": "bytes32"
                },
                {
                    "indexed": true,
                    "internalType": "address",
                    "name": "account",
                    "type": "address"
                },
                {
                    "indexed": true,
                    "internalType": "address",
                    "name": "sender",
                    "type": "address"
                }
            ],
            "name": "RoleGranted",
            "type": "event"
        },
        {
            "anonymous": false,
            "inputs": [
                {
                    "indexed": true,
                    "internalType": "bytes32",
                    "name": "role",
                    "type": "bytes32"
                },
                {
                    "indexed": true,
                    "internalType": "address",
                    "name": "account",
                    "type": "address"
                },
                {
                    "indexed": true,
                    "internalType": "address",
                    "name": "sender",
                    "type": "address"
                }
            ],
            "name": "RoleRevoked",
            "type": "event"
        },
        {
            "anonymous": false,
            "inputs": [
                {
                    "indexed": false,
                    "internalType": "uint256",
                    "name": "campaignID",
                    "type": "uint256"
                },
                {
                    "indexed": false,
                    "internalType": "uint256",
                    "name": "tradeId",
                    "type": "uint256"
                },
                {
                    "indexed": false,
                    "internalType": "uint256",
                    "name": "totalShares",
                    "type": "uint256"
                },
                {
                    "indexed": false,
                    "internalType": "uint256",
                    "name": "lastInterval",
                    "type": "uint256"
                }
            ],
            "name": "TradeExecuted",
            "type": "event"
        },
        {
            "anonymous": false,
            "inputs": [
                {
                    "indexed": true,
                    "internalType": "address",
                    "name": "from",
                    "type": "address"
                },
                {
                    "indexed": true,
                    "internalType": "address",
                    "name": "to",
                    "type": "address"
                },
                {
                    "indexed": false,
                    "internalType": "uint256",
                    "name": "value",
                    "type": "uint256"
                }
            ],
            "name": "Transfer",
            "type": "event"
        },
        {
            "anonymous": false,
            "inputs": [
                {
                    "indexed": true,
                    "internalType": "address",
                    "name": "sender",
                    "type": "address"
                },
                {
                    "indexed": true,
                    "internalType": "address",
                    "name": "receiver",
                    "type": "address"
                },
                {
                    "indexed": true,
                    "internalType": "address",
                    "name": "owner",
                    "type": "address"
                },
                {
                    "indexed": false,
                    "internalType": "uint256",
                    "name": "assets",
                    "type": "uint256"
                },
                {
                    "indexed": false,
                    "internalType": "uint256",
                    "name": "shares",
                    "type": "uint256"
                }
            ],
            "name": "Withdraw",
            "type": "event"
        },
        {
            "inputs": [],
            "name": "DEFAULT_ADMIN_ROLE",
            "outputs": [
                {
                    "internalType": "bytes32",
                    "name": "",
                    "type": "bytes32"
                }
            ],
            "stateMutability": "view",
            "type": "function"
        },
        {
            "inputs": [],
            "name": "_owner",
            "outputs": [
                {
                    "internalType": "address",
                    "name": "",
                    "type": "address"
                }
            ],
            "stateMutability": "view",
            "type": "function"
        },
        {
            "inputs": [
                {
                    "internalType": "address",
                    "name": "owner",
                    "type": "address"
                },
                {
                    "internalType": "address",
                    "name": "spender",
                    "type": "address"
                }
            ],
            "name": "allowance",
            "outputs": [
                {
                    "internalType": "uint256",
                    "name": "",
                    "type": "uint256"
                }
            ],
            "stateMutability": "view",
            "type": "function"
        },
        {
            "inputs": [
                {
                    "internalType": "address",
                    "name": "spender",
                    "type": "address"
                },
                {
                    "internalType": "uint256",
                    "name": "value",
                    "type": "uint256"
                }
            ],
            "name": "approve",
            "outputs": [
                {
                    "internalType": "bool",
                    "name": "",
                    "type": "bool"
                }
            ],
            "stateMutability": "nonpayable",
            "type": "function"
        },
        {
            "inputs": [],
            "name": "asset",
            "outputs": [
                {
                    "internalType": "address",
                    "name": "",
                    "type": "address"
                }
            ],
            "stateMutability": "view",
            "type": "function"
        },
        {
            "inputs": [
                {
                    "internalType": "address",
                    "name": "account",
                    "type": "address"
                }
            ],
            "name": "balanceOf",
            "outputs": [
                {
                    "internalType": "uint256",
                    "name": "",
                    "type": "uint256"
                }
            ],
            "stateMutability": "view",
            "type": "function"
        },
        {
            "inputs": [
                {
                    "internalType": "uint256",
                    "name": "",
                    "type": "uint256"
                },
                {
                    "internalType": "uint256",
                    "name": "",
                    "type": "uint256"
                }
            ],
            "name": "campaignTrades",
            "outputs": [
                {
                    "internalType": "uint256",
                    "name": "",
                    "type": "uint256"
                }
            ],
            "stateMutability": "view",
            "type": "function"
        },
        {
            "inputs": [
                {
                    "internalType": "uint256",
                    "name": "shares",
                    "type": "uint256"
                }
            ],
            "name": "convertToAssets",
            "outputs": [
                {
                    "internalType": "uint256",
                    "name": "",
                    "type": "uint256"
                }
            ],
            "stateMutability": "view",
            "type": "function"
        },
        {
            "inputs": [
                {
                    "internalType": "uint256",
                    "name": "assets",
                    "type": "uint256"
                }
            ],
            "name": "convertToShares",
            "outputs": [
                {
                    "internalType": "uint256",
                    "name": "",
                    "type": "uint256"
                }
            ],
            "stateMutability": "view",
            "type": "function"
        },
        {
            "inputs": [],
            "name": "decimals",
            "outputs": [
                {
                    "internalType": "uint8",
                    "name": "",
                    "type": "uint8"
                }
            ],
            "stateMutability": "view",
            "type": "function"
        },
        {
            "inputs": [
                {
                    "internalType": "uint256",
                    "name": "assets",
                    "type": "uint256"
                },
                {
                    "internalType": "address",
                    "name": "receiver",
                    "type": "address"
                }
            ],
            "name": "deposit",
            "outputs": [
                {
                    "internalType": "uint256",
                    "name": "",
                    "type": "uint256"
                }
            ],
            "stateMutability": "nonpayable",
            "type": "function"
        },
        {
            "inputs": [
                {
                    "internalType": "address",
                    "name": "",
                    "type": "address"
                }
            ],
            "name": "depositorShares",
            "outputs": [
                {
                    "internalType": "uint256",
                    "name": "",
                    "type": "uint256"
                }
            ],
            "stateMutability": "view",
            "type": "function"
        },
        {
            "inputs": [
                {
                    "internalType": "address",
                    "name": "",
                    "type": "address"
                },
                {
                    "internalType": "uint256",
                    "name": "",
                    "type": "uint256"
                }
            ],
            "name": "depositorTrades",
            "outputs": [
                {
                    "internalType": "uint256",
                    "name": "",
                    "type": "uint256"
                }
            ],
            "stateMutability": "view",
            "type": "function"
        },
        {
            "inputs": [
                {
                    "internalType": "uint256",
                    "name": "campaignID",
                    "type": "uint256"
                },
                {
                    "internalType": "uint256",
                    "name": "tradeId",
                    "type": "uint256"
                },
                {
                    "internalType": "uint256",
                    "name": "splitsCount",
                    "type": "uint256"
                },
                {
                    "internalType": "uint256",
                    "name": "interval",
                    "type": "uint256"
                },
                {
                    "internalType": "uint256",
                    "name": "total",
                    "type": "uint256"
                },
                {
                    "internalType": "uint256",
                    "name": "paymentAmount",
                    "type": "uint256"
                },
                {
                    "internalType": "address",
                    "name": "sender",
                    "type": "address"
                }
            ],
            "name": "executeTrade",
            "outputs": [],
            "stateMutability": "nonpayable",
            "type": "function"
        },
        {
            "inputs": [
                {
                    "internalType": "address",
                    "name": "depositor",
                    "type": "address"
                }
            ],
            "name": "getAllTradesByDepositor",
            "outputs": [
                {
                    "components": [
                        {
                            "internalType": "uint256",
                            "name": "total",
                            "type": "uint256"
                        },
                        {
                            "internalType": "uint256",
                            "name": "settled",
                            "type": "uint256"
                        },
                        {
                            "internalType": "uint256[]",
                            "name": "dueDates",
                            "type": "uint256[]"
                        },
                        {
                            "internalType": "uint256[]",
                            "name": "amounts",
                            "type": "uint256[]"
                        },
                        {
                            "internalType": "bool[]",
                            "name": "paidDueDates",
                            "type": "bool[]"
                        },
                        {
                            "internalType": "bool",
                            "name": "closed",
                            "type": "bool"
                        }
                    ],
                    "internalType": "struct KiteVaultHelpers.Trade[]",
                    "name": "",
                    "type": "tuple[]"
                }
            ],
            "stateMutability": "view",
            "type": "function"
        },
        {
            "inputs": [
                {
                    "internalType": "uint256",
                    "name": "campaignID",
                    "type": "uint256"
                }
            ],
            "name": "getAllTradesInCampaign",
            "outputs": [
                {
                    "components": [
                        {
                            "internalType": "uint256",
                            "name": "total",
                            "type": "uint256"
                        },
                        {
                            "internalType": "uint256",
                            "name": "settled",
                            "type": "uint256"
                        },
                        {
                            "internalType": "uint256[]",
                            "name": "dueDates",
                            "type": "uint256[]"
                        },
                        {
                            "internalType": "uint256[]",
                            "name": "amounts",
                            "type": "uint256[]"
                        },
                        {
                            "internalType": "bool[]",
                            "name": "paidDueDates",
                            "type": "bool[]"
                        },
                        {
                            "internalType": "bool",
                            "name": "closed",
                            "type": "bool"
                        }
                    ],
                    "internalType": "struct KiteVaultHelpers.Trade[]",
                    "name": "",
                    "type": "tuple[]"
                }
            ],
            "stateMutability": "view",
            "type": "function"
        },
        {
            "inputs": [
                {
                    "internalType": "bytes32",
                    "name": "role",
                    "type": "bytes32"
                }
            ],
            "name": "getRoleAdmin",
            "outputs": [
                {
                    "internalType": "bytes32",
                    "name": "",
                    "type": "bytes32"
                }
            ],
            "stateMutability": "view",
            "type": "function"
        },
        {
            "inputs": [
                {
                    "internalType": "bytes32",
                    "name": "role",
                    "type": "bytes32"
                },
                {
                    "internalType": "address",
                    "name": "account",
                    "type": "address"
                }
            ],
            "name": "grantRole",
            "outputs": [],
            "stateMutability": "nonpayable",
            "type": "function"
        },
        {
            "inputs": [
                {
                    "internalType": "bytes32",
                    "name": "role",
                    "type": "bytes32"
                },
                {
                    "internalType": "address",
                    "name": "account",
                    "type": "address"
                }
            ],
            "name": "hasRole",
            "outputs": [
                {
                    "internalType": "bool",
                    "name": "",
                    "type": "bool"
                }
            ],
            "stateMutability": "view",
            "type": "function"
        },
        {
            "inputs": [
                {
                    "internalType": "address",
                    "name": "",
                    "type": "address"
                }
            ],
            "name": "liquidations",
            "outputs": [
                {
                    "internalType": "uint256",
                    "name": "",
                    "type": "uint256"
                }
            ],
            "stateMutability": "view",
            "type": "function"
        },
        {
            "inputs": [
                {
                    "internalType": "uint256",
                    "name": "",
                    "type": "uint256"
                }
            ],
            "name": "liquidityProviders",
            "outputs": [
                {
                    "internalType": "address",
                    "name": "",
                    "type": "address"
                }
            ],
            "stateMutability": "view",
            "type": "function"
        },
        {
            "inputs": [
                {
                    "internalType": "address",
                    "name": "",
                    "type": "address"
                }
            ],
            "name": "maxDeposit",
            "outputs": [
                {
                    "internalType": "uint256",
                    "name": "",
                    "type": "uint256"
                }
            ],
            "stateMutability": "view",
            "type": "function"
        },
        {
            "inputs": [
                {
                    "internalType": "address",
                    "name": "",
                    "type": "address"
                }
            ],
            "name": "maxMint",
            "outputs": [
                {
                    "internalType": "uint256",
                    "name": "",
                    "type": "uint256"
                }
            ],
            "stateMutability": "view",
            "type": "function"
        },
        {
            "inputs": [
                {
                    "internalType": "address",
                    "name": "owner",
                    "type": "address"
                }
            ],
            "name": "maxRedeem",
            "outputs": [
                {
                    "internalType": "uint256",
                    "name": "",
                    "type": "uint256"
                }
            ],
            "stateMutability": "view",
            "type": "function"
        },
        {
            "inputs": [
                {
                    "internalType": "address",
                    "name": "owner",
                    "type": "address"
                }
            ],
            "name": "maxWithdraw",
            "outputs": [
                {
                    "internalType": "uint256",
                    "name": "",
                    "type": "uint256"
                }
            ],
            "stateMutability": "view",
            "type": "function"
        },
        {
            "inputs": [
                {
                    "internalType": "uint256",
                    "name": "shares",
                    "type": "uint256"
                },
                {
                    "internalType": "address",
                    "name": "receiver",
                    "type": "address"
                }
            ],
            "name": "mint",
            "outputs": [
                {
                    "internalType": "uint256",
                    "name": "",
                    "type": "uint256"
                }
            ],
            "stateMutability": "nonpayable",
            "type": "function"
        },
        {
            "inputs": [],
            "name": "name",
            "outputs": [
                {
                    "internalType": "string",
                    "name": "",
                    "type": "string"
                }
            ],
            "stateMutability": "view",
            "type": "function"
        },
        {
            "inputs": [],
            "name": "owner",
            "outputs": [
                {
                    "internalType": "address",
                    "name": "",
                    "type": "address"
                }
            ],
            "stateMutability": "view",
            "type": "function"
        },
        {
            "inputs": [],
            "name": "payMerchant",
            "outputs": [],
            "stateMutability": "nonpayable",
            "type": "function"
        },
        {
            "inputs": [
                {
                    "internalType": "uint256",
                    "name": "assets",
                    "type": "uint256"
                }
            ],
            "name": "previewDeposit",
            "outputs": [
                {
                    "internalType": "uint256",
                    "name": "",
                    "type": "uint256"
                }
            ],
            "stateMutability": "view",
            "type": "function"
        },
        {
            "inputs": [
                {
                    "internalType": "uint256",
                    "name": "shares",
                    "type": "uint256"
                }
            ],
            "name": "previewMint",
            "outputs": [
                {
                    "internalType": "uint256",
                    "name": "",
                    "type": "uint256"
                }
            ],
            "stateMutability": "view",
            "type": "function"
        },
        {
            "inputs": [
                {
                    "internalType": "uint256",
                    "name": "shares",
                    "type": "uint256"
                }
            ],
            "name": "previewRedeem",
            "outputs": [
                {
                    "internalType": "uint256",
                    "name": "",
                    "type": "uint256"
                }
            ],
            "stateMutability": "view",
            "type": "function"
        },
        {
            "inputs": [
                {
                    "internalType": "uint256",
                    "name": "assets",
                    "type": "uint256"
                }
            ],
            "name": "previewWithdraw",
            "outputs": [
                {
                    "internalType": "uint256",
                    "name": "",
                    "type": "uint256"
                }
            ],
            "stateMutability": "view",
            "type": "function"
        },
        {
            "inputs": [
                {
                    "internalType": "uint256",
                    "name": "shares",
                    "type": "uint256"
                },
                {
                    "internalType": "address",
                    "name": "receiver",
                    "type": "address"
                },
                {
                    "internalType": "address",
                    "name": "owner",
                    "type": "address"
                }
            ],
            "name": "redeem",
            "outputs": [
                {
                    "internalType": "uint256",
                    "name": "",
                    "type": "uint256"
                }
            ],
            "stateMutability": "nonpayable",
            "type": "function"
        },
        {
            "inputs": [
                {
                    "internalType": "uint256",
                    "name": "tradeID",
                    "type": "uint256"
                },
                {
                    "internalType": "address",
                    "name": "sender",
                    "type": "address"
                }
            ],
            "name": "refund",
            "outputs": [],
            "stateMutability": "nonpayable",
            "type": "function"
        },
        {
            "inputs": [],
            "name": "renounceOwnership",
            "outputs": [],
            "stateMutability": "nonpayable",
            "type": "function"
        },
        {
            "inputs": [
                {
                    "internalType": "bytes32",
                    "name": "role",
                    "type": "bytes32"
                },
                {
                    "internalType": "address",
                    "name": "callerConfirmation",
                    "type": "address"
                }
            ],
            "name": "renounceRole",
            "outputs": [],
            "stateMutability": "nonpayable",
            "type": "function"
        },
        {
            "inputs": [
                {
                    "internalType": "bytes32",
                    "name": "role",
                    "type": "bytes32"
                },
                {
                    "internalType": "address",
                    "name": "account",
                    "type": "address"
                }
            ],
            "name": "revokeRole",
            "outputs": [],
            "stateMutability": "nonpayable",
            "type": "function"
        },
        {
            "inputs": [
                {
                    "internalType": "bytes4",
                    "name": "interfaceId",
                    "type": "bytes4"
                }
            ],
            "name": "supportsInterface",
            "outputs": [
                {
                    "internalType": "bool",
                    "name": "",
                    "type": "bool"
                }
            ],
            "stateMutability": "view",
            "type": "function"
        },
        {
            "inputs": [],
            "name": "symbol",
            "outputs": [
                {
                    "internalType": "string",
                    "name": "",
                    "type": "string"
                }
            ],
            "stateMutability": "view",
            "type": "function"
        },
        {
            "inputs": [],
            "name": "totalAssets",
            "outputs": [
                {
                    "internalType": "uint256",
                    "name": "",
                    "type": "uint256"
                }
            ],
            "stateMutability": "view",
            "type": "function"
        },
        {
            "inputs": [],
            "name": "totalSupply",
            "outputs": [
                {
                    "internalType": "uint256",
                    "name": "",
                    "type": "uint256"
                }
            ],
            "stateMutability": "view",
            "type": "function"
        },
        {
            "inputs": [
                {
                    "internalType": "uint256",
                    "name": "",
                    "type": "uint256"
                }
            ],
            "name": "trades",
            "outputs": [
                {
                    "internalType": "uint256",
                    "name": "total",
                    "type": "uint256"
                },
                {
                    "internalType": "uint256",
                    "name": "settled",
                    "type": "uint256"
                },
                {
                    "internalType": "bool",
                    "name": "closed",
                    "type": "bool"
                }
            ],
            "stateMutability": "view",
            "type": "function"
        },
        {
            "inputs": [
                {
                    "internalType": "address",
                    "name": "to",
                    "type": "address"
                },
                {
                    "internalType": "uint256",
                    "name": "value",
                    "type": "uint256"
                }
            ],
            "name": "transfer",
            "outputs": [
                {
                    "internalType": "bool",
                    "name": "",
                    "type": "bool"
                }
            ],
            "stateMutability": "nonpayable",
            "type": "function"
        },
        {
            "inputs": [
                {
                    "internalType": "address",
                    "name": "from",
                    "type": "address"
                },
                {
                    "internalType": "address",
                    "name": "to",
                    "type": "address"
                },
                {
                    "internalType": "uint256",
                    "name": "value",
                    "type": "uint256"
                }
            ],
            "name": "transferFrom",
            "outputs": [
                {
                    "internalType": "bool",
                    "name": "",
                    "type": "bool"
                }
            ],
            "stateMutability": "nonpayable",
            "type": "function"
        },
        {
            "inputs": [
                {
                    "internalType": "address",
                    "name": "newOwner",
                    "type": "address"
                }
            ],
            "name": "transferOwnership",
            "outputs": [],
            "stateMutability": "nonpayable",
            "type": "function"
        },
        {
            "inputs": [
                {
                    "internalType": "uint256",
                    "name": "assets",
                    "type": "uint256"
                },
                {
                    "internalType": "address",
                    "name": "receiver",
                    "type": "address"
                },
                {
                    "internalType": "address",
                    "name": "owner",
                    "type": "address"
                }
            ],
            "name": "withdraw",
            "outputs": [
                {
                    "internalType": "uint256",
                    "name": "",
                    "type": "uint256"
                }
            ],
            "stateMutability": "nonpayable",
            "type": "function"
        },
        {
            "inputs": [
                {
                    "internalType": "uint256",
                    "name": "amount",
                    "type": "uint256"
                }
            ],
            "name": "withdrawForLiquidation",
            "outputs": [],
            "stateMutability": "nonpayable",
            "type": "function"
        }
    ],
    "bytecode": "0x6101006040523480156200001257600080fd5b5073dac9b8d2e3698f247caad793e2227461d6ae7d1b73c4bf5cbdabe595361438f8c6a187bdc330539c606040518060400160405280600b81526020017f4b697465205368617265730000000000000000000000000000000000000000008152506040518060400160405280600481526020017f4b495445000000000000000000000000000000000000000000000000000000008152508160049081620000ba91906200069e565b508060059081620000cc91906200069e565b505050600080620000e3836200024460201b60201c565b9150915081620000f5576012620000f7565b805b60ff1660a08160ff16815250508273ffffffffffffffffffffffffffffffffffffffff1660808173ffffffffffffffffffffffffffffffffffffffff1681525050505050600073ffffffffffffffffffffffffffffffffffffffff168173ffffffffffffffffffffffffffffffffffffffff1603620001b05760006040517f1e4fbdf7000000000000000000000000000000000000000000000000000000008152600401620001a79190620007ca565b60405180910390fd5b620001c1816200035e60201b60201c565b5073c4bf5cbdabe595361438f8c6a187bdc330539c6073ffffffffffffffffffffffffffffffffffffffff1660e08173ffffffffffffffffffffffffffffffffffffffff16815250503373ffffffffffffffffffffffffffffffffffffffff1660c08173ffffffffffffffffffffffffffffffffffffffff1681525050620008e1565b6000806000808473ffffffffffffffffffffffffffffffffffffffff1660405160240160405160208183030381529060405263313ce56760e01b6020820180517bffffffffffffffffffffffffffffffffffffffffffffffffffffffff8381831617835250505050604051620002bb919062000860565b600060405180830381855afa9150503d8060008114620002f8576040519150601f19603f3d011682016040523d82523d6000602084013e620002fd565b606091505b50915091508180156200031257506020815110155b156200034f57600081806020019051810190620003309190620008af565b905060ff801681116200034d576001819450945050505062000359565b505b6000809350935050505b915091565b6000600660009054906101000a900473ffffffffffffffffffffffffffffffffffffffff16905081600660006101000a81548173ffffffffffffffffffffffffffffffffffffffff021916908373ffffffffffffffffffffffffffffffffffffffff1602179055508173ffffffffffffffffffffffffffffffffffffffff168173ffffffffffffffffffffffffffffffffffffffff167f8be0079c531659141344cd1fd0a4f28419497f9722a3daafe3b4186f6b6457e060405160405180910390a35050565b600081519050919050565b7f4e487b7100000000000000000000000000000000000000000000000000000000600052604160045260246000fd5b7f4e487b7100000000000000000000000000000000000000000000000000000000600052602260045260246000fd5b60006002820490506001821680620004a657607f821691505b602082108103620004bc57620004bb6200045e565b5b50919050565b60008190508160005260206000209050919050565b60006020601f8301049050919050565b600082821b905092915050565b600060088302620005267fffffffffffffffffffffffffffffffffffffffffffffffffffffffffffffffff82620004e7565b620005328683620004e7565b95508019841693508086168417925050509392505050565b6000819050919050565b6000819050919050565b60006200057f6200057962000573846200054a565b62000554565b6200054a565b9050919050565b6000819050919050565b6200059b836200055e565b620005b3620005aa8262000586565b848454620004f4565b825550505050565b600090565b620005ca620005bb565b620005d781848462000590565b505050565b5b81811015620005ff57620005f3600082620005c0565b600181019050620005dd565b5050565b601f8211156200064e576200061881620004c2565b6200062384620004d7565b8101602085101562000633578190505b6200064b6200064285620004d7565b830182620005dc565b50505b505050565b600082821c905092915050565b6000620006736000198460080262000653565b1980831691505092915050565b60006200068e838362000660565b9150826002028217905092915050565b620006a98262000424565b67ffffffffffffffff811115620006c557620006c46200042f565b5b620006d182546200048d565b620006de82828562000603565b600060209050601f83116001811462000716576000841562000701578287015190505b6200070d858262000680565b8655506200077d565b601f1984166200072686620004c2565b60005b82811015620007505784890151825560018201915060208501945060208101905062000729565b868310156200077057848901516200076c601f89168262000660565b8355505b6001600288020188555050505b505050505050565b600073ffffffffffffffffffffffffffffffffffffffff82169050919050565b6000620007b28262000785565b9050919050565b620007c481620007a5565b82525050565b6000602082019050620007e16000830184620007b9565b92915050565b600081519050919050565b600081905092915050565b60005b838110156200081d57808201518184015260208101905062000800565b60008484015250505050565b60006200083682620007e7565b620008428185620007f2565b935062000854818560208601620007fd565b80840191505092915050565b60006200086e828462000829565b915081905092915050565b600080fd5b62000889816200054a565b81146200089557600080fd5b50565b600081519050620008a9816200087e565b92915050565b600060208284031215620008c857620008c762000879565b5b6000620008d88482850162000898565b91505092915050565b60805160a05160c05160e051614e5d620009346000396000505060008181611df9015261225201526000610ce2015260008181610a3101528181610d8f015281816128700152612e410152614e5d6000f3fe608060405234801561001057600080fd5b50600436106102a05760003560e01c806374bb65f911610167578063b3d7f6b9116100ce578063d547741f11610087578063d547741f14610949578063d564727d14610965578063d905777e14610981578063dd62ed3e146109b1578063ef8b30f7146109e1578063f2fde38b14610a11576102a0565b8063b3d7f6b914610829578063b460af9414610859578063ba08765214610889578063c63d75b6146108b9578063c6e6f592146108e9578063ce96cb7714610919576102a0565b806395d89b411161012057806395d89b411461073f578063962129161461075d578063a0c701ad1461078d578063a217fddf146107bd578063a9059cbb146107db578063b2bdfa7b1461080b576102a0565b806374bb65f9146106455780637ad226dc146106755780638da5cb5b1461069157806391d14854146106af578063937d4c42146106df57806394bf804d1461070f576102a0565b806336568abe1161020b57806352618e7f116101c457806352618e7f1461058557806354fc1e33146105b55780636e553f65146105d157806370a0823114610601578063715018a614610631578063718f13271461063b576102a0565b806336568abe1461048b57806338d52e0f146104a7578063402d267d146104c557806344122ea3146104f557806348515691146105255780634cdad50614610555576102a0565b806318160ddd1161025d57806318160ddd146103a15780631e6c598e146103bf57806323b872dd146103f1578063248a9ca3146104215780632f2ff15d14610451578063313ce5671461046d576102a0565b806301e1d114146102a557806301ffc9a7146102c357806306fdde03146102f357806307a2d13a14610311578063095ea7b3146103415780630a28a47714610371575b600080fd5b6102ad610a2d565b6040516102ba9190613abb565b60405180910390f35b6102dd60048036038101906102d89190613b33565b610ace565b6040516102ea9190613b7b565b60405180910390f35b6102fb610b48565b6040516103089190613c26565b60405180910390f35b61032b60048036038101906103269190613c74565b610bda565b6040516103389190613abb565b60405180910390f35b61035b60048036038101906103569190613cff565b610bee565b6040516103689190613b7b565b60405180910390f35b61038b60048036038101906103869190613c74565b610c11565b6040516103989190613abb565b60405180910390f35b6103a9610c25565b6040516103b69190613abb565b60405180910390f35b6103d960048036038101906103d49190613c74565b610c2f565b6040516103e893929190613d3f565b60405180910390f35b61040b60048036038101906104069190613d76565b610c66565b6040516104189190613b7b565b60405180910390f35b61043b60048036038101906104369190613dff565b610c95565b6040516104489190613e3b565b60405180910390f35b61046b60048036038101906104669190613e56565b610cb4565b005b610475610cd6565b6040516104829190613eb2565b60405180910390f35b6104a560048036038101906104a09190613e56565b610d10565b005b6104af610d8b565b6040516104bc9190613edc565b60405180910390f35b6104df60048036038101906104da9190613ef7565b610db3565b6040516104ec9190613abb565b60405180910390f35b61050f600480360381019061050a9190613c74565b610ddd565b60405161051c91906141f9565b60405180910390f35b61053f600480360381019061053a9190613cff565b61107a565b60405161054c9190613abb565b60405180910390f35b61056f600480360381019061056a9190613c74565b6110ab565b60405161057c9190613abb565b60405180910390f35b61059f600480360381019061059a919061421b565b6110bf565b6040516105ac9190613abb565b60405180910390f35b6105cf60048036038101906105ca919061425b565b6110f0565b005b6105eb60048036038101906105e691906142fd565b6116f6565b6040516105f89190613abb565b60405180910390f35b61061b60048036038101906106169190613ef7565b611778565b6040516106289190613abb565b60405180910390f35b6106396117c1565b005b6106436117d5565b005b61065f600480360381019061065a9190613ef7565b611859565b60405161066c91906141f9565b60405180910390f35b61068f600480360381019061068a91906142fd565b611b22565b005b610699611bb6565b6040516106a69190613edc565b60405180910390f35b6106c960048036038101906106c49190613e56565b611be0565b6040516106d69190613b7b565b60405180910390f35b6106f960048036038101906106f49190613ef7565b611c4a565b6040516107069190613abb565b60405180910390f35b610729600480360381019061072491906142fd565b611c62565b6040516107369190613abb565b60405180910390f35b610747611ce4565b6040516107549190613c26565b60405180910390f35b61077760048036038101906107729190613c74565b611d76565b6040516107849190613edc565b60405180910390f35b6107a760048036038101906107a29190613ef7565b611db5565b6040516107b49190613abb565b60405180910390f35b6107c5611dcd565b6040516107d29190613e3b565b60405180910390f35b6107f560048036038101906107f09190613cff565b611dd4565b6040516108029190613b7b565b60405180910390f35b610813611df7565b6040516108209190613edc565b60405180910390f35b610843600480360381019061083e9190613c74565b611e1b565b6040516108509190613abb565b60405180910390f35b610873600480360381019061086e919061433d565b611e2f565b6040516108809190613abb565b60405180910390f35b6108a3600480360381019061089e919061433d565b611eb3565b6040516108b09190613abb565b60405180910390f35b6108d360048036038101906108ce9190613ef7565b611f37565b6040516108e09190613abb565b60405180910390f35b61090360048036038101906108fe9190613c74565b611f61565b6040516109109190613abb565b60405180910390f35b610933600480360381019061092e9190613ef7565b611f75565b6040516109409190613abb565b60405180910390f35b610963600480360381019061095e9190613e56565b611f91565b005b61097f600480360381019061097a9190613c74565b611fb3565b005b61099b60048036038101906109969190613ef7565b61227e565b6040516109a89190613abb565b60405180910390f35b6109cb60048036038101906109c69190614390565b612290565b6040516109d89190613abb565b60405180910390f35b6109fb60048036038101906109f69190613c74565b612317565b604051610a089190613abb565b60405180910390f35b610a2b6004803603810190610a269190613ef7565b61232b565b005b60007f000000000000000000000000000000000000000000000000000000000000000073ffffffffffffffffffffffffffffffffffffffff166370a08231306040518263ffffffff1660e01b8152600401610a889190613edc565b602060405180830381865afa158015610aa5573d6000803e3d6000fd5b505050506040513d601f19601f82011682018060405250810190610ac991906143e5565b905090565b60007f7965db0b000000000000000000000000000000000000000000000000000000007bffffffffffffffffffffffffffffffffffffffffffffffffffffffff1916827bffffffffffffffffffffffffffffffffffffffffffffffffffffffff19161480610b415750610b40826123b1565b5b9050919050565b606060048054610b5790614441565b80601f0160208091040260200160405190810160405280929190818152602001828054610b8390614441565b8015610bd05780601f10610ba557610100808354040283529160200191610bd0565b820191906000526020600020905b815481529060010190602001808311610bb357829003601f168201915b5050505050905090565b6000610be782600061241b565b9050919050565b600080610bf9612474565b9050610c0681858561247c565b600191505092915050565b6000610c1e82600161248e565b9050919050565b6000600354905090565b60086020528060005260406000206000915090508060000154908060010154908060050160009054906101000a900460ff16905083565b600080610c71612474565b9050610c7e8582856124e7565b610c8985858561257b565b60019150509392505050565b6000806000838152602001908152602001600020600101549050919050565b610cbd82610c95565b610cc68161266f565b610cd08383612683565b50505050565b6000610ce0612774565b7f0000000000000000000000000000000000000000000000000000000000000000610d0b91906144a1565b905090565b610d18612474565b73ffffffffffffffffffffffffffffffffffffffff168173ffffffffffffffffffffffffffffffffffffffff1614610d7c576040517f6697b23200000000000000000000000000000000000000000000000000000000815260040160405180910390fd5b610d868282612779565b505050565b60007f0000000000000000000000000000000000000000000000000000000000000000905090565b60007fffffffffffffffffffffffffffffffffffffffffffffffffffffffffffffffff9050919050565b6060600060096000848152602001908152602001600020805480602002602001604051908101604052809291908181526020018280548015610e3e57602002820191906000526020600020905b815481526020019060010190808311610e2a575b505050505090506000815167ffffffffffffffff811115610e6257610e616144d6565b5b604051908082528060200260200182016040528015610e9b57816020015b610e8861395a565b815260200190600190039081610e805790505b50905060005b825181101561106f5760086000848381518110610ec157610ec0614505565b5b602002602001015181526020019081526020016000206040518060c0016040529081600082015481526020016001820154815260200160028201805480602002602001604051908101604052809291908181526020018280548015610f4557602002820191906000526020600020905b815481526020019060010190808311610f31575b5050505050815260200160038201805480602002602001604051908101604052809291908181526020018280548015610f9d57602002820191906000526020600020905b815481526020019060010190808311610f89575b505050505081526020016004820180548060200260200160405190810160405280929190818152602001828054801561101a57602002820191906000526020600020906000905b82829054906101000a900460ff16151581526020019060010190602082600001049283019260010382029150808411610fe45790505b505050505081526020016005820160009054906101000a900460ff16151515158152505082828151811061105157611050614505565b5b6020026020010181905250808061106790614534565b915050610ea1565b508092505050919050565b600a602052816000526040600020818154811061109657600080fd5b90600052602060002001600091509150505481565b60006110b882600061241b565b9050919050565b600960205281600052604060002081815481106110db57600080fd5b90600052602060002001600091509150505481565b73dac9b8d2e3698f247caad793e2227461d6ae7d1b73ffffffffffffffffffffffffffffffffffffffff163373ffffffffffffffffffffffffffffffffffffffff1614611172576040517f08c379a0000000000000000000000000000000000000000000000000000000008152600401611169906145c8565b60405180910390fd5b60006008600088815260200190815260200160002090506000429050600061119985612317565b90506111ae6111a6612474565b33878461286b565b6007849080600181540180825580915050600190039060005260206000200160009091909190916101000a81548173ffffffffffffffffffffffffffffffffffffffff021916908373ffffffffffffffffffffffffffffffffffffffff16021790555080600b60008673ffffffffffffffffffffffffffffffffffffffff1673ffffffffffffffffffffffffffffffffffffffff168152602001908152602001600020600082825461126091906145e8565b9250508190555060008360000154036114d957611290828989600281111561128b5761128a61461c565b5b61290e565b8360020190805190602001906112a7929190613992565b5085836000018190555060008360050160006101000a81548160ff021916908315150217905550826002018054905067ffffffffffffffff8111156112ef576112ee6144d6565b5b60405190808252806020026020018201604052801561131d5781602001602082028036833780820191505090505b50836003019080519060200190611335929190613992565b50600083600201805490508761134b919061467a565b905060005b8460020180549050811015611397578185600301828154811061137657611375614505565b5b9060005260206000200181905550808061138f90614534565b915050611350565b50836002018054905067ffffffffffffffff8111156113b9576113b86144d6565b5b6040519080825280602002602001820160405280156113e75781602001602082028036833780820191505090505b508460040190805190602001906113ff9291906139df565b5060008a6040516020016114139190614723565b6040516020818303038152906040528051906020012090506114358133612683565b50600960008d81526020019081526020016000208b9080600181540180825580915050600190039060005260206000200160009091909190915055600a60008773ffffffffffffffffffffffffffffffffffffffff1673ffffffffffffffffffffffffffffffffffffffff1681526020019081526020016000208b908060018154018082558091505060019003906000526020600020016000909190919091505550505b6000806114e585612a59565b91509150600082511161152d576040517f08c379a000000000000000000000000000000000000000000000000000000000815260040161152490614795565b60405180910390fd5b60008260008151811061154357611542614505565b5b6020026020010151905060008260008151811061156357611562614505565b5b60200260200101519050818910156115b0576040517f08c379a00000000000000000000000000000000000000000000000000000000081526004016115a790614827565b60405180910390fd5b808610156115f3576040517f08c379a00000000000000000000000000000000000000000000000000000000081526004016115ea90614893565b60405180910390fd5b60005b87600201805490508110156116a0578188600201828154811061161c5761161b614505565b5b90600052602060002001540361168d57600188600401828154811061164457611643614505565b5b90600052602060002090602091828204019190066101000a81548160ff0219169083151502179055508288600101600082825461168191906145e8565b925050819055506116a0565b808061169890614534565b9150506115f6565b507fdebfa329389a6f20d44c8ae61763ba5f5ddfe7f867d953dbcd740a80568fcbd28e8e89600001548a600101546040516116de94939291906148b3565b60405180910390a15050505050505050505050505050565b60008061170283610db3565b90508084111561174d578284826040517f79012fb2000000000000000000000000000000000000000000000000000000008152600401611744939291906148f8565b60405180910390fd5b600061175885612317565b905061176d611765612474565b85878461286b565b809250505092915050565b6000600160008373ffffffffffffffffffffffffffffffffffffffff1673ffffffffffffffffffffffffffffffffffffffff168152602001908152602001600020549050919050565b6117c9612c59565b6117d36000612ce0565b565b73dac9b8d2e3698f247caad793e2227461d6ae7d1b73ffffffffffffffffffffffffffffffffffffffff163373ffffffffffffffffffffffffffffffffffffffff1614611857576040517f08c379a000000000000000000000000000000000000000000000000000000000815260040161184e906145c8565b60405180910390fd5b565b60606000600a60008473ffffffffffffffffffffffffffffffffffffffff1673ffffffffffffffffffffffffffffffffffffffff1681526020019081526020016000208054806020026020016040519081016040528092919081815260200182805480156118e657602002820191906000526020600020905b8154815260200190600101908083116118d2575b505050505090506000815167ffffffffffffffff81111561190a576119096144d6565b5b60405190808252806020026020018201604052801561194357816020015b61193061395a565b8152602001906001900390816119285790505b50905060005b8251811015611b17576008600084838151811061196957611968614505565b5b602002602001015181526020019081526020016000206040518060c00160405290816000820154815260200160018201548152602001600282018054806020026020016040519081016040528092919081815260200182805480156119ed57602002820191906000526020600020905b8154815260200190600101908083116119d9575b5050505050815260200160038201805480602002602001604051908101604052809291908181526020018280548015611a4557602002820191906000526020600020905b815481526020019060010190808311611a31575b5050505050815260200160048201805480602002602001604051908101604052809291908181526020018280548015611ac257602002820191906000526020600020906000905b82829054906101000a900460ff16151581526020019060010190602082600001049283019260010382029150808411611a8c5790505b505050505081526020016005820160009054906101000a900460ff161515151581525050828281518110611af957611af8614505565b5b60200260200101819052508080611b0f90614534565b915050611949565b508092505050919050565b73dac9b8d2e3698f247caad793e2227461d6ae7d1b73ffffffffffffffffffffffffffffffffffffffff163373ffffffffffffffffffffffffffffffffffffffff1614611ba4576040517f08c379a0000000000000000000000000000000000000000000000000000000008152600401611b9b906145c8565b60405180910390fd5b8181611bb08282612da6565b50505050565b6000600660009054906101000a900473ffffffffffffffffffffffffffffffffffffffff16905090565b600080600084815260200190815260200160002060000160008373ffffffffffffffffffffffffffffffffffffffff1673ffffffffffffffffffffffffffffffffffffffff16815260200190815260200160002060009054906101000a900460ff16905092915050565b600c6020528060005260406000206000915090505481565b600080611c6e83611f37565b905080841115611cb9578284826040517f284ff667000000000000000000000000000000000000000000000000000000008152600401611cb0939291906148f8565b60405180910390fd5b6000611cc485611e1b565b9050611cd9611cd1612474565b85838861286b565b809250505092915050565b606060058054611cf390614441565b80601f0160208091040260200160405190810160405280929190818152602001828054611d1f90614441565b8015611d6c5780601f10611d4157610100808354040283529160200191611d6c565b820191906000526020600020905b815481529060010190602001808311611d4f57829003601f168201915b5050505050905090565b60078181548110611d8657600080fd5b906000526020600020016000915054906101000a900473ffffffffffffffffffffffffffffffffffffffff1681565b600b6020528060005260406000206000915090505481565b6000801b81565b600080611ddf612474565b9050611dec81858561257b565b600191505092915050565b7f000000000000000000000000000000000000000000000000000000000000000081565b6000611e2882600161241b565b9050919050565b600080611e3b83611f75565b905080851115611e86578285826040517ffe9cceec000000000000000000000000000000000000000000000000000000008152600401611e7d939291906148f8565b60405180910390fd5b6000611e9186610c11565b9050611ea7611e9e612474565b86868985612df3565b80925050509392505050565b600080611ebf8361227e565b905080851115611f0a578285826040517fb94abeec000000000000000000000000000000000000000000000000000000008152600401611f01939291906148f8565b60405180910390fd5b6000611f15866110ab565b9050611f2b611f22612474565b8686848a612df3565b80925050509392505050565b60007fffffffffffffffffffffffffffffffffffffffffffffffffffffffffffffffff9050919050565b6000611f6e82600061248e565b9050919050565b6000611f8a611f8383611778565b600061241b565b9050919050565b611f9a82610c95565b611fa38161266f565b611fad8383612779565b50505050565b73dac9b8d2e3698f247caad793e2227461d6ae7d1b73ffffffffffffffffffffffffffffffffffffffff163373ffffffffffffffffffffffffffffffffffffffff1614612035576040517f08c379a000000000000000000000000000000000000000000000000000000000815260040161202c906145c8565b60405180910390fd5b60008111612078576040517f08c379a000000000000000000000000000000000000000000000000000000000815260040161206f9061497b565b60405180910390fd5b6000612082610c25565b905060008110156120c8576040517f08c379a00000000000000000000000000000000000000000000000000000000081526004016120bf90614a0d565b60405180910390fd5b6000805b60078054905081101561223d576000600782815481106120ef576120ee614505565b5b9060005260206000200160009054906101000a900473ffffffffffffffffffffffffffffffffffffffff1690506000600b60008373ffffffffffffffffffffffffffffffffffffffff1673ffffffffffffffffffffffffffffffffffffffff168152602001908152602001600020549050600085828861216f9190614a2d565b612179919061467a565b905080600b60008573ffffffffffffffffffffffffffffffffffffffff1673ffffffffffffffffffffffffffffffffffffffff16815260200190815260200160002060008282546121ca9190614a6f565b9250508190555080600c60008573ffffffffffffffffffffffffffffffffffffffff1673ffffffffffffffffffffffffffffffffffffffff168152602001908152602001600020600082825461222091906145e8565b92505081905550505050808061223590614534565b9150506120cc565b50600061224984610c11565b905061227833337f00000000000000000000000000000000000000000000000000000000000000008585612df3565b50505050565b600061228982611778565b9050919050565b6000600260008473ffffffffffffffffffffffffffffffffffffffff1673ffffffffffffffffffffffffffffffffffffffff16815260200190815260200160002060008373ffffffffffffffffffffffffffffffffffffffff1673ffffffffffffffffffffffffffffffffffffffff16815260200190815260200160002054905092915050565b600061232482600061248e565b9050919050565b612333612c59565b600073ffffffffffffffffffffffffffffffffffffffff168173ffffffffffffffffffffffffffffffffffffffff16036123a55760006040517f1e4fbdf700000000000000000000000000000000000000000000000000000000815260040161239c9190613edc565b60405180910390fd5b6123ae81612ce0565b50565b60007f01ffc9a7000000000000000000000000000000000000000000000000000000007bffffffffffffffffffffffffffffffffffffffffffffffffffffffff1916827bffffffffffffffffffffffffffffffffffffffffffffffffffffffff1916149050919050565b600061246c600161242a610a2d565b61243491906145e8565b61243c612774565b600a6124489190614bd6565b612450610c25565b61245a91906145e8565b8486612eec909392919063ffffffff16565b905092915050565b600033905090565b6124898383836001612f43565b505050565b60006124df61249b612774565b600a6124a79190614bd6565b6124af610c25565b6124b991906145e8565b60016124c3610a2d565b6124cd91906145e8565b8486612eec909392919063ffffffff16565b905092915050565b60006124f38484612290565b90507fffffffffffffffffffffffffffffffffffffffffffffffffffffffffffffffff81146125755781811015612565578281836040517ffb8f41b200000000000000000000000000000000000000000000000000000000815260040161255c939291906148f8565b60405180910390fd5b61257484848484036000612f43565b5b50505050565b600073ffffffffffffffffffffffffffffffffffffffff168373ffffffffffffffffffffffffffffffffffffffff16036125ed5760006040517f96c6fd1e0000000000000000000000000000000000000000000000000000000081526004016125e49190613edc565b60405180910390fd5b600073ffffffffffffffffffffffffffffffffffffffff168273ffffffffffffffffffffffffffffffffffffffff160361265f5760006040517fec442f050000000000000000000000000000000000000000000000000000000081526004016126569190613edc565b60405180910390fd5b61266a83838361311a565b505050565b6126808161267b612474565b613342565b50565b600061268f8383611be0565b61276957600160008085815260200190815260200160002060000160008473ffffffffffffffffffffffffffffffffffffffff1673ffffffffffffffffffffffffffffffffffffffff16815260200190815260200160002060006101000a81548160ff021916908315150217905550612706612474565b73ffffffffffffffffffffffffffffffffffffffff168273ffffffffffffffffffffffffffffffffffffffff16847f2f8788117e7eff1d82e926ec794901d17c78024a50270940304540a733656f0d60405160405180910390a46001905061276e565b600090505b92915050565b600090565b60006127858383611be0565b1561286057600080600085815260200190815260200160002060000160008473ffffffffffffffffffffffffffffffffffffffff1673ffffffffffffffffffffffffffffffffffffffff16815260200190815260200160002060006101000a81548160ff0219169083151502179055506127fd612474565b73ffffffffffffffffffffffffffffffffffffffff168273ffffffffffffffffffffffffffffffffffffffff16847ff6391f5c32d9c69d2a47ea670b442974b53935d1edc7fd64eb21e047a839171b60405160405180910390a460019050612865565b600090505b92915050565b6128977f0000000000000000000000000000000000000000000000000000000000000000853085613393565b6128a18382613415565b8273ffffffffffffffffffffffffffffffffffffffff168473ffffffffffffffffffffffffffffffffffffffff167fdcbc1c05240f31ff3ad067ef1ee35ce4997762752e3a095284754544f4c709d78484604051612900929190614c21565b60405180910390a350505050565b60606000849050600080600281111561292a5761292961461c565b5b84600281111561293d5761293c61461c565b5b0361294d576201518090506129b8565b600160028111156129615761296061461c565b5b8460028111156129745761297361461c565b5b036129845762093a8090506129b7565b6002808111156129975761299661461c565b5b8460028111156129aa576129a961461c565b5b036129b65762278d0090505b5b5b8467ffffffffffffffff8111156129d2576129d16144d6565b5b604051908082528060200260200182016040528015612a005781602001602082028036833780820191505090505b50925060005b85811015612a4f5782848281518110612a2257612a21614505565b5b6020026020010181815250508183612a3a91906145e8565b92508080612a4790614534565b915050612a06565b5050509392505050565b6060806000805b8460020180549050811015612acb57846004018181548110612a8557612a84614505565b5b90600052602060002090602091828204019190069054906101000a900460ff16612ab8578180612ab490614534565b9250505b8080612ac390614534565b915050612a60565b508067ffffffffffffffff811115612ae657612ae56144d6565b5b604051908082528060200260200182016040528015612b145781602001602082028036833780820191505090505b5091508067ffffffffffffffff811115612b3157612b306144d6565b5b604051908082528060200260200182016040528015612b5f5781602001602082028036833780820191505090505b5092506000805b8560020180549050811015612c5157856004018181548110612b8b57612b8a614505565b5b90600052602060002090602091828204019190069054906101000a900460ff16612c3e57856002018181548110612bc557612bc4614505565b5b9060005260206000200154848381518110612be357612be2614505565b5b602002602001018181525050856003018181548110612c0557612c04614505565b5b9060005260206000200154858381518110612c2357612c22614505565b5b6020026020010181815250508180612c3a90614534565b9250505b8080612c4990614534565b915050612b66565b505050915091565b612c61612474565b73ffffffffffffffffffffffffffffffffffffffff16612c7f611bb6565b73ffffffffffffffffffffffffffffffffffffffff1614612cde57612ca2612474565b6040517f118cdaa7000000000000000000000000000000000000000000000000000000008152600401612cd59190613edc565b60405180910390fd5b565b6000600660009054906101000a900473ffffffffffffffffffffffffffffffffffffffff16905081600660006101000a81548173ffffffffffffffffffffffffffffffffffffffff021916908373ffffffffffffffffffffffffffffffffffffffff1602179055508173ffffffffffffffffffffffffffffffffffffffff168173ffffffffffffffffffffffffffffffffffffffff167f8be0079c531659141344cd1fd0a4f28419497f9722a3daafe3b4186f6b6457e060405160405180910390a35050565b612db08282613497565b612def576040517f08c379a0000000000000000000000000000000000000000000000000000000008152600401612de690614c96565b60405180910390fd5b5050565b8273ffffffffffffffffffffffffffffffffffffffff168573ffffffffffffffffffffffffffffffffffffffff1614612e3257612e318386836124e7565b5b612e3c83826134d6565b612e677f00000000000000000000000000000000000000000000000000000000000000008584613558565b8273ffffffffffffffffffffffffffffffffffffffff168473ffffffffffffffffffffffffffffffffffffffff168673ffffffffffffffffffffffffffffffffffffffff167ffbde797d201c681b91056529119e0b02407c7bb96a4a2c75c01fc9667232c8db8585604051612edd929190614c21565b60405180910390a45050505050565b600080612efa8686866135d7565b9050612f05836136de565b8015612f22575060008480612f1d57612f1c61464b565b5b868809115b15612f3757600181612f3491906145e8565b90505b80915050949350505050565b600073ffffffffffffffffffffffffffffffffffffffff168473ffffffffffffffffffffffffffffffffffffffff1603612fb55760006040517fe602df05000000000000000000000000000000000000000000000000000000008152600401612fac9190613edc565b60405180910390fd5b600073ffffffffffffffffffffffffffffffffffffffff168373ffffffffffffffffffffffffffffffffffffffff16036130275760006040517f94280d6200000000000000000000000000000000000000000000000000000000815260040161301e9190613edc565b60405180910390fd5b81600260008673ffffffffffffffffffffffffffffffffffffffff1673ffffffffffffffffffffffffffffffffffffffff16815260200190815260200160002060008573ffffffffffffffffffffffffffffffffffffffff1673ffffffffffffffffffffffffffffffffffffffff168152602001908152602001600020819055508015613114578273ffffffffffffffffffffffffffffffffffffffff168473ffffffffffffffffffffffffffffffffffffffff167f8c5be1e5ebec7d5bd14f71427d1e84f3dd0314c0f7b2291e5b200ac8c7c3b9258460405161310b9190613abb565b60405180910390a35b50505050565b600073ffffffffffffffffffffffffffffffffffffffff168373ffffffffffffffffffffffffffffffffffffffff160361316c57806003600082825461316091906145e8565b92505081905550613241565b6000600160008573ffffffffffffffffffffffffffffffffffffffff1673ffffffffffffffffffffffffffffffffffffffff168152602001908152602001600020549050818110156131f9578381836040517fe450d38c0000000000000000000000000000000000000000000000000000000081526004016131f0939291906148f8565b60405180910390fd5b818103600160008673ffffffffffffffffffffffffffffffffffffffff1673ffffffffffffffffffffffffffffffffffffffff16815260200190815260200160002081905550505b600073ffffffffffffffffffffffffffffffffffffffff168273ffffffffffffffffffffffffffffffffffffffff160361328a57806003600082825403925050819055506132d8565b80600160008473ffffffffffffffffffffffffffffffffffffffff1673ffffffffffffffffffffffffffffffffffffffff168152602001908152602001600020600082825401925050819055505b8173ffffffffffffffffffffffffffffffffffffffff168373ffffffffffffffffffffffffffffffffffffffff167fddf252ad1be2c89b69c2b068fc378daa952ba7f163c4a11628f55a4df523b3ef836040516133359190613abb565b60405180910390a3505050565b61334c8282611be0565b61338f5780826040517fe2517d3f000000000000000000000000000000000000000000000000000000008152600401613386929190614cb6565b60405180910390fd5b5050565b61340f848573ffffffffffffffffffffffffffffffffffffffff166323b872dd8686866040516024016133c893929190614cdf565b604051602081830303815290604052915060e01b6020820180517bffffffffffffffffffffffffffffffffffffffffffffffffffffffff838183161783525050505061370c565b50505050565b600073ffffffffffffffffffffffffffffffffffffffff168273ffffffffffffffffffffffffffffffffffffffff16036134875760006040517fec442f0500000000000000000000000000000000000000000000000000000000815260040161347e9190613edc565b60405180910390fd5b6134936000838361311a565b5050565b600080836040516020016134ab9190614723565b6040516020818303038152906040528051906020012090506134cd8184611be0565b91505092915050565b600073ffffffffffffffffffffffffffffffffffffffff168273ffffffffffffffffffffffffffffffffffffffff16036135485760006040517f96c6fd1e00000000000000000000000000000000000000000000000000000000815260040161353f9190613edc565b60405180910390fd5b6135548260008361311a565b5050565b6135d2838473ffffffffffffffffffffffffffffffffffffffff1663a9059cbb858560405160240161358b929190614d16565b604051602081830303815290604052915060e01b6020820180517bffffffffffffffffffffffffffffffffffffffffffffffffffffffff838183161783525050505061370c565b505050565b6000808385029050600080198587098281108382030391505060008103613612578382816136085761360761464b565b5b04925050506136d7565b80841161364b576040517f227bc15300000000000000000000000000000000000000000000000000000000815260040160405180910390fd5b600084868809905082811182039150808303925060008560000386169050808604955080840493506001818260000304019050808302841793506000600287600302189050808702600203810290508087026002038102905080870260020381029050808702600203810290508087026002038102905080870260020381029050808502955050505050505b9392505050565b6000600160028360038111156136f7576136f661461c565b5b6137019190614d3f565b60ff16149050919050565b6000613737828473ffffffffffffffffffffffffffffffffffffffff166137a390919063ffffffff16565b9050600081511415801561375c57508080602001905181019061375a9190614d9c565b155b1561379e57826040517f5274afe70000000000000000000000000000000000000000000000000000000081526004016137959190613edc565b60405180910390fd5b505050565b60606137b1838360006137b9565b905092915050565b60608147101561380057306040517fcd7860590000000000000000000000000000000000000000000000000000000081526004016137f79190613edc565b60405180910390fd5b6000808573ffffffffffffffffffffffffffffffffffffffff1684866040516138299190614e10565b60006040518083038185875af1925050503d8060008114613866576040519150601f19603f3d011682016040523d82523d6000602084013e61386b565b606091505b509150915061387b868383613886565b925050509392505050565b60608261389b5761389682613915565b61390d565b600082511480156138c3575060008473ffffffffffffffffffffffffffffffffffffffff163b145b1561390557836040517f9996b3150000000000000000000000000000000000000000000000000000000081526004016138fc9190613edc565b60405180910390fd5b81905061390e565b5b9392505050565b6000815111156139285780518082602001fd5b6040517f1425ea4200000000000000000000000000000000000000000000000000000000815260040160405180910390fd5b6040518060c0016040528060008152602001600081526020016060815260200160608152602001606081526020016000151581525090565b8280548282559060005260206000209081019282156139ce579160200282015b828111156139cd5782518255916020019190600101906139b2565b5b5090506139db9190613a85565b5090565b82805482825590600052602060002090601f01602090048101928215613a745791602002820160005b83821115613a4557835183826101000a81548160ff0219169083151502179055509260200192600101602081600001049283019260010302613a08565b8015613a725782816101000a81549060ff0219169055600101602081600001049283019260010302613a45565b505b509050613a819190613a85565b5090565b5b80821115613a9e576000816000905550600101613a86565b5090565b6000819050919050565b613ab581613aa2565b82525050565b6000602082019050613ad06000830184613aac565b92915050565b600080fd5b60007fffffffff0000000000000000000000000000000000000000000000000000000082169050919050565b613b1081613adb565b8114613b1b57600080fd5b50565b600081359050613b2d81613b07565b92915050565b600060208284031215613b4957613b48613ad6565b5b6000613b5784828501613b1e565b91505092915050565b60008115159050919050565b613b7581613b60565b82525050565b6000602082019050613b906000830184613b6c565b92915050565b600081519050919050565b600082825260208201905092915050565b60005b83811015613bd0578082015181840152602081019050613bb5565b60008484015250505050565b6000601f19601f8301169050919050565b6000613bf882613b96565b613c028185613ba1565b9350613c12818560208601613bb2565b613c1b81613bdc565b840191505092915050565b60006020820190508181036000830152613c408184613bed565b905092915050565b613c5181613aa2565b8114613c5c57600080fd5b50565b600081359050613c6e81613c48565b92915050565b600060208284031215613c8a57613c89613ad6565b5b6000613c9884828501613c5f565b91505092915050565b600073ffffffffffffffffffffffffffffffffffffffff82169050919050565b6000613ccc82613ca1565b9050919050565b613cdc81613cc1565b8114613ce757600080fd5b50565b600081359050613cf981613cd3565b92915050565b60008060408385031215613d1657613d15613ad6565b5b6000613d2485828601613cea565b9250506020613d3585828601613c5f565b9150509250929050565b6000606082019050613d546000830186613aac565b613d616020830185613aac565b613d6e6040830184613b6c565b949350505050565b600080600060608486031215613d8f57613d8e613ad6565b5b6000613d9d86828701613cea565b9350506020613dae86828701613cea565b9250506040613dbf86828701613c5f565b9150509250925092565b6000819050919050565b613ddc81613dc9565b8114613de757600080fd5b50565b600081359050613df981613dd3565b92915050565b600060208284031215613e1557613e14613ad6565b5b6000613e2384828501613dea565b91505092915050565b613e3581613dc9565b82525050565b6000602082019050613e506000830184613e2c565b92915050565b60008060408385031215613e6d57613e6c613ad6565b5b6000613e7b85828601613dea565b9250506020613e8c85828601613cea565b9150509250929050565b600060ff82169050919050565b613eac81613e96565b82525050565b6000602082019050613ec76000830184613ea3565b92915050565b613ed681613cc1565b82525050565b6000602082019050613ef16000830184613ecd565b92915050565b600060208284031215613f0d57613f0c613ad6565b5b6000613f1b84828501613cea565b91505092915050565b600081519050919050565b600082825260208201905092915050565b6000819050602082019050919050565b613f5981613aa2565b82525050565b600081519050919050565b600082825260208201905092915050565b6000819050602082019050919050565b6000613f978383613f50565b60208301905092915050565b6000602082019050919050565b6000613fbb82613f5f565b613fc58185613f6a565b9350613fd083613f7b565b8060005b83811015614001578151613fe88882613f8b565b9750613ff383613fa3565b925050600181019050613fd4565b5085935050505092915050565b600081519050919050565b600082825260208201905092915050565b6000819050602082019050919050565b61404381613b60565b82525050565b6000614055838361403a565b60208301905092915050565b6000602082019050919050565b60006140798261400e565b6140838185614019565b935061408e8361402a565b8060005b838110156140bf5781516140a68882614049565b97506140b183614061565b925050600181019050614092565b5085935050505092915050565b600060c0830160008301516140e46000860182613f50565b5060208301516140f76020860182613f50565b506040830151848203604086015261410f8282613fb0565b915050606083015184820360608601526141298282613fb0565b91505060808301518482036080860152614143828261406e565b91505060a083015161415860a086018261403a565b508091505092915050565b600061416f83836140cc565b905092915050565b6000602082019050919050565b600061418f82613f24565b6141998185613f2f565b9350836020820285016141ab85613f40565b8060005b858110156141e757848403895281516141c88582614163565b94506141d383614177565b925060208a019950506001810190506141af565b50829750879550505050505092915050565b600060208201905081810360008301526142138184614184565b905092915050565b6000806040838503121561423257614231613ad6565b5b600061424085828601613c5f565b925050602061425185828601613c5f565b9150509250929050565b600080600080600080600060e0888a03121561427a57614279613ad6565b5b60006142888a828b01613c5f565b97505060206142998a828b01613c5f565b96505060406142aa8a828b01613c5f565b95505060606142bb8a828b01613c5f565b94505060806142cc8a828b01613c5f565b93505060a06142dd8a828b01613c5f565b92505060c06142ee8a828b01613cea565b91505092959891949750929550565b6000806040838503121561431457614313613ad6565b5b600061432285828601613c5f565b925050602061433385828601613cea565b9150509250929050565b60008060006060848603121561435657614355613ad6565b5b600061436486828701613c5f565b935050602061437586828701613cea565b925050604061438686828701613cea565b9150509250925092565b600080604083850312156143a7576143a6613ad6565b5b60006143b585828601613cea565b92505060206143c685828601613cea565b9150509250929050565b6000815190506143df81613c48565b92915050565b6000602082840312156143fb576143fa613ad6565b5b6000614409848285016143d0565b91505092915050565b7f4e487b7100000000000000000000000000000000000000000000000000000000600052602260045260246000fd5b6000600282049050600182168061445957607f821691505b60208210810361446c5761446b614412565b5b50919050565b7f4e487b7100000000000000000000000000000000000000000000000000000000600052601160045260246000fd5b60006144ac82613e96565b91506144b783613e96565b9250828201905060ff8111156144d0576144cf614472565b5b92915050565b7f4e487b7100000000000000000000000000000000000000000000000000000000600052604160045260246000fd5b7f4e487b7100000000000000000000000000000000000000000000000000000000600052603260045260246000fd5b600061453f82613aa2565b91507fffffffffffffffffffffffffffffffffffffffffffffffffffffffffffffffff820361457157614570614472565b5b600182019050919050565b7f43616c6c6572206973206e6f742074686520636f726520616464726573730000600082015250565b60006145b2601e83613ba1565b91506145bd8261457c565b602082019050919050565b600060208201905081810360008301526145e1816145a5565b9050919050565b60006145f382613aa2565b91506145fe83613aa2565b925082820190508082111561461657614615614472565b5b92915050565b7f4e487b7100000000000000000000000000000000000000000000000000000000600052602160045260246000fd5b7f4e487b7100000000000000000000000000000000000000000000000000000000600052601260045260246000fd5b600061468582613aa2565b915061469083613aa2565b9250826146a05761469f61464b565b5b828204905092915050565b6000819050919050565b6146c66146c182613aa2565b6146ab565b82525050565b600081905092915050565b7f6275796572000000000000000000000000000000000000000000000000000000600082015250565b600061470d6005836146cc565b9150614718826146d7565b600582019050919050565b600061472f82846146b5565b60208201915061473e82614700565b915081905092915050565b7f4e6f2072656d61696e696e672073706c69747320746f2070726f636573730000600082015250565b600061477f601e83613ba1565b915061478a82614749565b602082019050919050565b600060208201905081810360008301526147ae81614772565b9050919050565b7f496e73756666696369656e7420616d6f756e7420666f7220746865206e65787460008201527f207061796d656e74000000000000000000000000000000000000000000000000602082015250565b6000614811602883613ba1565b915061481c826147b5565b604082019050919050565b6000602082019050818103600083015261484081614804565b9050919050565b7f4e657874207061796d656e74206973206e6f7420647565207965740000000000600082015250565b600061487d601b83613ba1565b915061488882614847565b602082019050919050565b600060208201905081810360008301526148ac81614870565b9050919050565b60006080820190506148c86000830187613aac565b6148d56020830186613aac565b6148e26040830185613aac565b6148ef6060830184613aac565b95945050505050565b600060608201905061490d6000830186613ecd565b61491a6020830185613aac565b6149276040830184613aac565b949350505050565b7f496e76616c6964207769746864726177616c20616d6f756e7400000000000000600082015250565b6000614965601983613ba1565b91506149708261492f565b602082019050919050565b6000602082019050818103600083015261499481614958565b9050919050565b7f496e73756666696369656e742073686172657320617661696c61626c6520666f60008201527f7220646973747269627574696f6e000000000000000000000000000000000000602082015250565b60006149f7602e83613ba1565b9150614a028261499b565b604082019050919050565b60006020820190508181036000830152614a26816149ea565b9050919050565b6000614a3882613aa2565b9150614a4383613aa2565b9250828202614a5181613aa2565b91508282048414831517614a6857614a67614472565b5b5092915050565b6000614a7a82613aa2565b9150614a8583613aa2565b9250828203905081811115614a9d57614a9c614472565b5b92915050565b60008160011c9050919050565b6000808291508390505b6001851115614afa57808604811115614ad657614ad5614472565b5b6001851615614ae55780820291505b8081029050614af385614aa3565b9450614aba565b94509492505050565b600082614b135760019050614bcf565b81614b215760009050614bcf565b8160018114614b375760028114614b4157614b70565b6001915050614bcf565b60ff841115614b5357614b52614472565b5b8360020a915084821115614b6a57614b69614472565b5b50614bcf565b5060208310610133831016604e8410600b8410161715614ba55782820a905083811115614ba057614b9f614472565b5b614bcf565b614bb28484846001614ab0565b92509050818404811115614bc957614bc8614472565b5b81810290505b9392505050565b6000614be182613aa2565b9150614bec83613e96565b9250614c197fffffffffffffffffffffffffffffffffffffffffffffffffffffffffffffffff8484614b03565b905092915050565b6000604082019050614c366000830185613aac565b614c436020830184613aac565b9392505050565b7f554e415554484f52495a45440000000000000000000000000000000000000000600082015250565b6000614c80600c83613ba1565b9150614c8b82614c4a565b602082019050919050565b60006020820190508181036000830152614caf81614c73565b9050919050565b6000604082019050614ccb6000830185613ecd565b614cd86020830184613e2c565b9392505050565b6000606082019050614cf46000830186613ecd565b614d016020830185613ecd565b614d0e6040830184613aac565b949350505050565b6000604082019050614d2b6000830185613ecd565b614d386020830184613aac565b9392505050565b6000614d4a82613e96565b9150614d5583613e96565b925082614d6557614d6461464b565b5b828206905092915050565b614d7981613b60565b8114614d8457600080fd5b50565b600081519050614d9681614d70565b92915050565b600060208284031215614db257614db1613ad6565b5b6000614dc084828501614d87565b91505092915050565b600081519050919050565b600081905092915050565b6000614dea82614dc9565b614df48185614dd4565b9350614e04818560208601613bb2565b80840191505092915050565b6000614e1c8284614ddf565b91508190509291505056fea26469706673582212209a09325464f2b1e7cf32ed82792077244778b796add2e0b3493c075f51ff461064736f6c63430008140033",
    "linkReferences": {},
    "deployedLinkReferences": {}
}