{
  "_format": "hh-sol-artifact-1",
  "contractName": "KiteMain",
  "sourceName": "contracts/KiteMain.sol",
  "abi": [
    {
      "inputs": [],
      "stateMutability": "nonpayable",
      "type": "constructor"
    },
    {
      "inputs": [
        {
          "internalType": "address",
          "name": "router",
          "type": "address"
        }
      ],
      "name": "InvalidRouter",
      "type": "error"
    },
    {
      "anonymous": false,
      "inputs": [
        {
          "indexed": false,
          "internalType": "uint256",
          "name": "campaignId",
          "type": "uint256"
        },
        {
          "indexed": true,
          "internalType": "address",
          "name": "campaignAddress",
          "type": "address"
        }
      ],
      "name": "CampaignCreated",
      "type": "event"
    },
    {
      "inputs": [
        {
          "internalType": "uint256",
          "name": "",
          "type": "uint256"
        }
      ],
      "name": "arbitrages",
      "outputs": [
        {
          "internalType": "address",
          "name": "userToLiquidate",
          "type": "address"
        },
        {
          "internalType": "uint256",
          "name": "amountToLiquidate",
          "type": "uint256"
        }
      ],
      "stateMutability": "view",
      "type": "function"
    },
    {
      "inputs": [],
      "name": "campaignIdCounter",
      "outputs": [
        {
          "internalType": "uint256",
          "name": "",
          "type": "uint256"
        }
      ],
      "stateMutability": "view",
      "type": "function"
    },
    {
      "inputs": [
        {
          "internalType": "address",
          "name": "",
          "type": "address"
        },
        {
          "internalType": "uint256",
          "name": "",
          "type": "uint256"
        }
      ],
      "name": "campaignIdsByAddress",
      "outputs": [
        {
          "internalType": "uint256",
          "name": "",
          "type": "uint256"
        }
      ],
      "stateMutability": "view",
      "type": "function"
    },
    {
      "inputs": [
        {
          "internalType": "uint256",
          "name": "",
          "type": "uint256"
        }
      ],
      "name": "campaigns",
      "outputs": [
        {
          "internalType": "uint256",
          "name": "campaignId",
          "type": "uint256"
        },
        {
          "internalType": "address",
          "name": "vaultAddress",
          "type": "address"
        },
        {
          "internalType": "uint256",
          "name": "interestRate",
          "type": "uint256"
        },
        {
          "internalType": "enum KiteMain.PaymentInterval",
          "name": "paymentInterval",
          "type": "uint8"
        },
        {
          "internalType": "uint256",
          "name": "splitsCount",
          "type": "uint256"
        },
        {
          "internalType": "address",
          "name": "owner",
          "type": "address"
        }
      ],
      "stateMutability": "view",
      "type": "function"
    },
    {
      "inputs": [
        {
          "components": [
            {
              "internalType": "bytes32",
              "name": "messageId",
              "type": "bytes32"
            },
            {
              "internalType": "uint64",
              "name": "sourceChainSelector",
              "type": "uint64"
            },
            {
              "internalType": "bytes",
              "name": "sender",
              "type": "bytes"
            },
            {
              "internalType": "bytes",
              "name": "data",
              "type": "bytes"
            },
            {
              "components": [
                {
                  "internalType": "address",
                  "name": "token",
                  "type": "address"
                },
                {
                  "internalType": "uint256",
                  "name": "amount",
                  "type": "uint256"
                }
              ],
              "internalType": "struct Client.EVMTokenAmount[]",
              "name": "destTokenAmounts",
              "type": "tuple[]"
            }
          ],
          "internalType": "struct Client.Any2EVMMessage",
          "name": "message",
          "type": "tuple"
        }
      ],
      "name": "ccipReceive",
      "outputs": [],
      "stateMutability": "nonpayable",
      "type": "function"
    },
    {
      "inputs": [
        {
          "internalType": "bytes",
          "name": "",
          "type": "bytes"
        }
      ],
      "name": "checkUpkeep",
      "outputs": [
        {
          "internalType": "bool",
          "name": "upkeepNeeded",
          "type": "bool"
        },
        {
          "internalType": "bytes",
          "name": "",
          "type": "bytes"
        }
      ],
      "stateMutability": "view",
      "type": "function"
    },
    {
      "inputs": [
        {
          "internalType": "uint256",
          "name": "_interestRate",
          "type": "uint256"
        },
        {
          "internalType": "address",
          "name": "_vaultAddress",
          "type": "address"
        },
        {
          "internalType": "enum KiteMain.PaymentInterval",
          "name": "_paymentInterval",
          "type": "uint8"
        },
        {
          "internalType": "uint256",
          "name": "_splitsCount",
          "type": "uint256"
        }
      ],
      "name": "createCampaign",
      "outputs": [],
      "stateMutability": "nonpayable",
      "type": "function"
    },
    {
      "inputs": [
        {
          "internalType": "address",
          "name": "_userAddress",
          "type": "address"
        }
      ],
      "name": "getCampaignsByAddress",
      "outputs": [
        {
          "components": [
            {
              "internalType": "uint256",
              "name": "campaignId",
              "type": "uint256"
            },
            {
              "internalType": "address",
              "name": "vaultAddress",
              "type": "address"
            },
            {
              "internalType": "uint256",
              "name": "interestRate",
              "type": "uint256"
            },
            {
              "internalType": "enum KiteMain.PaymentInterval",
              "name": "paymentInterval",
              "type": "uint8"
            },
            {
              "internalType": "uint256",
              "name": "splitsCount",
              "type": "uint256"
            },
            {
              "internalType": "address",
              "name": "owner",
              "type": "address"
            }
          ],
          "internalType": "struct KiteMain.Campaign[]",
          "name": "",
          "type": "tuple[]"
        }
      ],
      "stateMutability": "view",
      "type": "function"
    },
    {
      "inputs": [],
      "name": "getRouter",
      "outputs": [
        {
          "internalType": "address",
          "name": "",
          "type": "address"
        }
      ],
      "stateMutability": "view",
      "type": "function"
    },
    {
      "inputs": [
        {
          "internalType": "uint256",
          "name": "campaignID",
          "type": "uint256"
        },
        {
          "internalType": "uint256",
          "name": "total",
          "type": "uint256"
        },
        {
          "internalType": "uint256",
          "name": "amount",
          "type": "uint256"
        }
      ],
      "name": "initiateTrade",
      "outputs": [],
      "stateMutability": "nonpayable",
      "type": "function"
    },
    {
      "inputs": [],
      "name": "interval",
      "outputs": [
        {
          "internalType": "uint256",
          "name": "",
          "type": "uint256"
        }
      ],
      "stateMutability": "view",
      "type": "function"
    },
    {
      "inputs": [],
      "name": "lastTimeStamp",
      "outputs": [
        {
          "internalType": "uint256",
          "name": "",
          "type": "uint256"
        }
      ],
      "stateMutability": "view",
      "type": "function"
    },
    {
      "inputs": [
        {
          "internalType": "uint256",
          "name": "campaignID",
          "type": "uint256"
        },
        {
          "internalType": "uint256",
          "name": "tradeID",
          "type": "uint256"
        },
        {
          "internalType": "address",
          "name": "userToLiquidate",
          "type": "address"
        },
        {
          "internalType": "uint256",
          "name": "amountToLiquidate",
          "type": "uint256"
        }
      ],
      "name": "performLiquidation",
      "outputs": [],
      "stateMutability": "nonpayable",
      "type": "function"
    },
    {
      "inputs": [
        {
          "internalType": "bytes",
          "name": "",
          "type": "bytes"
        }
      ],
      "name": "performUpkeep",
      "outputs": [],
      "stateMutability": "nonpayable",
      "type": "function"
    },
    {
      "inputs": [
        {
          "internalType": "bytes4",
          "name": "interfaceId",
          "type": "bytes4"
        }
      ],
      "name": "supportsInterface",
      "outputs": [
        {
          "internalType": "bool",
          "name": "",
          "type": "bool"
        }
      ],
      "stateMutability": "pure",
      "type": "function"
    },
    {
      "inputs": [],
      "name": "tradeCounters",
      "outputs": [
        {
          "internalType": "uint256",
          "name": "",
          "type": "uint256"
        }
      ],
      "stateMutability": "view",
      "type": "function"
    }
  ],
  "bytecode": "0x60c06040523480156200001157600080fd5b50730bf3de8c5d3e8a2b34d2beeb17abfcebaf363a59736ae43d3271ff6888e7fc43fd7321a503ff7389517388233eec48594421fa925d614b3a94a2ddc19a08816000806101000a81548173ffffffffffffffffffffffffffffffffffffffff021916908373ffffffffffffffffffffffffffffffffffffffff16021790555080600160006101000a81548173ffffffffffffffffffffffffffffffffffffffff021916908373ffffffffffffffffffffffffffffffffffffffff1602179055505050600073ffffffffffffffffffffffffffffffffffffffff168173ffffffffffffffffffffffffffffffffffffffff1603620001495760006040517fd7f73334000000000000000000000000000000000000000000000000000000008152600401620001409190620001d2565b60405180910390fd5b8073ffffffffffffffffffffffffffffffffffffffff1660808173ffffffffffffffffffffffffffffffffffffffff168152505050603c60a08181525050620001ef565b600073ffffffffffffffffffffffffffffffffffffffff82169050919050565b6000620001ba826200018d565b9050919050565b620001cc81620001ad565b82525050565b6000602082019050620001e96000830184620001c1565b92915050565b60805160a0516124a66200022a600039600081816104b70152818161078d0152610b1f0152600081816107d70152610b4501526124a66000f3fe608060405234801561001057600080fd5b50600436106101005760003560e01c806385572ffb11610097578063ce599fcc11610066578063ce599fcc146102c8578063f28cce89146102e6578063f9d5201c14610316578063fa269aae1461033257610100565b806385572ffb1461025457806394764c6514610270578063947a36fb1461028c578063b0f479a1146102aa57610100565b80634585e33b116100d35780634585e33b146101a65780635022f2e1146101c2578063676c4904146101f25780636e04ff0d1461022357610100565b806301ffc9a714610105578063141961bc146101355780632e6186761461016a5780633f3b3b2714610188575b600080fd5b61011f600480360381019061011a919061135d565b61034e565b60405161012c91906113a5565b60405180910390f35b61014f600480360381019061014a91906113f6565b610420565b604051610161969594939291906114ea565b60405180910390f35b6101726104a9565b60405161017f919061154b565b60405180910390f35b6101906104af565b60405161019d919061154b565b60405180910390f35b6101c060048036038101906101bb91906115cb565b6104b5565b005b6101dc60048036038101906101d79190611644565b610507565b6040516101e991906117c8565b60405180910390f35b61020c600480360381019061020791906113f6565b610733565b60405161021a9291906117ea565b60405180910390f35b61023d600480360381019061023891906115cb565b610787565b60405161024b9291906118a3565b60405180910390f35b61026e600480360381019061026991906118f7565b6107d5565b005b61028a60048036038101906102859190611940565b61087a565b005b610294610b1d565b6040516102a1919061154b565b60405180910390f35b6102b2610b41565b6040516102bf9190611993565b60405180910390f35b6102d0610b69565b6040516102dd919061154b565b60405180910390f35b61030060048036038101906102fb91906119ae565b610b6f565b60405161030d919061154b565b60405180910390f35b610330600480360381019061032b9190611a13565b610ba0565b005b61034c60048036038101906103479190611a7a565b610c39565b005b60007f85572ffb000000000000000000000000000000000000000000000000000000007bffffffffffffffffffffffffffffffffffffffffffffffffffffffff1916827bffffffffffffffffffffffffffffffffffffffffffffffffffffffff1916148061041957507f01ffc9a7000000000000000000000000000000000000000000000000000000007bffffffffffffffffffffffffffffffffffffffffffffffffffffffff1916827bffffffffffffffffffffffffffffffffffffffffffffffffffffffff1916145b9050919050565b60076020528060005260406000206000915090508060000154908060010160009054906101000a900473ffffffffffffffffffffffffffffffffffffffff16908060020154908060030160009054906101000a900460ff16908060040154908060050160009054906101000a900473ffffffffffffffffffffffffffffffffffffffff16905086565b60035481565b60045481565b7f0000000000000000000000000000000000000000000000000000000000000000600454426104e49190611b10565b1180156104f657506000600580549050115b1561050357426004819055505b5050565b60606000600660008473ffffffffffffffffffffffffffffffffffffffff1673ffffffffffffffffffffffffffffffffffffffff16815260200190815260200160002090506000818054905067ffffffffffffffff81111561056c5761056b611b44565b5b6040519080825280602002602001820160405280156105a557816020015b61059261127d565b81526020019060019003908161058a5790505b50905060005b828054905081101561072857600760008483815481106105ce576105cd611b73565b5b906000526020600020015481526020019081526020016000206040518060c0016040529081600082015481526020016001820160009054906101000a900473ffffffffffffffffffffffffffffffffffffffff1673ffffffffffffffffffffffffffffffffffffffff1673ffffffffffffffffffffffffffffffffffffffff168152602001600282015481526020016003820160009054906101000a900460ff16600281111561068157610680611473565b5b600281111561069357610692611473565b5b8152602001600482015481526020016005820160009054906101000a900473ffffffffffffffffffffffffffffffffffffffff1673ffffffffffffffffffffffffffffffffffffffff1673ffffffffffffffffffffffffffffffffffffffff168152505082828151811061070a57610709611b73565b5b6020026020010181905250808061072090611ba2565b9150506105ab565b508092505050919050565b6005818154811061074357600080fd5b90600052602060002090600202016000915090508060000160009054906101000a900473ffffffffffffffffffffffffffffffffffffffff16908060010154905082565b600060607f0000000000000000000000000000000000000000000000000000000000000000600454426107ba9190611b10565b1180156107cc57506000600580549050115b91509250929050565b7f000000000000000000000000000000000000000000000000000000000000000073ffffffffffffffffffffffffffffffffffffffff163373ffffffffffffffffffffffffffffffffffffffff161461086557336040517fd7f7333400000000000000000000000000000000000000000000000000000000815260040161085c9190611993565b60405180910390fd5b6108778161087290611f5e565b610d11565b50565b600060026000815461088b90611ba2565b9190508190559050600060076000868152602001908152602001600020905060008160010160009054906101000a900473ffffffffffffffffffffffffffffffffffffffff16905073c4bf5cbdabe595361438f8c6a187bdc330539c6073ffffffffffffffffffffffffffffffffffffffff1663095ea7b382866040518363ffffffff1660e01b81526004016109229291906117ea565b6020604051808303816000875af1158015610941573d6000803e3d6000fd5b505050506040513d601f19601f820116820180604052508101906109659190611f9d565b6109a4576040517f08c379a000000000000000000000000000000000000000000000000000000000815260040161099b90612027565b60405180910390fd5b73c4bf5cbdabe595361438f8c6a187bdc330539c6073ffffffffffffffffffffffffffffffffffffffff166323b872dd3330876040518463ffffffff1660e01b81526004016109f593929190612047565b6020604051808303816000875af1158015610a14573d6000803e3d6000fd5b505050506040513d601f19601f82011682018060405250810190610a389190611f9d565b610a77576040517f08c379a0000000000000000000000000000000000000000000000000000000008152600401610a6e906120ca565b60405180910390fd5b8073ffffffffffffffffffffffffffffffffffffffff166354fc1e33878585600401548660030160009054906101000a900460ff166002811115610abe57610abd611473565b5b8a8a336040518863ffffffff1660e01b8152600401610ae397969594939291906120ea565b600060405180830381600087803b158015610afd57600080fd5b505af1158015610b11573d6000803e3d6000fd5b50505050505050505050565b7f000000000000000000000000000000000000000000000000000000000000000081565b60007f0000000000000000000000000000000000000000000000000000000000000000905090565b60025481565b60066020528160005260406000208181548110610b8b57600080fd5b90600052602060002001600091509150505481565b60008411610be3576040517f08c379a0000000000000000000000000000000000000000000000000000000008152600401610bda906121cb565b60405180910390fd5b60008111610c26576040517f08c379a0000000000000000000000000000000000000000000000000000000008152600401610c1d9061225d565b60405180910390fd5b610c338484848433610dcb565b50505050565b600060076000868152602001908152602001600020905060008160010160009054906101000a900473ffffffffffffffffffffffffffffffffffffffff16905060008190508073ffffffffffffffffffffffffffffffffffffffff1663d564727d856040518263ffffffff1660e01b8152600401610cb7919061154b565b600060405180830381600087803b158015610cd157600080fd5b505af1158015610ce5573d6000803e3d6000fd5b50505050610d0873c4bf5cbdabe595361438f8c6a187bdc330539c608686611003565b50505050505050565b6000806000806000610d26866060015161121e565b9450945094509450945060008511610d73576040517f08c379a0000000000000000000000000000000000000000000000000000000008152600401610d6a906121cb565b60405180910390fd5b60008211610db6576040517f08c379a0000000000000000000000000000000000000000000000000000000008152600401610dad9061225d565b60405180910390fd5b610dc38585858585610dcb565b505050505050565b60036000815480929190610dde90611ba2565b91905055506040518060c0016040528060035481526020018573ffffffffffffffffffffffffffffffffffffffff168152602001868152602001846002811115610e2b57610e2a611473565b5b81526020018381526020018273ffffffffffffffffffffffffffffffffffffffff168152506007600060035481526020019081526020016000206000820151816000015560208201518160010160006101000a81548173ffffffffffffffffffffffffffffffffffffffff021916908373ffffffffffffffffffffffffffffffffffffffff1602179055506040820151816002015560608201518160030160006101000a81548160ff02191690836002811115610eeb57610eea611473565b5b02179055506080820151816004015560a08201518160050160006101000a81548173ffffffffffffffffffffffffffffffffffffffff021916908373ffffffffffffffffffffffffffffffffffffffff160217905550905050600660008273ffffffffffffffffffffffffffffffffffffffff1673ffffffffffffffffffffffffffffffffffffffff16815260200190815260200160002060035490806001815401808255809150506001900390600052602060002001600090919091909150558073ffffffffffffffffffffffffffffffffffffffff167f633109eec20320eded000fc1e2634211aa7e92ba3f5b15faf6dcdafca05094e4600354604051610ff4919061154b565b60405180910390a25050505050565b6000839050818173ffffffffffffffffffffffffffffffffffffffff166370a08231306040518263ffffffff1660e01b81526004016110429190611993565b602060405180830381865afa15801561105f573d6000803e3d6000fd5b505050506040513d601f19601f820116820180604052508101906110839190612292565b10156110c4576040517f08c379a00000000000000000000000000000000000000000000000000000000081526004016110bb9061230b565b60405180910390fd5b8073ffffffffffffffffffffffffffffffffffffffff1663095ea7b360008054906101000a900473ffffffffffffffffffffffffffffffffffffffff16846040518363ffffffff1660e01b815260040161111f9291906117ea565b6020604051808303816000875af115801561113e573d6000803e3d6000fd5b505050506040513d601f19601f820116820180604052508101906111629190611f9d565b5060008054906101000a900473ffffffffffffffffffffffffffffffffffffffff1673ffffffffffffffffffffffffffffffffffffffff1662a718a9600160009054906101000a900473ffffffffffffffffffffffffffffffffffffffff1683868660006040518663ffffffff1660e01b81526004016111e695949392919061232b565b600060405180830381600087803b15801561120057600080fd5b505af1158015611214573d6000803e3d6000fd5b5050505050505050565b6000806000806000806000806000808a80602001905181019061124191906123f5565b945094509450945094508499508398508260ff16600281111561126757611266611473565b5b9750819650809550505050505091939590929450565b6040518060c0016040528060008152602001600073ffffffffffffffffffffffffffffffffffffffff16815260200160008152602001600060028111156112c7576112c6611473565b5b815260200160008152602001600073ffffffffffffffffffffffffffffffffffffffff1681525090565b6000604051905090565b600080fd5b600080fd5b60007fffffffff0000000000000000000000000000000000000000000000000000000082169050919050565b61133a81611305565b811461134557600080fd5b50565b60008135905061135781611331565b92915050565b600060208284031215611373576113726112fb565b5b600061138184828501611348565b91505092915050565b60008115159050919050565b61139f8161138a565b82525050565b60006020820190506113ba6000830184611396565b92915050565b6000819050919050565b6113d3816113c0565b81146113de57600080fd5b50565b6000813590506113f0816113ca565b92915050565b60006020828403121561140c5761140b6112fb565b5b600061141a848285016113e1565b91505092915050565b61142c816113c0565b82525050565b600073ffffffffffffffffffffffffffffffffffffffff82169050919050565b600061145d82611432565b9050919050565b61146d81611452565b82525050565b7f4e487b7100000000000000000000000000000000000000000000000000000000600052602160045260246000fd5b600381106114b3576114b2611473565b5b50565b60008190506114c4826114a2565b919050565b60006114d4826114b6565b9050919050565b6114e4816114c9565b82525050565b600060c0820190506114ff6000830189611423565b61150c6020830188611464565b6115196040830187611423565b61152660608301866114db565b6115336080830185611423565b61154060a0830184611464565b979650505050505050565b60006020820190506115606000830184611423565b92915050565b600080fd5b600080fd5b600080fd5b60008083601f84011261158b5761158a611566565b5b8235905067ffffffffffffffff8111156115a8576115a761156b565b5b6020830191508360018202830111156115c4576115c3611570565b5b9250929050565b600080602083850312156115e2576115e16112fb565b5b600083013567ffffffffffffffff811115611600576115ff611300565b5b61160c85828601611575565b92509250509250929050565b61162181611452565b811461162c57600080fd5b50565b60008135905061163e81611618565b92915050565b60006020828403121561165a576116596112fb565b5b60006116688482850161162f565b91505092915050565b600081519050919050565b600082825260208201905092915050565b6000819050602082019050919050565b6116a6816113c0565b82525050565b6116b581611452565b82525050565b6116c4816114c9565b82525050565b60c0820160008201516116e0600085018261169d565b5060208201516116f360208501826116ac565b506040820151611706604085018261169d565b50606082015161171960608501826116bb565b50608082015161172c608085018261169d565b5060a082015161173f60a08501826116ac565b50505050565b600061175183836116ca565b60c08301905092915050565b6000602082019050919050565b600061177582611671565b61177f818561167c565b935061178a8361168d565b8060005b838110156117bb5781516117a28882611745565b97506117ad8361175d565b92505060018101905061178e565b5085935050505092915050565b600060208201905081810360008301526117e2818461176a565b905092915050565b60006040820190506117ff6000830185611464565b61180c6020830184611423565b9392505050565b600081519050919050565b600082825260208201905092915050565b60005b8381101561184d578082015181840152602081019050611832565b60008484015250505050565b6000601f19601f8301169050919050565b600061187582611813565b61187f818561181e565b935061188f81856020860161182f565b61189881611859565b840191505092915050565b60006040820190506118b86000830185611396565b81810360208301526118ca818461186a565b90509392505050565b600080fd5b600060a082840312156118ee576118ed6118d3565b5b81905092915050565b60006020828403121561190d5761190c6112fb565b5b600082013567ffffffffffffffff81111561192b5761192a611300565b5b611937848285016118d8565b91505092915050565b600080600060608486031215611959576119586112fb565b5b6000611967868287016113e1565b9350506020611978868287016113e1565b9250506040611989868287016113e1565b9150509250925092565b60006020820190506119a86000830184611464565b92915050565b600080604083850312156119c5576119c46112fb565b5b60006119d38582860161162f565b92505060206119e4858286016113e1565b9150509250929050565b600381106119fb57600080fd5b50565b600081359050611a0d816119ee565b92915050565b60008060008060808587031215611a2d57611a2c6112fb565b5b6000611a3b878288016113e1565b9450506020611a4c8782880161162f565b9350506040611a5d878288016119fe565b9250506060611a6e878288016113e1565b91505092959194509250565b60008060008060808587031215611a9457611a936112fb565b5b6000611aa2878288016113e1565b9450506020611ab3878288016113e1565b9350506040611ac48782880161162f565b9250506060611ad5878288016113e1565b91505092959194509250565b7f4e487b7100000000000000000000000000000000000000000000000000000000600052601160045260246000fd5b6000611b1b826113c0565b9150611b26836113c0565b9250828203905081811115611b3e57611b3d611ae1565b5b92915050565b7f4e487b7100000000000000000000000000000000000000000000000000000000600052604160045260246000fd5b7f4e487b7100000000000000000000000000000000000000000000000000000000600052603260045260246000fd5b6000611bad826113c0565b91507fffffffffffffffffffffffffffffffffffffffffffffffffffffffffffffffff8203611bdf57611bde611ae1565b5b600182019050919050565b600080fd5b611bf882611859565b810181811067ffffffffffffffff82111715611c1757611c16611b44565b5b80604052505050565b6000611c2a6112f1565b9050611c368282611bef565b919050565b600080fd5b6000819050919050565b611c5381611c40565b8114611c5e57600080fd5b50565b600081359050611c7081611c4a565b92915050565b600067ffffffffffffffff82169050919050565b611c9381611c76565b8114611c9e57600080fd5b50565b600081359050611cb081611c8a565b92915050565b600080fd5b600067ffffffffffffffff821115611cd657611cd5611b44565b5b611cdf82611859565b9050602081019050919050565b82818337600083830152505050565b6000611d0e611d0984611cbb565b611c20565b905082815260208101848484011115611d2a57611d29611cb6565b5b611d35848285611cec565b509392505050565b600082601f830112611d5257611d51611566565b5b8135611d62848260208601611cfb565b91505092915050565b600067ffffffffffffffff821115611d8657611d85611b44565b5b602082029050602081019050919050565b600060408284031215611dad57611dac611bea565b5b611db76040611c20565b90506000611dc78482850161162f565b6000830152506020611ddb848285016113e1565b60208301525092915050565b6000611dfa611df584611d6b565b611c20565b90508083825260208201905060408402830185811115611e1d57611e1c611570565b5b835b81811015611e465780611e328882611d97565b845260208401935050604081019050611e1f565b5050509392505050565b600082601f830112611e6557611e64611566565b5b8135611e75848260208601611de7565b91505092915050565b600060a08284031215611e9457611e93611bea565b5b611e9e60a0611c20565b90506000611eae84828501611c61565b6000830152506020611ec284828501611ca1565b602083015250604082013567ffffffffffffffff811115611ee657611ee5611c3b565b5b611ef284828501611d3d565b604083015250606082013567ffffffffffffffff811115611f1657611f15611c3b565b5b611f2284828501611d3d565b606083015250608082013567ffffffffffffffff811115611f4657611f45611c3b565b5b611f5284828501611e50565b60808301525092915050565b6000611f6a3683611e7e565b9050919050565b611f7a8161138a565b8114611f8557600080fd5b50565b600081519050611f9781611f71565b92915050565b600060208284031215611fb357611fb26112fb565b5b6000611fc184828501611f88565b91505092915050565b600082825260208201905092915050565b7f417070726f76616c206661696c65640000000000000000000000000000000000600082015250565b6000612011600f83611fca565b915061201c82611fdb565b602082019050919050565b6000602082019050818103600083015261204081612004565b9050919050565b600060608201905061205c6000830186611464565b6120696020830185611464565b6120766040830184611423565b949350505050565b7f5472616e73666572206661696c65640000000000000000000000000000000000600082015250565b60006120b4600f83611fca565b91506120bf8261207e565b602082019050919050565b600060208201905081810360008301526120e3816120a7565b9050919050565b600060e0820190506120ff600083018a611423565b61210c6020830189611423565b6121196040830188611423565b6121266060830187611423565b6121336080830186611423565b61214060a0830185611423565b61214d60c0830184611464565b98975050505050505050565b7f496e7465726573742072617465206d757374206265206772656174657220746860008201527f616e203000000000000000000000000000000000000000000000000000000000602082015250565b60006121b5602483611fca565b91506121c082612159565b604082019050919050565b600060208201905081810360008301526121e4816121a8565b9050919050565b7f4d6178206475726174696f6e206d75737420626520677265617465722074686160008201527f6e20300000000000000000000000000000000000000000000000000000000000602082015250565b6000612247602383611fca565b9150612252826121eb565b604082019050919050565b600060208201905081810360008301526122768161223a565b9050919050565b60008151905061228c816113ca565b92915050565b6000602082840312156122a8576122a76112fb565b5b60006122b68482850161227d565b91505092915050565b7f496e73756666696369656e742047484f20746f206c6971756964617465000000600082015250565b60006122f5601d83611fca565b9150612300826122bf565b602082019050919050565b60006020820190508181036000830152612324816122e8565b9050919050565b600060a0820190506123406000830188611464565b61234d6020830187611464565b61235a6040830186611464565b6123676060830185611423565b6123746080830184611396565b9695505050505050565b600061238982611432565b9050919050565b6123998161237e565b81146123a457600080fd5b50565b6000815190506123b681612390565b92915050565b600060ff82169050919050565b6123d2816123bc565b81146123dd57600080fd5b50565b6000815190506123ef816123c9565b92915050565b600080600080600060a08688031215612411576124106112fb565b5b600061241f8882890161227d565b9550506020612430888289016123a7565b9450506040612441888289016123e0565b93505060606124528882890161227d565b9250506080612463888289016123a7565b915050929550929590935056fea264697066735822122063d95c9847442e876826bf7e9071924d9252ae6d7b0e99890e5eeea1f606c84d64736f6c63430008140033",
  "linkReferences": {},
  "deployedLinkReferences": {}
}